{
  "contractName": "Joyso",
  "abi": [
    {
      "constant": false,
      "inputs": [
        {
          "name": "tokenAddress",
          "type": "address"
        },
        {
          "name": "index",
          "type": "uint256"
        }
      ],
      "name": "registerToken",
      "outputs": [],
      "payable": false,
      "stateMutability": "nonpayable",
      "type": "function"
    },
    {
      "constant": true,
      "inputs": [],
      "name": "userCount",
      "outputs": [
        {
          "name": "",
          "type": "uint256"
        }
      ],
      "payable": false,
      "stateMutability": "view",
      "type": "function"
    },
    {
      "constant": false,
      "inputs": [
        {
          "name": "gasFee",
          "type": "uint256"
        },
        {
          "name": "data",
          "type": "uint256"
        },
        {
          "name": "etherGet",
          "type": "uint256"
        },
        {
          "name": "orderHash",
          "type": "bytes32"
        }
      ],
      "name": "calculateJoyFee",
      "outputs": [
        {
          "name": "",
          "type": "uint256"
        }
      ],
      "payable": false,
      "stateMutability": "nonpayable",
      "type": "function"
    },
    {
      "constant": false,
      "inputs": [],
      "name": "unlockme",
      "outputs": [],
      "payable": false,
      "stateMutability": "nonpayable",
      "type": "function"
    },
    {
      "constant": false,
      "inputs": [
        {
          "name": "admin",
          "type": "address"
        },
        {
          "name": "isAdd",
          "type": "bool"
        }
      ],
      "name": "addToAdmin",
      "outputs": [],
      "payable": false,
      "stateMutability": "nonpayable",
      "type": "function"
    },
    {
      "constant": true,
      "inputs": [],
      "name": "joysoWallet",
      "outputs": [
        {
          "name": "",
          "type": "address"
        }
      ],
      "payable": false,
      "stateMutability": "view",
      "type": "function"
    },
    {
      "constant": false,
      "inputs": [
        {
          "name": "inputs",
          "type": "uint256[]"
        }
      ],
      "name": "matchByAdmin",
      "outputs": [],
      "payable": false,
      "stateMutability": "nonpayable",
      "type": "function"
    },
    {
      "constant": true,
      "inputs": [
        {
          "name": "data",
          "type": "uint256"
        }
      ],
      "name": "decodeOrderMakerFee",
      "outputs": [
        {
          "name": "makerFee",
          "type": "uint256"
        }
      ],
      "payable": false,
      "stateMutability": "pure",
      "type": "function"
    },
    {
      "constant": true,
      "inputs": [
        {
          "name": "",
          "type": "address"
        }
      ],
      "name": "isAdmin",
      "outputs": [
        {
          "name": "",
          "type": "bool"
        }
      ],
      "payable": false,
      "stateMutability": "view",
      "type": "function"
    },
    {
      "constant": false,
      "inputs": [
        {
          "name": "token",
          "type": "address"
        },
        {
          "name": "amount",
          "type": "uint256"
        }
      ],
      "name": "depositToken",
      "outputs": [],
      "payable": false,
      "stateMutability": "nonpayable",
      "type": "function"
    },
    {
      "constant": true,
      "inputs": [
        {
          "name": "_data",
          "type": "uint256"
        }
      ],
      "name": "decodeData4",
      "outputs": [
        {
          "name": "timeStamp",
          "type": "uint256"
        },
        {
          "name": "paymentMethod",
          "type": "uint256"
        },
        {
          "name": "userAddress",
          "type": "address"
        }
      ],
      "payable": false,
      "stateMutability": "view",
      "type": "function"
    },
    {
      "constant": true,
      "inputs": [],
      "name": "lockPeriod",
      "outputs": [
        {
          "name": "",
          "type": "uint256"
        }
      ],
      "payable": false,
      "stateMutability": "view",
      "type": "function"
    },
    {
      "constant": true,
      "inputs": [
        {
          "name": "data",
          "type": "uint256"
        }
      ],
      "name": "decodeOrderUserId",
      "outputs": [
        {
          "name": "userId",
          "type": "uint256"
        }
      ],
      "payable": false,
      "stateMutability": "pure",
      "type": "function"
    },
    {
      "constant": false,
      "inputs": [
        {
          "name": "inputs",
          "type": "uint256[]"
        }
      ],
      "name": "withdrawByAdmin",
      "outputs": [],
      "payable": false,
      "stateMutability": "nonpayable",
      "type": "function"
    },
    {
      "constant": false,
      "inputs": [
        {
          "name": "isBuy",
          "type": "uint256"
        },
        {
          "name": "_tosb",
          "type": "uint256"
        },
        {
          "name": "_tobb",
          "type": "uint256"
        },
        {
          "name": "etherGet",
          "type": "uint256"
        },
        {
          "name": "tokenGet",
          "type": "uint256"
        }
      ],
      "name": "updateTakerOrder",
      "outputs": [
        {
          "name": "tosb",
          "type": "uint256"
        },
        {
          "name": "tobb",
          "type": "uint256"
        }
      ],
      "payable": false,
      "stateMutability": "nonpayable",
      "type": "function"
    },
    {
      "constant": true,
      "inputs": [
        {
          "name": "data",
          "type": "uint256"
        }
      ],
      "name": "decodeOrderTokenIdAndIsBuy",
      "outputs": [
        {
          "name": "tokenId",
          "type": "uint256"
        },
        {
          "name": "isBuy",
          "type": "uint256"
        }
      ],
      "payable": false,
      "stateMutability": "pure",
      "type": "function"
    },
    {
      "constant": false,
      "inputs": [
        {
          "name": "amountSell",
          "type": "uint256"
        },
        {
          "name": "amountBuy",
          "type": "uint256"
        },
        {
          "name": "gasFee",
          "type": "uint256"
        },
        {
          "name": "data",
          "type": "uint256"
        },
        {
          "name": "tosb",
          "type": "uint256"
        },
        {
          "name": "tobb",
          "type": "uint256"
        },
        {
          "name": "isBuy",
          "type": "uint256"
        },
        {
          "name": "tokenId",
          "type": "uint256"
        },
        {
          "name": "orderHash",
          "type": "bytes32"
        }
      ],
      "name": "updateTakerBalance",
      "outputs": [],
      "payable": false,
      "stateMutability": "nonpayable",
      "type": "function"
    },
    {
      "constant": true,
      "inputs": [
        {
          "name": "",
          "type": "bytes32"
        }
      ],
      "name": "usedHash",
      "outputs": [
        {
          "name": "",
          "type": "bool"
        }
      ],
      "payable": false,
      "stateMutability": "view",
      "type": "function"
    },
    {
      "constant": true,
      "inputs": [
        {
          "name": "",
          "type": "address"
        }
      ],
      "name": "userLock",
      "outputs": [
        {
          "name": "",
          "type": "uint256"
        }
      ],
      "payable": false,
      "stateMutability": "view",
      "type": "function"
    },
    {
      "constant": true,
      "inputs": [
        {
          "name": "_data",
          "type": "uint256"
        }
      ],
      "name": "retrieveV",
      "outputs": [
        {
          "name": "v",
          "type": "uint256"
        }
      ],
      "payable": false,
      "stateMutability": "pure",
      "type": "function"
    },
    {
      "constant": false,
      "inputs": [
        {
          "name": "amountSell",
          "type": "uint256"
        },
        {
          "name": "amountBuy",
          "type": "uint256"
        },
        {
          "name": "etherGet",
          "type": "uint256"
        }
      ],
      "name": "calculateTokenGet",
      "outputs": [
        {
          "name": "",
          "type": "uint256"
        }
      ],
      "payable": false,
      "stateMutability": "nonpayable",
      "type": "function"
    },
    {
      "constant": true,
      "inputs": [
        {
          "name": "",
          "type": "address"
        }
      ],
      "name": "address2Id",
      "outputs": [
        {
          "name": "",
          "type": "uint256"
        }
      ],
      "payable": false,
      "stateMutability": "view",
      "type": "function"
    },
    {
      "constant": true,
      "inputs": [
        {
          "name": "data",
          "type": "uint256"
        }
      ],
      "name": "decodeOrderJoyPrice",
      "outputs": [
        {
          "name": "joyPrice",
          "type": "uint256"
        }
      ],
      "payable": false,
      "stateMutability": "pure",
      "type": "function"
    },
    {
      "constant": true,
      "inputs": [
        {
          "name": "data",
          "type": "uint256"
        }
      ],
      "name": "decodeOrderNonce",
      "outputs": [
        {
          "name": "nonce",
          "type": "uint256"
        }
      ],
      "payable": false,
      "stateMutability": "pure",
      "type": "function"
    },
    {
      "constant": true,
      "inputs": [
        {
          "name": "_data",
          "type": "uint256"
        },
        {
          "name": "_address",
          "type": "address"
        }
      ],
      "name": "genUserSignedWithdrawData",
      "outputs": [
        {
          "name": "data",
          "type": "uint256"
        }
      ],
      "payable": false,
      "stateMutability": "pure",
      "type": "function"
    },
    {
      "constant": true,
      "inputs": [],
      "name": "owner",
      "outputs": [
        {
          "name": "",
          "type": "address"
        }
      ],
      "payable": false,
      "stateMutability": "view",
      "type": "function"
    },
    {
      "constant": true,
      "inputs": [
        {
          "name": "hash",
          "type": "bytes32"
        },
        {
          "name": "sender",
          "type": "address"
        },
        {
          "name": "v",
          "type": "uint8"
        },
        {
          "name": "r",
          "type": "bytes32"
        },
        {
          "name": "s",
          "type": "bytes32"
        }
      ],
      "name": "verify",
      "outputs": [
        {
          "name": "",
          "type": "bool"
        }
      ],
      "payable": false,
      "stateMutability": "pure",
      "type": "function"
    },
    {
      "constant": true,
      "inputs": [
        {
          "name": "",
          "type": "uint256"
        }
      ],
      "name": "userId2Address",
      "outputs": [
        {
          "name": "",
          "type": "address"
        }
      ],
      "payable": false,
      "stateMutability": "view",
      "type": "function"
    },
    {
      "constant": false,
      "inputs": [],
      "name": "depositEther",
      "outputs": [],
      "payable": true,
      "stateMutability": "payable",
      "type": "function"
    },
    {
      "constant": true,
      "inputs": [
        {
          "name": "gasFee",
          "type": "uint256"
        },
        {
          "name": "data",
          "type": "uint256"
        },
        {
          "name": "etherGet",
          "type": "uint256"
        },
        {
          "name": "orderHash",
          "type": "bytes32"
        },
        {
          "name": "isTaker",
          "type": "bool"
        }
      ],
      "name": "calculateEtherFee",
      "outputs": [
        {
          "name": "",
          "type": "uint256"
        }
      ],
      "payable": false,
      "stateMutability": "view",
      "type": "function"
    },
    {
      "constant": true,
      "inputs": [],
      "name": "joyToken",
      "outputs": [
        {
          "name": "",
          "type": "address"
        }
      ],
      "payable": false,
      "stateMutability": "view",
      "type": "function"
    },
    {
      "constant": true,
      "inputs": [
        {
          "name": "_data",
          "type": "uint256"
        }
      ],
      "name": "decodeWithdrawData",
      "outputs": [
        {
          "name": "paymentMethod",
          "type": "uint256"
        },
        {
          "name": "tokenID",
          "type": "uint256"
        },
        {
          "name": "userID",
          "type": "uint256"
        }
      ],
      "payable": false,
      "stateMutability": "pure",
      "type": "function"
    },
    {
      "constant": true,
      "inputs": [
        {
          "name": "amountSell",
          "type": "uint256"
        },
        {
          "name": "amountBuy",
          "type": "uint256"
        },
        {
          "name": "_tosb",
          "type": "uint256"
        },
        {
          "name": "isBuy",
          "type": "uint256"
        },
        {
          "name": "orderHash",
          "type": "bytes32"
        }
      ],
      "name": "calculateEtherGet",
      "outputs": [
        {
          "name": "",
          "type": "uint256"
        }
      ],
      "payable": false,
      "stateMutability": "view",
      "type": "function"
    },
    {
      "constant": true,
      "inputs": [
        {
          "name": "",
          "type": "address"
        },
        {
          "name": "",
          "type": "address"
        }
      ],
      "name": "balances",
      "outputs": [
        {
          "name": "",
          "type": "uint256"
        }
      ],
      "payable": false,
      "stateMutability": "view",
      "type": "function"
    },
    {
      "constant": true,
      "inputs": [
        {
          "name": "data",
          "type": "uint256"
        }
      ],
      "name": "decodeOrderTakerFee",
      "outputs": [
        {
          "name": "takerFee",
          "type": "uint256"
        }
      ],
      "payable": false,
      "stateMutability": "pure",
      "type": "function"
    },
    {
      "constant": true,
      "inputs": [
        {
          "name": "amountSell",
          "type": "uint256"
        },
        {
          "name": "amountBuy",
          "type": "uint256"
        },
        {
          "name": "gasFee",
          "type": "uint256"
        },
        {
          "name": "data",
          "type": "uint256"
        }
      ],
      "name": "getOrderDataHash",
      "outputs": [
        {
          "name": "",
          "type": "bytes32"
        }
      ],
      "payable": false,
      "stateMutability": "view",
      "type": "function"
    },
    {
      "constant": true,
      "inputs": [
        {
          "name": "token",
          "type": "address"
        },
        {
          "name": "account",
          "type": "address"
        }
      ],
      "name": "getBalance",
      "outputs": [
        {
          "name": "",
          "type": "uint256"
        }
      ],
      "payable": false,
      "stateMutability": "view",
      "type": "function"
    },
    {
      "constant": true,
      "inputs": [
        {
          "name": "_data",
          "type": "uint256"
        },
        {
          "name": "_isBuy",
          "type": "uint256"
        },
        {
          "name": "_address",
          "type": "address"
        }
      ],
      "name": "genUserSignedOrderData",
      "outputs": [
        {
          "name": "data",
          "type": "uint256"
        }
      ],
      "payable": false,
      "stateMutability": "pure",
      "type": "function"
    },
    {
      "constant": false,
      "inputs": [
        {
          "name": "newOwner",
          "type": "address"
        }
      ],
      "name": "transferOwnership",
      "outputs": [],
      "payable": false,
      "stateMutability": "nonpayable",
      "type": "function"
    },
    {
      "constant": false,
      "inputs": [
        {
          "name": "token",
          "type": "address"
        },
        {
          "name": "amount",
          "type": "uint256"
        }
      ],
      "name": "withdraw",
      "outputs": [],
      "payable": false,
      "stateMutability": "nonpayable",
      "type": "function"
    },
    {
      "constant": true,
      "inputs": [
        {
          "name": "",
          "type": "bytes32"
        }
      ],
      "name": "orderFills",
      "outputs": [
        {
          "name": "",
          "type": "uint256"
        }
      ],
      "payable": false,
      "stateMutability": "view",
      "type": "function"
    },
    {
      "constant": true,
      "inputs": [
        {
          "name": "amount",
          "type": "uint256"
        },
        {
          "name": "gas",
          "type": "uint256"
        },
        {
          "name": "data",
          "type": "uint256"
        }
      ],
      "name": "getWithdrawDataHash",
      "outputs": [
        {
          "name": "",
          "type": "bytes32"
        }
      ],
      "payable": false,
      "stateMutability": "view",
      "type": "function"
    },
    {
      "constant": false,
      "inputs": [],
      "name": "lockMe",
      "outputs": [],
      "payable": false,
      "stateMutability": "nonpayable",
      "type": "function"
    },
    {
      "constant": true,
      "inputs": [
        {
          "name": "",
          "type": "uint256"
        }
      ],
      "name": "tokenId2Address",
      "outputs": [
        {
          "name": "",
          "type": "address"
        }
      ],
      "payable": false,
      "stateMutability": "view",
      "type": "function"
    },
    {
      "inputs": [
        {
          "name": "_joysoWallet",
          "type": "address"
        }
      ],
      "payable": false,
      "stateMutability": "nonpayable",
      "type": "constructor"
    },
    {
      "anonymous": false,
      "inputs": [
        {
          "indexed": false,
          "name": "token",
          "type": "address"
        },
        {
          "indexed": false,
          "name": "user",
          "type": "address"
        },
        {
          "indexed": false,
          "name": "amount",
          "type": "uint256"
        },
        {
          "indexed": false,
          "name": "balance",
          "type": "uint256"
        }
      ],
      "name": "Deposit",
      "type": "event"
    },
    {
      "anonymous": false,
      "inputs": [
        {
          "indexed": false,
          "name": "token",
          "type": "address"
        },
        {
          "indexed": false,
          "name": "user",
          "type": "address"
        },
        {
          "indexed": false,
          "name": "amount",
          "type": "uint256"
        },
        {
          "indexed": false,
          "name": "balance",
          "type": "uint256"
        }
      ],
      "name": "Withdraw",
      "type": "event"
    },
    {
      "anonymous": false,
      "inputs": [
        {
          "indexed": false,
          "name": "user",
          "type": "address"
        },
        {
          "indexed": false,
          "name": "id",
          "type": "uint256"
        }
      ],
      "name": "NewUser",
      "type": "event"
    },
    {
      "anonymous": false,
      "inputs": [
        {
          "indexed": false,
          "name": "user",
          "type": "address"
        },
        {
          "indexed": false,
          "name": "timeLock",
          "type": "uint256"
        }
      ],
      "name": "Lock",
      "type": "event"
    },
    {
      "anonymous": false,
      "inputs": [
        {
          "indexed": false,
          "name": "tosb",
          "type": "uint256"
        },
        {
          "indexed": false,
          "name": "tobb",
          "type": "uint256"
        }
      ],
      "name": "Log",
      "type": "event"
    },
    {
      "anonymous": false,
      "inputs": [
        {
          "indexed": false,
          "name": "user",
          "type": "address"
        }
      ],
      "name": "Log",
      "type": "event"
    },
    {
      "anonymous": false,
      "inputs": [
        {
          "indexed": true,
          "name": "previousOwner",
          "type": "address"
        },
        {
          "indexed": true,
          "name": "newOwner",
          "type": "address"
        }
      ],
      "name": "OwnershipTransferred",
      "type": "event"
    }
  ],
  "bytecode": "0x6060604052620186a0600b5534156200001757600080fd5b604051602080620027798339810160405280805160008054600160a060020a03338116600160a060020a03199283161790925560098054928416929091169190911790559150620000789050816401000000006200216e6200013b82021704565b50600a8054600160a060020a03199081166201234517808355600160a060020a03908116600090815260086020908152604082206001908190557f5eff886ea0ce6ca488a3d6e336d6c0f75f46d19b42c06ce5ee98e42c96d256c783905560069091527f54cdd369e4e8a8515e52ca72ec816c2101831ad1f18bf44102ed171459c9b4f880548516905593549390527f3e5fec24aa4dc4e5aee2e025e51e1392c72a2500577559fae9665c6d52bd6a3180549092169216919091179055620001ed565b600160a060020a038116600090815260086020526040902054156200016057620001ea565b600c8054600101808255600160a060020a0383166000818152600860209081526040808320859055938252600790528290208054600160a060020a031916909117905590547fd75b88a9203b17f9356ca063241beac16a25d5a46f485b378c2c229e864bdd4d9183919051600160a060020a03909216825260208201526040908101905180910390a15b50565b61257c80620001fd6000396000f300606060405236156101fe5763ffffffff60e060020a60003504166302ca5994811461020357806307973ccf146102275780630ce91b381461024c5780630f3186921461026b5780630f7c90851461027e578063135a2474146102a257806319038b8d146102d15780632204c37e1461032057806324d7806c14610336578063338b5dea146103695780633add34461461038b5780633fd8b02f146103ce578063415f47ea146103e157806348761fb6146103f757806350e194d3146104465780635234305c1461048057806353749fa714610496578063560ebbd1146104c55780635617a6e8146104db5780635767b9ab146104fa5780635a00c979146105105780636fbd21601461052c5780636ffb6e331461054b57806378d659631461056157806386c665b6146105775780638da5cb5b1461059957806392d4d9ac146105ac578063934e1666146105da57806398ea5fca146105f0578063a0825880146105f8578063a64968ac1461061c578063b20041f41461062f578063b9d8900714610669578063c23f001f1461068b578063c7caede4146106b0578063c9357a12146106c6578063d4fac45d146106e5578063d95d42411461070a578063f2fde38b1461072f578063f3fef3a31461074e578063f7213db614610770578063f86f84d014610786578063f912ed00146107a2578063fa769257146107b5575b600080fd5b341561020e57600080fd5b610225600160a060020a03600435166024356107cb565b005b341561023257600080fd5b61023a610885565b60405190815260200160405180910390f35b341561025757600080fd5b61023a60043560243560443560643561088b565b341561027657600080fd5b61022561093a565b341561028957600080fd5b610225600160a060020a0360043516602435151561099c565b34156102ad57600080fd5b6102b5610a07565b604051600160a060020a03909116815260200160405180910390f35b34156102dc57600080fd5b6102256004602481358181019083013580602081810201604051908101604052809392919081815260200183836020028082843750949650610a1695505050505050565b341561032b57600080fd5b61023a600435610dd1565b341561034157600080fd5b610355600160a060020a0360043516610e11565b604051901515815260200160405180910390f35b341561037457600080fd5b610225600160a060020a0360043516602435610e26565b341561039657600080fd5b6103a1600435610fa4565b6040519283526020830191909152600160a060020a03166040808301919091526060909101905180910390f35b34156103d957600080fd5b61023a610fe2565b34156103ec57600080fd5b61023a600435610fe8565b341561040257600080fd5b6102256004602481358181019083013580602081810201604051908101604052809392919081815260200183836020028082843750949650610ff195505050505050565b341561045157600080fd5b610468600435602435604435606435608435611655565b60405191825260208201526040908101905180910390f35b341561048b57600080fd5b6104686004356116bc565b34156104a157600080fd5b61022560043560243560443560643560843560a43560c43560e435610104356116f5565b34156104d057600080fd5b6103556004356117aa565b34156104e657600080fd5b61023a600160a060020a03600435166117bf565b341561050557600080fd5b61023a6004356117d1565b341561051b57600080fd5b61023a600435602435604435611801565b341561053757600080fd5b61023a600160a060020a036004351661181f565b341561055657600080fd5b61023a600435611831565b341561056c57600080fd5b61023a600435611869565b341561058257600080fd5b61023a600435600160a060020a036024351661188e565b34156105a457600080fd5b6102b56118b4565b34156105b757600080fd5b610355600435600160a060020a036024351660ff604435166064356084356118c3565b34156105e557600080fd5b6102b56004356118ce565b6102256118e9565b341561060357600080fd5b61023a60043560243560443560643560843515156119ad565b341561062757600080fd5b6102b5611ac7565b341561063a57600080fd5b610645600435611ad6565b60405180848152602001838152602001828152602001935050505060405180910390f35b341561067457600080fd5b61023a600435602435604435606435608435611b05565b341561069657600080fd5b61023a600160a060020a0360043581169060243516611bec565b34156106bb57600080fd5b61023a600435611c09565b34156106d157600080fd5b61023a600435602435604435606435611c4a565b34156106f057600080fd5b61023a600160a060020a0360043581169060243516611ca0565b341561071557600080fd5b61023a600435602435600160a060020a0360443516611ccb565b341561073a57600080fd5b610225600160a060020a0360043516611cf2565b341561075957600080fd5b610225600160a060020a0360043516602435611d8d565b341561077b57600080fd5b61023a600435611fb5565b341561079157600080fd5b61023a600435602435604435611fc7565b34156107ad57600080fd5b610225612013565b34156107c057600080fd5b6102b5600435612089565b60005433600160a060020a03908116911614806108005750600160a060020a03331660009081526005602052604090205460ff165b151561080b57600080fd5b6001811161081857600080fd5b600160a060020a0382166000908152600860205260409020541561083b57600080fd5b600160a060020a0390911660008181526008602090815260408083208590559382526006905291909120805473ffffffffffffffffffffffffffffffffffffffff19169091179055565b600c5481565b600080600080600061089c88611831565b935083156109295760008681526003602052604081205490935015156108ce576108cc838a63ffffffff6120a416565b505b6108f96108ec6127106108e08b610dd1565b9063ffffffff6120ba16565b889063ffffffff6120d116565b9150610910846108e084600a63ffffffff6120d116565b9050610922838263ffffffff6120a416565b945061092e565b600094505b50505050949350505050565b33600160a060020a0381166000908152600260205260408082208290557f625fed9875dada8643f2418b838ae0bc78d9a148a18eee4ee1979ff0f3f5d42792919051600160a060020a03909216825260208201526040908101905180910390a1565b60005433600160a060020a03908116911614806109d15750600160a060020a03331660009081526005602052604090205460ff165b15156109dc57600080fd5b600160a060020a03919091166000908152600560205260409020805460ff1916911515919091179055565b600954600160a060020a031681565b6000805481908190819081908190819033600160a060020a0390811691161480610a585750600160a060020a03331660009081526005602052604090205460ff165b1515610a6357600080fd5b610a8288600381518110610a7357fe5b906020019060200201516116bc565b96509650610b0c88600081518110610a9657fe5b9060200190602002015189600181518110610aad57fe5b906020019060200201518a600281518110610ac457fe5b90602001906020020151610b078c600381518110610ade57fe5b9060200190602002015160008d8152600660205260409020548c90600160a060020a0316611ccb565b611c4a565b60008181526003602052604090205490955015610b2857600080fd5b610bbb8560076000610b4f8c600381518110610b4057fe5b90602001906020020151610fe8565b8152602081019190915260400160002054600160a060020a0316610b888b600381518110610b7957fe5b906020019060200201516117d1565b8b600481518110610b9557fe5b906020019060200201518c600581518110610bac57fe5b906020019060200201516118c3565b1515610bc657600080fd5b60a060020a8618955087600081518110610bdc57fe5b90602001906020020151935060009250600691505b8751821015610d5e5760008411610c0757610d5e565b610c64888381518110610c1657fe5b90602001906020020151898460010181518110610c2f57fe5b906020019060200201518a8560020181518110610c4857fe5b90602001906020020151610b078c8760030181518110610ade57fe5b9050610cd48160076000610c808c8760030181518110610b4057fe5b8152602081019190915260400160002054600160a060020a0316610cac8b6003870181518110610b7957fe5b8b8660040181518110610cbb57fe5b906020019060200201518c6005880181518110610bac57fe5b1515610cdf57600080fd5b610d4d888381518110610cee57fe5b90602001906020020151898460010181518110610d0757fe5b906020019060200201518a8560020181518110610d2057fe5b906020019060200201518b8660030181518110610d3957fe5b9060200190602002015188888c8e896120f5565b909450925060069190910190610bf1565b610dc788600081518110610d6e57fe5b9060200190602002015189600181518110610d8557fe5b906020019060200201518a600281518110610d9c57fe5b906020019060200201518b600381518110610db357fe5b9060200190602002015188888c8e8d6116f5565b5050505050505050565b79ffffffffffffffffffffffffffffffffffffffffffffffffffff16600077ffffffffffffffffffffffffffffffffffffffffffffffff825b0492915050565b60056020526000908152604090205460ff1681565b600160a060020a0382166000908152600860205260409020541515610e4a57600080fd5b610e533361216e565b81600160a060020a03166323b872dd33308460006040516020015260405160e060020a63ffffffff8616028152600160a060020a0393841660048201529190921660248201526044810191909152606401602060405180830381600087803b1515610ebd57600080fd5b6102c65a03f11515610ece57600080fd5b505050604051805190501515610ee357600080fd5b600160a060020a0380831660009081526001602090815260408083203390941683529290522054610f1a908263ffffffff6120a416565b600160a060020a038381166000908152600160209081526040808320339485168452909152908190208390557fdcbc1c05240f31ff3ad067ef1ee35ce4997762752e3a095284754544f4c709d79285929185919051600160a060020a0394851681529290931660208301526040808301919091526060820192909252608001905180910390a15050565b740fffffffffffffffffffffffffffffffffffffffff810491740f0000000000000000000000000000000000000000821691600160a060020a031690565b600b5481565b63ffffffff1690565b60008060008060008060008060008060009054906101000a9004600160a060020a0316600160a060020a031633600160a060020a0316148061104b5750600160a060020a03331660009081526005602052604090205460ff165b151561105657600080fd5b6110668a600281518110610b7957fe5b98506110878a60028151811061107857fe5b90602001906020020151611ad6565b600082815260066020908152604080832054848452600790925290912054939b509199509750600160a060020a0390811696501693506110dd8a6002815181106110cd57fe5b906020019060200201518661188e565b92506111168a6000815181106110ef57fe5b906020019060200201518b60018151811061110657fe5b9060200190602002015185611fc7565b60008181526004602052604090205490925060ff161561113557600080fd5b61115f82858b8d60038151811061114857fe5b906020019060200201518e600481518110610bac57fe5b151561116a57600080fd5b50600060a060020a88141561118b5750600a54600160a060020a03166111ab565b740200000000000000000000000000000000000000008814156111ab5750835b84600160a060020a031681600160a060020a031614156112ba576112028a6001815181106111d557fe5b906020019060200201518b6000815181106111ec57fe5b906020019060200201519063ffffffff6120a416565b600160a060020a03808716600090815260016020908152604080832093891683529290522054101561123357600080fd5b61128f61125d8b60018151811061124657fe5b906020019060200201518c6000815181106111ec57fe5b600160a060020a038088166000908152600160209081526040808320938a16835292905220549063ffffffff61222b16565b600160a060020a03808716600090815260016020908152604080832093891683529290522055611434565b896000815181106112c757fe5b90602001906020020151600160a060020a03808716600090815260016020908152604080832093891683529290522054101561130257600080fd5b8960018151811061130f57fe5b90602001906020020151600160a060020a03808316600090815260016020908152604080832093891683529290522054101561134a57600080fd5b6113968a60008151811061135a57fe5b90602001906020020151600160a060020a038088166000908152600160209081526040808320938a16835292905220549063ffffffff61222b16565b600160a060020a038087166000908152600160208181526040808420948a1684529390529190209190915561140d908b90815181106113d157fe5b90602001906020020151600160a060020a038084166000908152600160209081526040808320938a16835292905220549063ffffffff61222b16565b600160a060020a038083166000908152600160209081526040808320938916835292905220555b6114838a60018151811061144457fe5b90602001906020020151600160a060020a038084166000908152600160209081526040808320600954909416835292905220549063ffffffff6120a416565b600160a060020a0380831660009081526001602081815260408084206009548616855282528084209590955586835260049052929020805460ff19169092179091558516151561151b5733600160a060020a03166108fc8b6000815181106114e757fe5b906020019060200201519081150290604051600060405180830381858888f19350505050151561151657600080fd5b6115b4565b84600160a060020a031663a9059cbb338c60008151811061153857fe5b9060200190602002015160006040516020015260405160e060020a63ffffffff8516028152600160a060020a0390921660048301526024820152604401602060405180830381600087803b151561158e57600080fd5b6102c65a03f1151561159f57600080fd5b5050506040518051905015156115b457600080fd5b7ff341246adaac6f497bc2a656f546ab9e182111d630394f0c57c710a59a2cb56785858c6000815181106115e457fe5b90602001906020020151600160a060020a03808a166000908152600160209081526040808320938c168352929052819020549051600160a060020a0394851681529290931660208301526040808301919091526060820192909252608001905180910390a150505050505050505050565b60008060a060020a87141561168d57611674868463ffffffff61222b16565b9150611686858563ffffffff6120a416565b90506116b2565b61169d868563ffffffff61222b16565b91506116af858463ffffffff6120a416565b90505b9550959350505050565b65ffffffffffff8082169167ffffffffffffffff160460008163ffffffff84048115156116ee5780935060a060020a92505b5050915091565b60008060008060a060020a8714156117215787935061171a8d8a63ffffffff61222b16565b9250611737565b6117318d8a63ffffffff61222b16565b93508792505b6117458b8b868860016119ad565b91506117538b8b868861088b565b905061176a8a60a060020a8918868686868c61223d565b600085815260036020526040902054611789908963ffffffff6120a416565b60009586526003602052604090952094909455505050505050505050505050565b60046020526000908152604090205460ff1681565b60026020526000908152604090205481565b600073f000000000000000000000000000000000000000821615156117f85750601b6117fc565b50601c5b919050565b6000611817846108e0848663ffffffff6120d116565b949350505050565b60086020526000908152604090205481565b77ffffffffffffffffffffffffffffffffffffffffffffffff166000740fffffffffffffffffffffffffffffffffffffffff82610e0a565b60007bffffffffffffffffffffffffffffffffffffffffffffffffffffffff82610e0a565b600160a060020a031673ffffffffffffffffffffffffffffffffffffffff199091161790565b600054600160a060020a031681565b600195945050505050565b600760205260009081526040902054600160a060020a031681565b6118f23361216e565b33600160a060020a031660009081526000805160206125318339815191526020526040902054611928903463ffffffff6120a416565b33600160a060020a038116600090815260008051602061253183398151915260205260408082208490557fdcbc1c05240f31ff3ad067ef1ee35ce4997762752e3a095284754544f4c709d793919291349151600160a060020a0394851681529290931660208301526040808301919091526060820192909252608001905180910390a1565b60008060006119bb87611831565b156119c95760009250611abc565b60008581526003602052604081205490925015156119f4576119f1828963ffffffff6120a416565b91505b8315611a2057611a196127106108e0611a0c8a611c09565b899063ffffffff6120d116565b9050611a35565b611a326127106108e0611a0c8a610dd1565b90505b7fbd0faddf87043dd749c1b9d4dca8a12589b8cb5e2106832111ce23f219b14367868260405191825260208201526040908101905180910390a17fbd0faddf87043dd749c1b9d4dca8a12589b8cb5e2106832111ce23f219b14367828960405191825260208201526040908101905180910390a1611ab9828263ffffffff6120a416565b92505b505095945050505050565b600a54600160a060020a031681565b740f000000000000000000000000000000000000000081169163ffffffff65ffffffffffff8316819004921690565b6000818152600360205260408120548190611b2790879063ffffffff61222b16565b9050808510158015611b3c575060a060020a84145b15611b8057600083815260036020526040902054611b799087906108e0908a90611b6d90849063ffffffff61222b16565b9063ffffffff6120d116565b9150611be2565b808510158015611b8e575083155b15611bb357600083815260036020526040902054611b7990879063ffffffff61222b16565b8085108015611bc5575060a060020a84145b15611bde57611b79866108e0878a63ffffffff6120d116565b8491505b5095945050505050565b600160209081526000928352604080842090915290825290205481565b7bffffffffffffffffffffffffffffffffffffffffffffffffffffffff16600079ffffffffffffffffffffffffffffffffffffffffffffffffffff82610e0a565b60003085858585604051600160a060020a03959095166c01000000000000000000000000028552601485019390935260348401919091526054830152607482015260940160405180910390209050949350505050565b600160a060020a03918216600090815260016020908152604080832093909416825291909152205490565b600160a060020a031673ffffffffffffffffffffffffffffffffffffffff19909216171790565b60005433600160a060020a03908116911614611d0d57600080fd5b600160a060020a0381161515611d2257600080fd5b600054600160a060020a0380831691167f8be0079c531659141344cd1fd0a4f28419497f9722a3daafe3b4186f6b6457e060405160405180910390a36000805473ffffffffffffffffffffffffffffffffffffffff1916600160a060020a0392909216919091179055565b600160a060020a03331660009081526002602052604090205443118015611dcb5750600160a060020a03331660009081526002602052604090205415155b1515611dd657600080fd5b600160a060020a038083166000908152600160209081526040808320339094168352929052205481901015611e0a57600080fd5b600160a060020a0380831660009081526001602090815260408083203390941683529290522054611e41908263ffffffff61222b16565b600160a060020a03808416600081815260016020908152604080832033909516835293905291909120919091551515611eaa57600160a060020a03331681156108fc0282604051600060405180830381858888f193505050501515611ea557600080fd5b611f2d565b81600160a060020a031663a9059cbb338360006040516020015260405160e060020a63ffffffff8516028152600160a060020a0390921660048301526024820152604401602060405180830381600087803b1515611f0757600080fd5b6102c65a03f11515611f1857600080fd5b505050604051805190501515611f2d57600080fd5b600160a060020a03808316600090815260016020908152604080832033948516845290915290819020547ff341246adaac6f497bc2a656f546ab9e182111d630394f0c57c710a59a2cb5679285929091859151600160a060020a0394851681529290931660208301526040808301919091526060820192909252608001905180910390a15050565b60036020526000908152604090205481565b600030848484604051600160a060020a03949094166c01000000000000000000000000028452601484019290925260348301526054820152607401604051809103902090509392505050565b600b5461202790439063ffffffff6120a416565b33600160a060020a038116600090815260026020526040908190208390557f625fed9875dada8643f2418b838ae0bc78d9a148a18eee4ee1979ff0f3f5d427929051600160a060020a03909216825260208201526040908101905180910390a1565b600660205260009081526040902054600160a060020a031681565b6000828201838110156120b357fe5b9392505050565b60008082848115156120c857fe5b04949350505050565b60008282028315806120ed57508284828115156120ea57fe5b04145b15156120b357fe5b60008060008060008061210b8f8f8d8c8b611b05565b93506121188f8f86611801565b92506121288d8d868a60006119ad565b91506121368d8d868a61088b565b90506121478c8a868686868e61223d565b612154898c8c8787611655565b809650819750505050505050995099975050505050505050565b600160a060020a0381166000908152600860205260409020541561219157612228565b600c8054600101808255600160a060020a038316600081815260086020908152604080832085905593825260079052829020805473ffffffffffffffffffffffffffffffffffffffff1916909117905590547fd75b88a9203b17f9356ca063241beac16a25d5a46f485b378c2c229e864bdd4d9183919051600160a060020a03909216825260208201526040908101905180910390a15b50565b60008282111561223757fe5b50900390565b6000806007600061224d8b610fe8565b8152602080820192909252604090810160009081205486825260069093522054600160a060020a03918216935016905060a060020a88141561234c57600160a060020a038216600090815260008051602061253183398151915260205260409020546122d19086906122c5908a63ffffffff61222b16565b9063ffffffff61222b16565b600160a060020a038381166000818152600080516020612531833981519152602090815260408083209590955592851681526001835283812091815291522054612321908763ffffffff6120a416565b600160a060020a038083166000908152600160209081526040808320938716835292905220556123ff565b600160a060020a038216600090815260008051602061253183398151915260205260409020546123889086906122c5908a63ffffffff6120a416565b600160a060020a0383811660008181526000805160206125318339815191526020908152604080832095909555928516815260018352838120918152915220546123d8908763ffffffff61222b16565b600160a060020a038083166000908152600160209081526040808320938716835292905220555b83156124c457600a54600160a060020a0390811660009081526001602090815260408083209386168352929052205461243e908563ffffffff61222b16565b600a8054600160a060020a03908116600090815260016020818152604080842089861685528252808420969096559354831682528352838120600954909216815291522054612493908563ffffffff6120a416565b600a54600160a060020a03908116600090815260016020908152604080832060095490941683529290522055612525565b600954600160a060020a0316600090815260008051602061253183398151915260205260409020546124fc908663ffffffff6120a416565b600954600160a060020a0316600090815260008051602061253183398151915260205260409020555b5050505050505050505600a6eef7e35abe7026729641147f7915573c7e97b47efa546f5f6e3230263bcb49a165627a7a723058205cd120bd0d251b85a04d5bcd8426a12b1d09dce9c033a6a0c8744b28fc91526c0029",
  "source": "pragma solidity ^0.4.17;\n\nimport \"./lib/SafeMath.sol\";\nimport \"./lib/Ownable.sol\";\nimport \"./JoysoDataDecoder.sol\";\nimport {StandardToken as Token} from \"./lib/StandardToken.sol\";\n\n/** @title Joyso contract\n  *\n  */\ncontract Joyso is Ownable, JoysoDataDecoder {\n    using SafeMath for uint256;\n\n    uint256 constant PAY_BY_TOKEN = 0x0000000000000000000000020000000000000000000000000000000000000000;\n    uint256 constant PAY_BY_JOY = 0x0000000000000000000000010000000000000000000000000000000000000000;\n    uint256 constant PAY_BY_ETHER = 0x0000000000000000000000000000000000000000000000000000000000000000;\n    uint256 constant ORDER_ISBUY = 0x0000000000000000000000010000000000000000000000000000000000000000;\n\n    mapping (address => mapping (address => uint256)) public balances;\n    mapping (address => uint256) public userLock;\n    mapping (bytes32 => uint256) public orderFills;\n    mapping (bytes32 => bool) public usedHash;\n    mapping (address => bool) public isAdmin;\n    mapping (uint256 => address) public tokenId2Address;\n    mapping (uint256 => address) public userId2Address;\n    mapping (address => uint256) public address2Id;\n\n    address public joysoWallet;\n    address public joyToken;\n    uint256 public lockPeriod = 100000;\n    uint256 public userCount;\n\n    struct Order {\n        uint256 amountSell;\n        uint256 amountBuy;\n        uint256 gasFee;\n        uint256 data;\n        uint256 tokenId;\n        uint256 isBuy;\n        bytes32 orderHash;\n    }\n\n    modifier onlyAdmin {\n        require(msg.sender == owner || isAdmin[msg.sender]);\n        _;\n    }\n\n    //events\n    event Deposit (address token, address user, uint256 amount, uint256 balance);\n    event Withdraw(address token, address user, uint256 amount, uint256 balance);\n    event NewUser (address user, uint256 id);\n    event Lock (address user, uint256 timeLock);\n\n    function Joyso (address _joysoWallet) {\n        joysoWallet = _joysoWallet;\n        addUser(_joysoWallet);\n        joyToken = 0x12345;\n        address2Id[joyToken] = 1;\n        address2Id[0] = 0; // ether address is Id 0\n        tokenId2Address[0] = 0;\n        tokenId2Address[1] = joyToken;\n    }\n\n    /** Deposit allow user to store the funds in Joyso contract.\n      * It is more convenient to transfer funds or to trade in contract.\n      * Besure to approve the contract to move your erc20 token if depositToken.\n      */\n    function depositToken (address token, uint256 amount) public {\n        require(address2Id[token] != 0);\n        addUser(msg.sender);\n        require(Token(token).transferFrom(msg.sender, this, amount));\n        balances[token][msg.sender] = balances[token][msg.sender].add(amount);\n        Deposit(token, msg.sender, amount, balances[token][msg.sender]);\n    }\n\n    function depositEther () public payable {\n        addUser(msg.sender);\n        balances[0][msg.sender] = balances[0][msg.sender].add(msg.value);\n        Deposit(0, msg.sender, msg.value, balances[0][msg.sender]);\n    }\n\n    function withdraw (address token, uint256 amount) public {\n        require(block.number > userLock[msg.sender] && userLock[msg.sender] != 0);\n        require(balances[token][msg.sender] >= amount);\n        balances[token][msg.sender] = balances[token][msg.sender].sub(amount);\n        if(token == 0) {\n            msg.sender.transfer(amount);\n        } else {\n            require(Token(token).transfer(msg.sender, amount));\n        }\n        Withdraw(token, msg.sender, amount, balances[token][msg.sender]);\n    }\n\n    function lockMe () public {\n        userLock[msg.sender] = block.number.add(lockPeriod);\n        Lock (msg.sender, userLock[msg.sender]);\n    }\n\n    function unlockme () public {\n        userLock[msg.sender] = 0;\n        Lock (msg.sender, userLock[msg.sender]);\n    }\n\n    // -------------------------------------------- helper functions\n    function getBalance (address token, address account) public view returns (uint256) {\n        return balances[token][account];\n    }\n\n    function getWithdrawDataHash (uint256 amount, uint256 gas, uint256 data) public view returns (bytes32) {\n        return keccak256(this, amount, gas, data);\n    }\n\n    function getOrderDataHash (uint256 amountSell, uint256 amountBuy, uint256 gasFee, uint256 data) public view returns (bytes32) {\n        return keccak256(this, amountSell, amountBuy, gasFee, data);\n    }\n\n    function verify (bytes32 hash, address sender, uint8 v, bytes32 r, bytes32 s) public pure returns (bool) {\n        //return ecrecover(hash, v, r, s) == sender;\n         return true;\n    }\n\n\n    // -------------------------------------------- only admin \n    function registerToken (address tokenAddress, uint256 index) onlyAdmin {\n        require (index > 1);\n        require (address2Id[tokenAddress] == 0);\n        address2Id[tokenAddress] = index;\n        tokenId2Address[index] = tokenAddress;\n    }\n\n    function addToAdmin (address admin, bool isAdd) onlyAdmin public {\n        isAdmin[admin] = isAdd;\n    }\n\n    function withdrawByAdmin (uint256[] inputs) onlyAdmin public {\n        /**\n            inputs[0] (uint256) amount;\n            inputs[1] (uint256) gasFee;\n            inputs[2] (uint256) dataV\n            inputs[3] (bytes32) r\n            inputs[4] (bytes32) s\n            -----------------------------------\n            dataV[0 .. 7] (uint256) nonce --> doesnt used when withdraw\n            dataV[23..23] (uint256) paymentMethod --> 0: ether, 1: JOY, 2: token\n            dataV[24..24] (uint256) v --> should be uint8 when used\n            dataV[52..55] (uint256) tokenId\n            dataV[56..63] (uint256) userId\n            -----------------------------------\n            user withdraw singature (uint256)\n            (this.address, amount, gasFee, data)\n            -----------------------------------\n            data [0 .. 7] (uint256) nonce --> does not used when withdraw\n            data [23..23] (uint256) paymentMethod\n            data [24..63] (address) tokenAddress\n         */\n        uint256 v_256 = retrieveV(inputs[2]);\n        var (paymentMethod, tokenId, userId) = decodeWithdrawData(inputs[2]);\n        address token = tokenId2Address[tokenId];\n        address user = userId2Address[userId];\n        uint256 data = genUserSignedWithdrawData(inputs[2], token);\n\n        bytes32 hash = getWithdrawDataHash(inputs[0], inputs[1], data);\n        require (!usedHash[hash]);\n        require (verify(hash, user, (uint8)(v_256), (bytes32)(inputs[3]), (bytes32)(inputs[4])));\n\n        address gasToken = 0;\n        if (paymentMethod == PAY_BY_JOY) { // pay fee by JOY\n            gasToken = joyToken;\n        } else if (paymentMethod == PAY_BY_TOKEN) { // pay fee by tx token\n            gasToken = token;\n        }\n\n        if (gasToken == token) { // pay by ether or token\n            require (balances[token][user] >= inputs[0].add(inputs[1]));\n            balances[token][user] = balances[token][user].sub(inputs[0].add(inputs[1]));\n        } else {\n            require (balances[token][user] >= inputs[0]);\n            require (balances[gasToken][user] >= inputs[1]);\n            balances[token][user] = balances[token][user].sub(inputs[0]);\n            balances[gasToken][user] = balances[gasToken][user].sub(inputs[1]);\n        }\n        balances[gasToken][joysoWallet] = balances[gasToken][joysoWallet].add(inputs[1]);\n\n        usedHash[hash] = true;\n\n        if (token == 0) {\n            msg.sender.transfer(inputs[0]);\n        } else {\n            require(Token(token).transfer(msg.sender, inputs[0]));\n        }\n        Withdraw(token, user, inputs[0], balances[token][user]);\n    }\n\n    event Log(uint256 tosb, uint256 tobb);\n    event Log(address user);\n\n    function matchByAdmin (uint256[] inputs) onlyAdmin public {\n        /**\n            inputs[6*i .. (6*i+5)] order i, order1 is taker, other orders are maker  \n            inputs[6i] (uint256) amountSell\n            inputs[6i+1] (uint256) amountBuy\n            inputs[6i+2] (uint256) gasFee\n            inputs[6i+3] (uint256) dataV\n            inputs[6i+4] (bytes32) r\n            inputs[6i+5] (bytes32) s\n            -----------------------------------\n            dataV[0 .. 7] (uint256) nonce \n            dataV[8 ..11] (uint256) takerFee\n            dataV[12..15] (uint256) makerFee\n            dataV[16..22] (uint256) joyPrice --> 0: pay ether, others: pay joy Token\n            dataV[23..23] (uint256) isBuy --> always 0, should be modified in contract\n            dataV[24..24] (uint256) v --> should be uint8 when used, 0: 27, 1: 28\n            dataV[49..51] (uint256) tokenSellId\n            dataV[52..55] (uint256) tokenBuyId\n            dataV[56..63] (uint256) userId\n            -----------------------------------\n            user order singature (uint256)\n            (this.address, amountSell, amountBuy, gasFee, data)\n            -----------------------------------\n            data [0 .. 7] (uint256) nonce \n            data [8 ..11] (uint256) takerFee\n            data [12..15] (uint256) makerFee\n            data [16..22] (uint256) joyPrice --> 0: pay ether, others: pay joy Token\n            data [23..23] (uint256) isBuy --> always 0, should be modified in contract\n            data [24..63] (address) tokenAddress\n         */\n        var (tokenId, isBuy) = decodeOrderTokenIdAndIsBuy(inputs[3]);\n        bytes32 orderHash = getOrderDataHash(inputs[0], inputs[1], inputs[2], genUserSignedOrderData(inputs[3], isBuy, tokenId2Address[tokenId]));\n        // TODO: should check the nonce here\n        require (orderFills[orderHash] == 0);\n        require (verify(orderHash, userId2Address[decodeOrderUserId(inputs[3])], (uint8)(retrieveV(inputs[3])), (bytes32)(inputs[4]), (bytes32)(inputs[5])));\n\n        isBuy = isBuy ^ ORDER_ISBUY;\n        uint256 tosb = inputs[0]; // taker order sell balance\n        uint256 tobb = 0;  // taker order buy balance\n        for (uint256 i = 6; i < inputs.length; i+=6) {\n            // TODO: we should guerentee the maker's price is better than taker's price\n            // TODO: should we guerentee the maker's price is better than the next maker's price?\n            if (tosb <= 0) \n                break;\n            bytes32 makerOrderHash = getOrderDataHash(inputs[i], inputs[i+1], inputs[i+2], genUserSignedOrderData(inputs[i+3], isBuy, tokenId2Address[tokenId]));\n            require(verify(makerOrderHash, userId2Address[decodeOrderUserId(inputs[i+3])], (uint8)(retrieveV(inputs[i+3])), (bytes32)(inputs[i+4]), (bytes32)(inputs[i+5])));\n            (tosb, tobb) = internalTrade(inputs[i], inputs[i+1], inputs[i+2], inputs[i+3], tosb, tobb, isBuy, tokenId, makerOrderHash);\n        }\n\n        updateTakerBalance(inputs[0], inputs[1], inputs[2], inputs[3], tosb, tobb, isBuy, tokenId, orderHash);\n    }\n\n    // -------------------------------------------- internal/private function\n    function addUser (address _address) internal {\n        if (address2Id[_address] != 0) {\n            return;\n        }\n        userCount += 1;\n        address2Id[_address] = userCount;\n        userId2Address[userCount] = _address;\n        NewUser(_address, userCount);\n    }\n\n    function updateTakerBalance (uint256 amountSell, uint256 amountBuy, uint256 gasFee, uint256 data, uint256 tosb, uint256 tobb, uint256 isBuy, uint256 tokenId, bytes32 orderHash) {\n        uint256 etherGet;\n        uint256 tokenGet;\n        if (isBuy == ORDER_ISBUY) { // (to maker) buy token, sell ether --> (to taker) tosb unit is token, tobb unit is ether\n            etherGet = tobb;\n            tokenGet = amountSell.sub(tosb);\n        } else {\n            etherGet = amountSell.sub(tosb);\n            tokenGet = tobb;\n        }\n        uint256 etherFee = calculateEtherFee(gasFee, data, etherGet, orderHash, true);\n        uint256 joyFee = calculateJoyFee(gasFee, data, etherGet, orderHash);\n        updateUserBalance(data, isBuy ^ ORDER_ISBUY, etherGet, tokenGet, etherFee, joyFee, tokenId);\n        orderFills[orderHash] = orderFills[orderHash].add(tobb);\n    }\n\n    function internalTrade (uint256 amountSell, uint256 amountBuy, uint256 gasFee, uint256 data, uint256 _tosb, uint256 _tobb, uint256 isBuy, uint256 tokenId, bytes32 orderHash) \n        internal returns (uint256 tosb, uint256 tobb) \n    {\n        uint256 etherGet = calculateEtherGet(amountSell, amountBuy, _tosb, isBuy, orderHash);\n        uint256 tokenGet = calculateTokenGet(amountSell, amountBuy, etherGet);\n        uint256 etherFee = calculateEtherFee(gasFee, data, etherGet, orderHash, false);\n        uint256 joyFee = calculateJoyFee(gasFee, data, etherGet, orderHash);\n        updateUserBalance(data, isBuy, etherGet, tokenGet, etherFee, joyFee, tokenId);\n        (tosb, tobb) = updateTakerOrder(isBuy, _tosb, _tobb, etherGet, tokenGet);\n    }\n\n    function updateTakerOrder(uint256 isBuy, uint256 _tosb, uint256 _tobb, uint256 etherGet, uint256 tokenGet) returns (uint256 tosb, uint256 tobb) {\n        if (isBuy == ORDER_ISBUY) { // (to maker) buy token, sell ether --> (to taker) _tosb unit is token, _tobb unit is ether\n            tosb = _tosb.sub(tokenGet);\n            tobb = _tobb.add(etherGet);\n        } else {\n            tosb = _tosb.sub(etherGet);\n            tobb = _tobb.add(tokenGet);\n        }\n    }\n\n    function updateUserBalance(uint256 data, uint256 isBuy, uint256 etherGet, uint256 tokenGet, uint256 etherFee, uint256 joyFee, uint256 tokenId) internal {\n        address user = userId2Address[decodeOrderUserId(data)];\n        address token = tokenId2Address[tokenId];\n        if (isBuy == ORDER_ISBUY) { // buy token, sell ether\n            balances[0][user] = balances[0][user].sub(etherGet).sub(etherFee);\n            balances[token][user] = balances[token][user].add(tokenGet);\n        } else {\n            balances[0][user] = balances[0][user].add(etherGet).sub(etherFee);\n            balances[token][user] = balances[token][user].sub(tokenGet);\n        }\n\n        if(joyFee != 0) {\n            balances[joyToken][user] = balances[joyToken][user].sub(joyFee);\n            balances[joyToken][joysoWallet] = balances[joyToken][joysoWallet].add(joyFee);\n        } else { \n            balances[0][joysoWallet] = balances[0][joysoWallet].add(etherFee);\n        }\n    }\n\n    function calculateJoyFee (uint256 gasFee, uint256 data, uint256 etherGet, bytes32 orderHash) returns (uint256) {\n        uint256 joyPrice = decodeOrderJoyPrice(data);\n        if (joyPrice != 0) {\n            uint256 joyFee = 0;\n            if (orderFills[orderHash] == 0) {\n                joyFee.add(gasFee);\n            }\n\n            uint256 txFee = etherGet.mul(decodeOrderMakerFee(data).div(10000));\n            uint256 toJoy = txFee.mul(10).div(joyPrice);\n            return joyFee.add(toJoy);\n        } else {\n            return 0;\n        }\n    }\n\n    function calculateEtherFee (uint256 gasFee, uint256 data, uint256 etherGet, bytes32 orderHash, bool isTaker) view returns (uint256) {\n        if (decodeOrderJoyPrice(data) != 0) {\n            return 0;\n        } else {\n            uint256 etherFee = 0;\n            if (orderFills[orderHash] == 0) {\n                etherFee = etherFee.add(gasFee);\n            }\n\n            uint256 txFee;\n            if(isTaker){\n                txFee =  etherGet.mul(decodeOrderTakerFee(data)).div(10000);\n            } else {\n                txFee = etherGet.mul(decodeOrderMakerFee(data)).div(10000);\n            }\n            Log(etherGet, txFee);\n            Log(etherFee, gasFee);\n            return etherFee.add(txFee);\n        }\n    }\n\n    function calculateTokenGet (uint256 amountSell, uint256 amountBuy, uint256 etherGet) returns (uint256) {\n        return etherGet.mul(amountBuy).div(amountSell);\n    }\n\n    function calculateEtherGet (uint256 amountSell, uint256 amountBuy, uint256 _tosb, uint256 isBuy, bytes32 orderHash) view returns (uint256) {\n        uint256 tradeAmount = amountBuy.sub(orderFills[orderHash]);\n        if (_tosb >= tradeAmount && isBuy == ORDER_ISBUY) { // buy token, the unit of amountBuy is token, turn to ether\n            return amountBuy.sub(orderFills[orderHash]).mul(amountSell).div(amountBuy);\n        } else if (_tosb >= tradeAmount && isBuy == 0) {    // sell token, the unit of amountBuy is ether \n            return amountBuy.sub(orderFills[orderHash]);\n        } else if (_tosb < tradeAmount && isBuy == ORDER_ISBUY) { // buy token, the unit of amountBuy is token, turn to ether\n            return _tosb.mul(amountSell).div(amountBuy);\n        } else {\n            return _tosb;\n        }\n    }\n}",
  "sourcePath": "/Users/will/Work/ConsensusInnovation/joyso-contracts/contracts/Joyso.sol",
  "schemaVersion": "1.0.0",
  "updatedAt": "2017-12-22T09:22:54.007Z"
}