{
  "contractName": "Joyso",
  "abi": [
    {
      "constant": false,
      "inputs": [
        {
          "name": "maker",
          "type": "address[]"
        },
        {
          "name": "tokenSell",
          "type": "address"
        },
        {
          "name": "tokenBuy",
          "type": "address"
        },
        {
          "name": "amountSell",
          "type": "uint256[]"
        },
        {
          "name": "amountBuy",
          "type": "uint256[]"
        },
        {
          "name": "expires",
          "type": "uint256[]"
        },
        {
          "name": "nonce",
          "type": "uint256[]"
        },
        {
          "name": "v",
          "type": "uint8[]"
        },
        {
          "name": "r",
          "type": "bytes32[]"
        },
        {
          "name": "s",
          "type": "bytes32[]"
        },
        {
          "name": "amountTake",
          "type": "uint256"
        }
      ],
      "name": "multiTake",
      "outputs": [],
      "payable": false,
      "stateMutability": "nonpayable",
      "type": "function"
    },
    {
      "constant": false,
      "inputs": [
        {
          "name": "token",
          "type": "address"
        },
        {
          "name": "amount",
          "type": "uint256"
        }
      ],
      "name": "depositToken",
      "outputs": [],
      "payable": false,
      "stateMutability": "nonpayable",
      "type": "function"
    },
    {
      "constant": false,
      "inputs": [
        {
          "name": "amount",
          "type": "uint256"
        }
      ],
      "name": "withdrawEther",
      "outputs": [],
      "payable": false,
      "stateMutability": "nonpayable",
      "type": "function"
    },
    {
      "constant": false,
      "inputs": [
        {
          "name": "maker",
          "type": "address"
        },
        {
          "name": "tokenSell",
          "type": "address"
        },
        {
          "name": "tokenBuy",
          "type": "address"
        },
        {
          "name": "amountSell",
          "type": "uint256"
        },
        {
          "name": "amountBuy",
          "type": "uint256"
        },
        {
          "name": "expires",
          "type": "uint256"
        },
        {
          "name": "nonce",
          "type": "uint256"
        },
        {
          "name": "v",
          "type": "uint8"
        },
        {
          "name": "r",
          "type": "bytes32"
        },
        {
          "name": "s",
          "type": "bytes32"
        },
        {
          "name": "amountTake",
          "type": "uint256"
        }
      ],
      "name": "take",
      "outputs": [],
      "payable": false,
      "stateMutability": "nonpayable",
      "type": "function"
    },
    {
      "constant": false,
      "inputs": [
        {
          "name": "orderID",
          "type": "bytes32"
        },
        {
          "name": "amountTake",
          "type": "uint256"
        }
      ],
      "name": "takeByID",
      "outputs": [],
      "payable": false,
      "stateMutability": "nonpayable",
      "type": "function"
    },
    {
      "constant": true,
      "inputs": [],
      "name": "owner",
      "outputs": [
        {
          "name": "",
          "type": "address"
        }
      ],
      "payable": false,
      "stateMutability": "view",
      "type": "function"
    },
    {
      "constant": true,
      "inputs": [
        {
          "name": "hash",
          "type": "bytes32"
        },
        {
          "name": "sender",
          "type": "address"
        },
        {
          "name": "v",
          "type": "uint8"
        },
        {
          "name": "r",
          "type": "bytes32"
        },
        {
          "name": "s",
          "type": "bytes32"
        }
      ],
      "name": "verify",
      "outputs": [
        {
          "name": "",
          "type": "bool"
        }
      ],
      "payable": false,
      "stateMutability": "pure",
      "type": "function"
    },
    {
      "constant": false,
      "inputs": [],
      "name": "depositEther",
      "outputs": [],
      "payable": true,
      "stateMutability": "payable",
      "type": "function"
    },
    {
      "constant": false,
      "inputs": [
        {
          "name": "orderID",
          "type": "bytes32"
        }
      ],
      "name": "updateOrder",
      "outputs": [],
      "payable": false,
      "stateMutability": "nonpayable",
      "type": "function"
    },
    {
      "constant": false,
      "inputs": [
        {
          "name": "token",
          "type": "address"
        },
        {
          "name": "amount",
          "type": "uint256"
        }
      ],
      "name": "withdrawToken",
      "outputs": [],
      "payable": false,
      "stateMutability": "nonpayable",
      "type": "function"
    },
    {
      "constant": true,
      "inputs": [
        {
          "name": "",
          "type": "bytes32"
        }
      ],
      "name": "orderBook",
      "outputs": [
        {
          "name": "orderID",
          "type": "bytes32"
        },
        {
          "name": "owner",
          "type": "address"
        },
        {
          "name": "tokenSell",
          "type": "address"
        },
        {
          "name": "tokenBuy",
          "type": "address"
        },
        {
          "name": "amountSell",
          "type": "uint256"
        },
        {
          "name": "amountBuy",
          "type": "uint256"
        },
        {
          "name": "expires",
          "type": "uint256"
        },
        {
          "name": "nonce",
          "type": "uint256"
        },
        {
          "name": "balance",
          "type": "uint256"
        },
        {
          "name": "status",
          "type": "uint256"
        }
      ],
      "payable": false,
      "stateMutability": "view",
      "type": "function"
    },
    {
      "constant": false,
      "inputs": [
        {
          "name": "token",
          "type": "address"
        },
        {
          "name": "receiver",
          "type": "address"
        },
        {
          "name": "amount",
          "type": "uint256"
        }
      ],
      "name": "transfer",
      "outputs": [],
      "payable": false,
      "stateMutability": "nonpayable",
      "type": "function"
    },
    {
      "constant": true,
      "inputs": [
        {
          "name": "",
          "type": "address"
        },
        {
          "name": "",
          "type": "address"
        }
      ],
      "name": "balances",
      "outputs": [
        {
          "name": "",
          "type": "uint256"
        }
      ],
      "payable": false,
      "stateMutability": "view",
      "type": "function"
    },
    {
      "constant": true,
      "inputs": [
        {
          "name": "",
          "type": "address"
        },
        {
          "name": "",
          "type": "uint256"
        }
      ],
      "name": "dependency",
      "outputs": [
        {
          "name": "",
          "type": "bool"
        }
      ],
      "payable": false,
      "stateMutability": "view",
      "type": "function"
    },
    {
      "constant": true,
      "inputs": [
        {
          "name": "token",
          "type": "address"
        },
        {
          "name": "account",
          "type": "address"
        }
      ],
      "name": "getBalance",
      "outputs": [
        {
          "name": "",
          "type": "uint256"
        }
      ],
      "payable": false,
      "stateMutability": "view",
      "type": "function"
    },
    {
      "constant": true,
      "inputs": [
        {
          "name": "maker",
          "type": "address"
        },
        {
          "name": "tokenSell",
          "type": "address"
        },
        {
          "name": "tokenBuy",
          "type": "address"
        },
        {
          "name": "amountSell",
          "type": "uint256"
        },
        {
          "name": "amountBuy",
          "type": "uint256"
        },
        {
          "name": "expires",
          "type": "uint256"
        },
        {
          "name": "nonce",
          "type": "uint256"
        }
      ],
      "name": "queryID",
      "outputs": [
        {
          "name": "hash",
          "type": "bytes32"
        },
        {
          "name": "status",
          "type": "uint256"
        }
      ],
      "payable": false,
      "stateMutability": "view",
      "type": "function"
    },
    {
      "constant": false,
      "inputs": [
        {
          "name": "tokenSell",
          "type": "address"
        },
        {
          "name": "tokenBuy",
          "type": "address"
        },
        {
          "name": "amountSell",
          "type": "uint256"
        },
        {
          "name": "amountBuy",
          "type": "uint256"
        },
        {
          "name": "expires",
          "type": "uint256"
        },
        {
          "name": "nonce",
          "type": "uint256"
        }
      ],
      "name": "cancel",
      "outputs": [],
      "payable": false,
      "stateMutability": "nonpayable",
      "type": "function"
    },
    {
      "constant": false,
      "inputs": [
        {
          "name": "newOwner",
          "type": "address"
        }
      ],
      "name": "transferOwnership",
      "outputs": [],
      "payable": false,
      "stateMutability": "nonpayable",
      "type": "function"
    },
    {
      "constant": false,
      "inputs": [
        {
          "name": "tokenSell",
          "type": "address"
        },
        {
          "name": "tokenBuy",
          "type": "address"
        },
        {
          "name": "amountSell",
          "type": "uint256"
        },
        {
          "name": "amountBuy",
          "type": "uint256"
        },
        {
          "name": "expires",
          "type": "uint256"
        },
        {
          "name": "nonce",
          "type": "uint256"
        }
      ],
      "name": "make",
      "outputs": [],
      "payable": false,
      "stateMutability": "nonpayable",
      "type": "function"
    },
    {
      "anonymous": false,
      "inputs": [
        {
          "indexed": false,
          "name": "token",
          "type": "address"
        },
        {
          "indexed": false,
          "name": "user",
          "type": "address"
        },
        {
          "indexed": false,
          "name": "amount",
          "type": "uint256"
        },
        {
          "indexed": false,
          "name": "balance",
          "type": "uint256"
        }
      ],
      "name": "Deposit",
      "type": "event"
    },
    {
      "anonymous": false,
      "inputs": [
        {
          "indexed": false,
          "name": "token",
          "type": "address"
        },
        {
          "indexed": false,
          "name": "user",
          "type": "address"
        },
        {
          "indexed": false,
          "name": "amount",
          "type": "uint256"
        },
        {
          "indexed": false,
          "name": "balance",
          "type": "uint256"
        }
      ],
      "name": "Withdraw",
      "type": "event"
    },
    {
      "anonymous": false,
      "inputs": [
        {
          "indexed": false,
          "name": "token",
          "type": "address"
        },
        {
          "indexed": false,
          "name": "sender",
          "type": "address"
        },
        {
          "indexed": false,
          "name": "amount",
          "type": "uint256"
        },
        {
          "indexed": false,
          "name": "senderBalance",
          "type": "uint256"
        },
        {
          "indexed": false,
          "name": "reveiver",
          "type": "address"
        },
        {
          "indexed": false,
          "name": "receriverBalance",
          "type": "uint256"
        }
      ],
      "name": "Transfer",
      "type": "event"
    },
    {
      "anonymous": false,
      "inputs": [
        {
          "indexed": false,
          "name": "maker",
          "type": "address"
        },
        {
          "indexed": false,
          "name": "tokenSell",
          "type": "address"
        },
        {
          "indexed": false,
          "name": "tokenBuy",
          "type": "address"
        },
        {
          "indexed": false,
          "name": "amountSell",
          "type": "uint256"
        },
        {
          "indexed": false,
          "name": "amountBuy",
          "type": "uint256"
        }
      ],
      "name": "TradeScuessed",
      "type": "event"
    },
    {
      "anonymous": false,
      "inputs": [
        {
          "indexed": false,
          "name": "orderID",
          "type": "bytes32"
        },
        {
          "indexed": false,
          "name": "maker",
          "type": "address"
        },
        {
          "indexed": false,
          "name": "tokenSell",
          "type": "address"
        },
        {
          "indexed": false,
          "name": "tokenBuy",
          "type": "address"
        },
        {
          "indexed": false,
          "name": "amountSell",
          "type": "uint256"
        },
        {
          "indexed": false,
          "name": "amountBuy",
          "type": "uint256"
        },
        {
          "indexed": false,
          "name": "expires",
          "type": "uint256"
        },
        {
          "indexed": false,
          "name": "nonce",
          "type": "uint256"
        }
      ],
      "name": "NewOrder",
      "type": "event"
    },
    {
      "anonymous": false,
      "inputs": [
        {
          "indexed": false,
          "name": "orderID",
          "type": "bytes32"
        }
      ],
      "name": "Cancel",
      "type": "event"
    },
    {
      "anonymous": false,
      "inputs": [
        {
          "indexed": false,
          "name": "index",
          "type": "uint8"
        },
        {
          "indexed": false,
          "name": "maker",
          "type": "address"
        },
        {
          "indexed": false,
          "name": "tokenSell",
          "type": "address"
        },
        {
          "indexed": false,
          "name": "tokenBuy",
          "type": "address"
        },
        {
          "indexed": false,
          "name": "amountSell",
          "type": "uint256"
        },
        {
          "indexed": false,
          "name": "amountBuy",
          "type": "uint256"
        },
        {
          "indexed": false,
          "name": "expires",
          "type": "uint256"
        },
        {
          "indexed": false,
          "name": "nonce",
          "type": "uint256"
        }
      ],
      "name": "Fail",
      "type": "event"
    },
    {
      "anonymous": false,
      "inputs": [
        {
          "indexed": true,
          "name": "previousOwner",
          "type": "address"
        },
        {
          "indexed": true,
          "name": "newOwner",
          "type": "address"
        }
      ],
      "name": "OwnershipTransferred",
      "type": "event"
    }
  ],
  "bytecode": "0x606060405260008054600160a060020a033316600160a060020a0319909116179055612332806100306000396000f300606060405236156100eb5763ffffffff60e060020a60003504166312c49d0481146100f0578063338b5dea1461031b5780633bed33ce1461033d57806377e0f146146103535780637b4abd7b1461039c5780638da5cb5b146103b557806392d4d9ac146103e457806398ea5fca146104265780639a54285a1461042e5780639e281a9814610444578063bd1bceca14610466578063beabacc8146104de578063c23f001f14610506578063c441d0861461053d578063d4fac45d1461055f578063da4e2f9c14610584578063e40c4bac146105d3578063f2fde38b14610604578063f4e733fe14610623575b600080fd5b34156100fb57600080fd5b61031960046024813581810190830135806020818102016040519081016040528093929190818152602001838360200280828437509496600160a060020a03873581169760208082013590921697509195506060820194506040918201358601808201945035925082918282029091019051908101604052809392919081815260200183836020028082843782019150505050505091908035906020019082018035906020019080806020026020016040519081016040528093929190818152602001838360200280828437820191505050505050919080359060200190820180359060200190808060200260200160405190810160405280939291908181526020018383602002808284378201915050505050509190803590602001908201803590602001908080602002602001604051908101604052809392919081815260200183836020028082843782019150505050505091908035906020019082018035906020019080806020026020016040519081016040528093929190818152602001838360200280828437820191505050505050919080359060200190820180359060200190808060200260200160405190810160405280939291908181526020018383602002808284378201915050505050509190803590602001908201803590602001908080602002602001604051908101604052809392919081815260200183836020028082843750949650509335935061065492505050565b005b341561032657600080fd5b610319600160a060020a03600435166024356107d4565b341561034857600080fd5b610319600435610925565b341561035e57600080fd5b610319600160a060020a036004358116906024358116906044351660643560843560a43560c43560ff60e43516610104356101243561014435610a60565b34156103a757600080fd5b610319600435602435610dc0565b34156103c057600080fd5b6103c8610f4e565b604051600160a060020a03909116815260200160405180910390f35b34156103ef57600080fd5b610412600435600160a060020a036024351660ff60443516606435608435610f5d565b604051901515815260200160405180910390f35b610319611093565b341561043957600080fd5b61031960043561114e565b341561044f57600080fd5b610319600160a060020a036004351660243561139c565b341561047157600080fd5b61047c600435611578565b604051998a52600160a060020a0398891660208b01529688166040808b0191909152959097166060890152608088019390935260a087019190915260c086015260e0850152610100840192909252610120830152610140909101905180910390f35b34156104e957600080fd5b610319600160a060020a03600435811690602435166044356115da565b341561051157600080fd5b61052b600160a060020a0360043581169060243516611729565b60405190815260200160405180910390f35b341561054857600080fd5b610412600160a060020a0360043516602435611746565b341561056a57600080fd5b61052b600160a060020a0360043581169060243516611766565b341561058f57600080fd5b6105bb600160a060020a036004358116906024358116906044351660643560843560a43560c435611791565b60405191825260208201526040908101905180910390f35b34156105de57600080fd5b610319600160a060020a036004358116906024351660443560643560843560a43561181c565b341561060f57600080fd5b610319600160a060020a0360043516611994565b341561062e57600080fd5b610319600160a060020a036004358116906024351660443560643560843560a435611a22565b600160a060020a03808a1660009081526001602090815260408083203390941683529290529081205481908390101561068c57600080fd5b8c519150818a511480156106a05750818951145b80156106ac5750818851145b80156106b85750818751145b80156106c45750818651145b80156106d05750818551145b80156106dc5750818451145b15156106e757600080fd5b5060005b818110156107c55760008311610700576107c5565b6107bb8d828151811061070f57fe5b906020019060200201518d8d8d858151811061072757fe5b906020019060200201518d868151811061073d57fe5b906020019060200201518d878151811061075357fe5b906020019060200201518d888151811061076957fe5b906020019060200201518d898151811061077f57fe5b906020019060200201518d8a8151811061079557fe5b906020019060200201518d8b815181106107ab57fe5b906020019060200201518d611c8d565b92506001016106eb565b50505050505050505050505050565b81600160a060020a03166323b872dd33308460006040516020015260405160e060020a63ffffffff8616028152600160a060020a0393841660048201529190921660248201526044810191909152606401602060405180830381600087803b151561083e57600080fd5b6102c65a03f1151561084f57600080fd5b50505060405180519050151561086457600080fd5b600160a060020a038083166000908152600160209081526040808320339094168352929052205461089b908263ffffffff611e5916565b600160a060020a038381166000908152600160209081526040808320339485168452909152908190208390557fdcbc1c05240f31ff3ad067ef1ee35ce4997762752e3a095284754544f4c709d79285929185919051600160a060020a0394851681529290931660208301526040808301919091526060820192909252608001905180910390a15050565b33600160a060020a031660009081526000805160206122e783398151915260205260409020548190101561095857600080fd5b33600160a060020a031660009081526000805160206122e7833981519152602052604090205461098e908263ffffffff611e6f16565b33600160a060020a031660008181526000805160206122e7833981519152602052604090819020929092559082905160006040518083038185876187965a03f19250505015156109dd57600080fd5b33600160a060020a03811660009081526000805160206122e78339815191526020526040808220547ff341246adaac6f497bc2a656f546ab9e182111d630394f0c57c710a59a2cb567939185919051600160a060020a0394851681529290931660208301526040808301919091526060820192909252608001905180910390a150565b600160a060020a03808a16600090815260016020908152604080832033909416835292905290812054819083901015610a9857600080fd5b43881015610aa557600080fd5b610ab48d8d8d8d8d8d8d611791565b90925090506002811415610b47577fa5450e333233096524f2b0f581bf48524169cfaf0a82c6ed1cb856f09018875b60018e8e8e8e8e8e8e60405160ff9098168852600160a060020a039687166020890152948616604080890191909152939095166060870152608086019190915260a085015260c084019290925260e0830152610100909101905180910390a16107c5565b8060011415610bec57610b598261114e565b8060021415610be7577fa5450e333233096524f2b0f581bf48524169cfaf0a82c6ed1cb856f09018875b60028e8e8e8e8e8e8e60405160ff9098168852600160a060020a039687166020890152948616604080890191909152939095166060870152608086019190915260a085015260c084019290925260e0830152610100909101905180910390a16107c5565b610d43565b610bf9828e888888610f5d565b1515610c0457600080fd5b61014060405190810160405280836000191681526020018e600160a060020a031681526020018d600160a060020a031681526020018c600160a060020a031681526020018b81526020018a81526020018981526020018881526020018a81526020016001815250600360008460001916600019168152602001908152602001600020600082015181556020820151600182018054600160a060020a031916600160a060020a03929092169190911790556040820151600282018054600160a060020a031916600160a060020a03929092169190911790556060820151600382018054600160a060020a031916600160a060020a03929092169190911790556080820151816004015560a0820151816005015560c0820151816006015560e082015181600701556101008201518160080155610120820151600990910155505b610d4d8284611e81565b92507f9ffba7d3904f6d318f8375abfba77f08b05805062451e800d5be980e199c88ec8d8d8d8d8d604051600160a060020a0395861681529385166020850152919093166040808401919091526060830193909352608082015260a001905180910390a150505050505050505050505050565b610dc8612280565b60008381526003602052604090819020906101409051908101604090815282548252600180840154600160a060020a039081166020850152600285015481169284019290925260038401549091166060830190815260048401546080840152600584015460a0840152600684015460c0840152600784015460e08401526008840154610100840152600990930154610120830152909250839160009051600160a060020a0390811682526020808301939093526040918201600090812033909216815292529020541015610e9b57600080fd5b438160c001511015610eac57600080fd5b806101200151600114610ebe57600080fd5b610ec78361114e565b610ed18383611e81565b91507f9ffba7d3904f6d318f8375abfba77f08b05805062451e800d5be980e199c88ec81602001518260400151836060015184608001518560a00151604051600160a060020a0395861681529385166020850152919093166040808401919091526060830193909352608082015260a001905180910390a1505050565b600054600160a060020a031681565b6000610f676122d4565b60006040805190810160405280601c81526020017f19457468657265756d205369676e6564204d6573736167653a0a333200000000815250915081886040518083805190602001908083835b60208310610fd25780518252601f199092019160209182019101610fb3565b6001836020036101000a038019825116818451161790925250505091909101928352505060200190506040518091039020905086600160a060020a03166001828888886040516000815260200160405260006040516020015260405193845260ff90921660208085019190915260408085019290925260608401929092526080909201915160208103908084039060008661646e5a03f1151561107457600080fd5b505060206040510351600160a060020a03161498975050505050505050565b33600160a060020a031660009081526000805160206122e783398151915260205260409020546110c9903463ffffffff611e5916565b33600160a060020a03811660009081526000805160206122e783398151915260205260408082208490557fdcbc1c05240f31ff3ad067ef1ee35ce4997762752e3a095284754544f4c709d793919291349151600160a060020a0394851681529290931660208301526040808301919091526060820192909252608001905180910390a1565b611156612280565b60008281526003602052604090819020906101409051908101604090815282548252600180840154600160a060020a03908116602085015260028501548116928401928352600385015416606084015260048401546080840152600584015460a0840152600684015460c0840152600784015460e0840152600884015461010084015260099093015461012083015290925060009051600160a060020a0316600160a060020a0316815260200190815260200160002060008260200151600160a060020a03168152602081019190915260400160002054151561124e5760008281526003602052604090206002600990910155611398565b8060800151600160008360400151600160a060020a0316600160a060020a0316815260200190815260200160002060008360200151600160a060020a03168152602081019190915260400160002054116113985780610100015161131a826080015161130e8460a00151600160008760400151600160a060020a0316600160a060020a0316815260200190815260200160002060008760200151600160a060020a031681526020810191909152604001600020549063ffffffff61224516565b9063ffffffff61226916565b1161139857611385816080015161130e8360a00151600160008660400151600160a060020a0316600160a060020a0316815260200190815260200160002060008660200151600160a060020a031681526020810191909152604001600020549063ffffffff61224516565b6000838152600360205260409020600801555b5050565b600160a060020a0380831660009081526001602090815260408083203390941683529290522054819010156113d057600080fd5b600160a060020a0380831660009081526001602090815260408083203390941683529290522054611407908263ffffffff611e6f16565b600160a060020a0380841660008181526001602090815260408083203390951683529390529190912091909155151561146d5733600160a060020a03168160405160006040518083038185876187965a03f192505050151561146857600080fd5b6114f0565b81600160a060020a031663a9059cbb338360006040516020015260405160e060020a63ffffffff8516028152600160a060020a0390921660048301526024820152604401602060405180830381600087803b15156114ca57600080fd5b6102c65a03f115156114db57600080fd5b5050506040518051905015156114f057600080fd5b600160a060020a03808316600090815260016020908152604080832033948516845290915290819020547ff341246adaac6f497bc2a656f546ab9e182111d630394f0c57c710a59a2cb5679285929091859151600160a060020a0394851681529290931660208301526040808301919091526060820192909252608001905180910390a15050565b600360208190526000918252604090912080546001820154600283015493830154600484015460058501546006860154600787015460088801546009909801549698600160a060020a039687169890871697969095169593949293919290918a565b600160a060020a03808416600090815260016020908152604080832033909416835292905220548190101561160e57600080fd5b600160a060020a0380841660009081526001602090815260408083203390941683529290522054611645908263ffffffff611e6f16565b600160a060020a038481166000908152600160209081526040808320338516845290915280822093909355908416815220546116819082611e59565b600160a060020a038481166000908152600160209081526040808320878516808552925280832085905533938416835280832054919092527f29c199f50ce76b0c1dca77e3f332fcdfc5e44f16ed003a7170b0b3197a15faa593879392869291889151600160a060020a03968716815294861660208601526040808601949094526060850192909252909316608083015260a082019290925260c001905180910390a1505050565b600160209081526000928352604080842090915290825290205481565b600260209081526000928352604080842090915290825290205460ff1681565b600160a060020a03918216600090815260016020908152604080832093909416825291909152205490565b600080888888888888886040516c01000000000000000000000000600160a060020a039889168102825296881687026014820152949096169094026028840152603c830191909152605c820152607c810191909152609c81019190915260bc01604051908190039020600081815260036020526040902060090154909a909950975050505050505050565b60008061182e33898989898989611791565b90925090506101406040519081016040908152838252600160a060020a033381166020808501919091528b821683850152908a1660608401526080830189905260a0830188905260c0830187905260e08301869052600061010084018190526002610120850152858152600390915220815181556020820151600182018054600160a060020a031916600160a060020a03929092169190911790556040820151600282018054600160a060020a031916600160a060020a03929092169190911790556060820151600382018054600160a060020a031916600160a060020a03929092169190911790556080820151816004015560a0820151816005015560c0820151816006015560e082015181600701556101008201518160080155610120820151600990910155507fe8d9861dbc9c663ed3accd261bbe2fe01e0d3d9e5f51fa38523b265c7757a93a8260405190815260200160405180910390a15050505050505050565b60005433600160a060020a039081169116146119af57600080fd5b600160a060020a03811615156119c457600080fd5b600054600160a060020a0380831691167f8be0079c531659141344cd1fd0a4f28419497f9722a3daafe3b4186f6b6457e060405160405180910390a360008054600160a060020a031916600160a060020a0392909216919091179055565b600160a060020a0380871660009081526001602090815260408083203390941683529290529081205485901015611a5857600080fd5b4383901115611a6657600080fd5b338787878787876040516c01000000000000000000000000600160a060020a039889168102825296881687026014820152949096169094026028840152603c830191909152605c820152607c810191909152609c81019190915260bc0160405190819003902060008181526003602052604090205490915015611ae557fe5b6101406040519081016040908152828252600160a060020a033381166020808501919091528a82168385015290891660608401526080830188905260a0830187905260c0830186905260e08301859052610100830187905260016101208401526000848152600390915220815181556020820151600182018054600160a060020a031916600160a060020a03929092169190911790556040820151600282018054600160a060020a031916600160a060020a03929092169190911790556060820151600382018054600160a060020a031916600160a060020a03929092169190911790556080820151816004015560a0820151816005015560c0820151816006015560e082015181600701556101008201518160080155610120820151600990910155507fda8fc6262a82b1376f3b423b065af02520146567658e61f4ebdb056cf0c5f8ec8133898989898989604051978852600160a060020a039687166020890152948616604080890191909152939095166060870152608086019190915260a085015260c084019290925260e0830152610100909101905180910390a150505050505050565b60008080438910611c9d57611e48565b611cac8e8e8e8e8e8e8e611791565b90925090506002811415611cbf57611e48565b8060011415611ce457611cd18261114e565b8060021415611cdf57611e48565b611e3b565b611cf1828f898989610f5d565b1515611cfc57611e48565b61014060405190810160405280836000191681526020018f600160a060020a031681526020018e600160a060020a031681526020018d600160a060020a031681526020018c81526020018b81526020018a81526020018981526020018b81526020016001815250600360008460001916600019168152602001908152602001600020600082015181556020820151600182018054600160a060020a031916600160a060020a03929092169190911790556040820151600282018054600160a060020a031916600160a060020a03929092169190911790556060820151600382018054600160a060020a031916600160a060020a03929092169190911790556080820151816004015560a0820151816005015560c0820151816006015560e082015181600701556101008201518160080155610120820151600990910155505b611e458285611e81565b92505b50509b9a5050505050505050505050565b600082820183811015611e6857fe5b9392505050565b600082821115611e7b57fe5b50900390565b600080611e8c612280565b60008581526003602052604081206008015485935083901015611ebe5760008681526003602052604090206008015492505b600086815260036020526040902060080154611ee0908463ffffffff611e6f16565b60008781526003602052604081206008018290559011611f1157600086815260036020526040902060026009909101555b600086815260036020526040908190209061014090519081016040908152825482526001830154600160a060020a0390811660208401526002840154811691830191909152600383015416606082015260048201546080820152600582015460a08201908152600683015460c0830152600783015460e083015260088301546101008301526009909201546101208201529250611fbe905161130e8460800151869063ffffffff61224516565b905061201a81600160008560400151600160a060020a0316600160a060020a0316815260200190815260200160002060008560200151600160a060020a031681526020810191909152604001600020549063ffffffff611e6f16565b600160008460400151600160a060020a0316600160a060020a0316815260200190815260200160002060008460200151600160a060020a0316600160a060020a03168152602001908152602001600020819055506120b281600160008560400151600160a060020a0390811682526020808301939093526040918201600090812033909216815292529020549063ffffffff611e5916565b600160008460400151600160a060020a0316600160a060020a03168152602001908152602001600020600033600160a060020a0316600160a060020a031681526020019081526020016000208190555061214683600160008560600151600160a060020a0390811682526020808301939093526040918201600090812033909216815292529020549063ffffffff611e6f16565b600160008460600151600160a060020a0316600160a060020a03168152602001908152602001600020600033600160a060020a0316600160a060020a03168152602001908152602001600020819055506121f083600160008560600151600160a060020a0316600160a060020a0316815260200190815260200160002060008560200151600160a060020a031681526020810191909152604001600020549063ffffffff611e5916565b600160008460600151600160a060020a0316600160a060020a0316815260200190815260200160002060008460200151600160a060020a03168152602081019190915260400160002055505090910392915050565b6000828202831580612261575082848281151561225e57fe5b04145b1515611e6857fe5b600080828481151561227757fe5b04949350505050565b6101406040519081016040908152600080835260208301819052908201819052606082018190526080820181905260a0820181905260c0820181905260e08201819052610100820181905261012082015290565b602060405190810160405260008152905600a6eef7e35abe7026729641147f7915573c7e97b47efa546f5f6e3230263bcb49a165627a7a7230582092bff4df565e247c10651058e262b3d782cc18e92f01223ecda54f678cad322f0029",
  "source": "pragma solidity ^0.4.17;\n\nimport \"./lib/SafeMath.sol\";\nimport \"./lib/Ownable.sol\";\nimport {StandardToken as Token} from \"./lib/StandardToken.sol\";\n\n/** @title Joyso contract \n  * \n  */\ncontract Joyso is Ownable {\n    using SafeMath for uint256;\n\n    struct JoysoOrder {\n        bytes32 orderID;\n        address owner;\n        address tokenSell;\n        address tokenBuy;\n        uint256 amountSell;\n        uint256 amountBuy;\n        uint256 expires;\n        uint256 nonce;\n        uint256 balance;\n        /** status = 0: off-chain\n            status = 1: onchain and still avaliable\n            status = 2: onchain but finished\n         **/ \n        uint256 status; \n    }\n\n    mapping (address => mapping (address => uint256)) public balances;\n    mapping (address => mapping (uint256 => bool)) public dependency;\n    mapping (bytes32 => JoysoOrder) public orderBook;\n\n\n    //events\n    event Deposit (address token, address user, uint256 amount, uint256 balance);\n    event Withdraw(address token, address user, uint256 amount, uint256 balance);\n    event Transfer (address token, address sender, uint256 amount, uint256 senderBalance, address reveiver, uint256 receriverBalance);\n    event TradeScuessed (address maker, address tokenSell, address tokenBuy, uint256 amountSell, uint256 amountBuy);\n    event NewOrder(bytes32 orderID, address maker, address tokenSell, address tokenBuy, uint256 amountSell, uint256 amountBuy, uint256 expires, uint256 nonce);\n    event Cancel(bytes32 orderID);\n\n    /** Event for take fails\n      * 1: the order is filled or canceled \n      * 3: scuess the trade but fail in turn to order\n      */\n    event Fail(uint8 index, address maker, address tokenSell, address tokenBuy, uint256 amountSell, uint256 amountBuy, uint256 expires, uint256 nonce);\n \n    /** Deposit allow user to store the funds in Joyso contract.\n      * It is more convenient to transfer funds or to trade in contract.\n      * Besure to approve the contract to move your erc20 token if depositToken.  \n      */\n    function depositToken (address token, uint256 amount) public {\n        require(Token(token).transferFrom(msg.sender, this, amount));\n        balances[token][msg.sender] = balances[token][msg.sender].add(amount);\n        Deposit(token, msg.sender, amount, balances[token][msg.sender]);\n    }\n\n    function depositEther () public payable {\n        balances[0][msg.sender] = balances[0][msg.sender].add(msg.value);\n        Deposit(0, msg.sender, msg.value, balances[0][msg.sender]);\n    }\n\n    function withdrawToken (address token, uint256 amount) public {\n        require (balances[token][msg.sender] >= amount);\n        balances[token][msg.sender] = balances[token][msg.sender].sub(amount);\n        if (token == 0) {\n            require (msg.sender.call.value(amount)());\n        } else {\n            require (Token(token).transfer(msg.sender, amount));\n        }\n        Withdraw(token, msg.sender, amount, balances[token][msg.sender]);\n    }\n\n    function withdrawEther (uint256 amount) public {\n        require (balances[0][msg.sender] >= amount);\n        balances[0][msg.sender] = balances[0][msg.sender].sub(amount);\n        require (msg.sender.call.value(amount)());\n        Withdraw(0, msg.sender, amount, balances[0][msg.sender]);       \n    }\n\n    /** Transfer funds in contract.\n      * Using token = 0x to transfer ether.\n      */\n    function transfer (address token, address receiver, uint256 amount) public {\n        require (balances[token][msg.sender] >= amount);\n        balances[token][msg.sender] = balances[token][msg.sender].sub(amount);\n        balances[token][receiver] = balances[token][receiver].add(amount);\n        Transfer(token, msg.sender, amount, balances[token][msg.sender], receiver, balances[token][receiver]);\n    }\n\n    function make (address tokenSell, address tokenBuy, uint256 amountSell, uint256 amountBuy, uint256 expires, uint256 nonce) public {\n        // simple check first, if these not pass, there is no need to watse more gas \n        require(balances[tokenSell][msg.sender] >= amountSell);\n        require(block.number <= expires);\n        bytes32 hash = keccak256(msg.sender, tokenSell, tokenBuy, amountSell, amountBuy, expires, nonce);\n        assert(orderBook[hash].orderID == 0); // This should be a new order.\n        orderBook[hash] = JoysoOrder(hash, msg.sender, tokenSell, tokenBuy, amountSell, amountBuy, expires, nonce, amountBuy, 1);\n        NewOrder(hash, msg.sender, tokenSell, tokenBuy, amountSell, amountBuy, expires, nonce);\n    }\n\n    function takeByID (bytes32 orderID, uint256 amountTake) public {\n\n        JoysoOrder memory thisOrder = orderBook[orderID];\n        require(balances[thisOrder.tokenBuy][msg.sender] >= amountTake);\n        require(thisOrder.expires >= block.number);\n        require(thisOrder.status == 1);\n\n        // update order balance\n        updateOrder(orderID);\n\n        // trade\n        amountTake = trade(orderID, amountTake);\n        TradeScuessed(thisOrder.owner, thisOrder.tokenSell, thisOrder.tokenBuy, thisOrder.amountSell, thisOrder.amountBuy);\n    }\n\n    function take (address maker, address tokenSell, address tokenBuy, uint256 amountSell, uint256 amountBuy, uint256 expires, uint256 nonce,\n        uint8 v, bytes32 r, bytes32 s, uint256 amountTake) public \n    {\n        require(balances[tokenBuy][msg.sender] >= amountTake);\n        require(expires >= block.number);\n\n        bytes32 orderID;\n        uint256 orderStatus;\n        (orderID, orderStatus) = queryID(maker, tokenSell, tokenBuy, amountSell, amountBuy, expires, nonce);\n\n        if (orderStatus == 2) {\n            Fail(1, maker, tokenSell, tokenBuy, amountSell, amountBuy, expires, nonce);\n            return;\n        }else if (orderStatus == 1) {\n            updateOrder(orderID);\n            if (orderStatus == 2) {\n                Fail(2, maker, tokenSell, tokenBuy, amountSell, amountBuy, expires, nonce);\n                return;\n            }\n        }else { // orderStatus == 0\n            require (verify(orderID, maker, v, r, s));\n            orderBook[orderID] = JoysoOrder(orderID, maker, tokenSell, tokenBuy, amountSell, amountBuy, expires, nonce, amountBuy, 1);\n        }\n        \n        // trade\n        amountTake = trade(orderID, amountTake);\n        TradeScuessed(maker, tokenSell, tokenBuy, amountSell, amountBuy);\n    }\n\n    function multiTake (address[] maker, address tokenSell, address tokenBuy, uint256[] amountSell, uint256[] amountBuy, uint256[] expires, uint256[] nonce,\n        uint8[] v, bytes32[] r, bytes32[] s, uint256 amountTake) public \n    {\n        require(balances[tokenBuy][msg.sender] >= amountTake);\n\n        // check length \n        uint256 length = maker.length;\n        require(amountSell.length == length && \n            amountBuy.length == length && \n            expires.length == length && \n            nonce.length == length &&\n            v.length == length &&\n            r.length == length && \n            s.length == length);\n\n        for (uint256 i = 0; i < length; i++){\n            if (amountTake <= 0) break;\n            amountTake = internalTrade(maker[i], tokenSell, tokenBuy, amountSell[i], amountBuy[i], expires[i], nonce[i],\n                                    v[i], r[i], s[i], amountTake);\n        }\n    }\n\n    function cancel (address tokenSell, address tokenBuy, uint256 amountSell, uint256 amountBuy, uint256 expires, uint256 nonce) public {\n        bytes32 orderID;\n        uint256 orderStatus;\n        (orderID, orderStatus) = queryID(msg.sender, tokenSell, tokenBuy, amountSell, amountBuy, expires, nonce);\n        orderBook[orderID] = JoysoOrder(orderID, msg.sender, tokenSell, tokenBuy, amountSell, amountBuy, expires, nonce, 0, 2);\n        Cancel(orderID);\n    }\n\n    function updateOrder (bytes32 orderID) public {\n        JoysoOrder memory thisOrder = orderBook[orderID];\n        if (balances[thisOrder.tokenSell][thisOrder.owner] == 0) {\n            orderBook[orderID].status = 2;\n            return;\n        }\n        if (balances[thisOrder.tokenSell][thisOrder.owner] <= thisOrder.amountSell) {\n            if (balances[thisOrder.tokenSell][thisOrder.owner].mul(thisOrder.amountBuy).div(thisOrder.amountSell) <= thisOrder.balance) {\n                orderBook[orderID].balance = balances[thisOrder.tokenSell][thisOrder.owner].mul(thisOrder.amountBuy).div(thisOrder.amountSell);\n            }\n        }\n    }\n\n    // helper functions\n    function getBalance (address token, address account) public view returns (uint256) {\n        return balances[token][account];\n    }\n\n    function queryID (address maker, address tokenSell, address tokenBuy, uint256 amountSell, uint256 amountBuy, uint256 expires, uint256 nonce) \n        public view returns (bytes32 hash, uint256 status) \n    {\n        hash = keccak256(maker, tokenSell, tokenBuy, amountSell, amountBuy, expires, nonce);\n        status = orderBook[hash].status;\n    }\n\n    function verify (bytes32 hash, address sender, uint8 v, bytes32 r, bytes32 s) public pure returns (bool) {\n        bytes memory prefix = \"\\x19Ethereum Signed Message:\\n32\";\n        bytes32 prefixedHash = keccak256(prefix, hash);\n        return ecrecover(prefixedHash, v, r, s) == sender;\n    }\n\n    // internal function\n    /** This function directly trade between two parties.\n      * Besure to check anything then enter this function.  \n      */\n    function trade (bytes32 orderID, uint256 amountTake) \n        private returns (uint256)\n    {\n        uint256 amountToBuy = amountTake;\n        if (orderBook[orderID].balance < amountTake) {\n            amountToBuy = orderBook[orderID].balance;\n        }\n\n        // update balance first\n        orderBook[orderID].balance = orderBook[orderID].balance.sub(amountToBuy);\n        if (orderBook[orderID].balance <= 0) {\n            orderBook[orderID].status = 2;\n        }\n        JoysoOrder memory thisOrder = orderBook[orderID];\n    \n        // update maker/taker's balance\n        uint256 amountToSell = amountToBuy.mul(thisOrder.amountSell).div(thisOrder.amountBuy);\n        balances[thisOrder.tokenSell][thisOrder.owner] = balances[thisOrder.tokenSell][thisOrder.owner].sub(amountToSell);\n        balances[thisOrder.tokenSell][msg.sender] = balances[thisOrder.tokenSell][msg.sender].add(amountToSell);\n        balances[thisOrder.tokenBuy][msg.sender] = balances[thisOrder.tokenBuy][msg.sender].sub(amountToBuy);\n        balances[thisOrder.tokenBuy][thisOrder.owner] = balances[thisOrder.tokenBuy][thisOrder.owner].add(amountToBuy);\n\n        return amountTake - amountToBuy;\n    }\n\n    function internalTrade (address maker, address tokenSell, address tokenBuy, uint256 amountSell, uint256 amountBuy, uint256 expires, uint256 nonce,\n        uint8 v, bytes32 r, bytes32 s, uint256 amountTake)\n        private returns (uint256 reamin)\n    {\n        if (expires >= block.number) return;\n        bytes32 orderID;\n        uint256 orderStatus;\n        (orderID, orderStatus) = queryID(maker, tokenSell, tokenBuy, amountSell, amountBuy, expires, nonce);\n        if (orderStatus == 2) return;\n        else if (orderStatus == 1) {\n            updateOrder(orderID);\n            if(orderStatus == 2) return;\n        }\n        else { // orderStatus == 0\n            if (!verify(orderID, maker, v, r, s)) return;\n            orderBook[orderID] = JoysoOrder(orderID, maker, tokenSell, tokenBuy, amountSell, amountBuy, expires, nonce, amountBuy, 1);\n        }\n        reamin = trade(orderID, amountTake);\n    }\n}",
  "sourcePath": "/Users/will/Work/ConsensusInnovation/joyso-contracts/contracts/Joyso.sol",
  "schemaVersion": "1.0.0",
  "updatedAt": "2017-11-12T18:17:22.270Z"
}