{
  "contractName": "Joyso",
  "abi": [
    {
      "constant": false,
      "inputs": [
        {
          "name": "token",
          "type": "address"
        },
        {
          "name": "amount",
          "type": "uint256"
        }
      ],
      "name": "deposit",
      "outputs": [],
      "payable": true,
      "stateMutability": "payable",
      "type": "function"
    },
    {
      "constant": false,
      "inputs": [
        {
          "name": "maker",
          "type": "address"
        },
        {
          "name": "tokenSell",
          "type": "address"
        },
        {
          "name": "tokenBuy",
          "type": "address"
        },
        {
          "name": "amountSell",
          "type": "uint256"
        },
        {
          "name": "amountBuy",
          "type": "uint256"
        },
        {
          "name": "expires",
          "type": "uint256"
        },
        {
          "name": "nonce",
          "type": "uint256"
        },
        {
          "name": "v",
          "type": "uint8"
        },
        {
          "name": "r",
          "type": "bytes32"
        },
        {
          "name": "s",
          "type": "bytes32"
        },
        {
          "name": "amountTake",
          "type": "uint256"
        }
      ],
      "name": "take",
      "outputs": [],
      "payable": false,
      "stateMutability": "nonpayable",
      "type": "function"
    },
    {
      "constant": false,
      "inputs": [
        {
          "name": "orderID",
          "type": "bytes32"
        },
        {
          "name": "amountTake",
          "type": "uint256"
        }
      ],
      "name": "takeByID",
      "outputs": [],
      "payable": false,
      "stateMutability": "nonpayable",
      "type": "function"
    },
    {
      "constant": false,
      "inputs": [
        {
          "name": "maker",
          "type": "address[]"
        },
        {
          "name": "tokenSell",
          "type": "address"
        },
        {
          "name": "tokenBuy",
          "type": "address"
        },
        {
          "name": "amountSell",
          "type": "uint256[]"
        },
        {
          "name": "amountBuy",
          "type": "uint256[]"
        },
        {
          "name": "expires",
          "type": "uint256[]"
        },
        {
          "name": "nonce",
          "type": "uint256[]"
        },
        {
          "name": "v",
          "type": "uint8[]"
        },
        {
          "name": "r",
          "type": "bytes32[]"
        },
        {
          "name": "s",
          "type": "bytes32[]"
        },
        {
          "name": "amountTake",
          "type": "uint256"
        }
      ],
      "name": "takeBatch",
      "outputs": [],
      "payable": false,
      "stateMutability": "nonpayable",
      "type": "function"
    },
    {
      "constant": true,
      "inputs": [],
      "name": "owner",
      "outputs": [
        {
          "name": "",
          "type": "address"
        }
      ],
      "payable": false,
      "stateMutability": "view",
      "type": "function"
    },
    {
      "constant": true,
      "inputs": [
        {
          "name": "hash",
          "type": "bytes32"
        },
        {
          "name": "sender",
          "type": "address"
        },
        {
          "name": "v",
          "type": "uint8"
        },
        {
          "name": "r",
          "type": "bytes32"
        },
        {
          "name": "s",
          "type": "bytes32"
        }
      ],
      "name": "verify",
      "outputs": [
        {
          "name": "",
          "type": "bool"
        }
      ],
      "payable": false,
      "stateMutability": "pure",
      "type": "function"
    },
    {
      "constant": false,
      "inputs": [
        {
          "name": "orderID",
          "type": "bytes32"
        }
      ],
      "name": "updateOrder",
      "outputs": [],
      "payable": false,
      "stateMutability": "nonpayable",
      "type": "function"
    },
    {
      "constant": true,
      "inputs": [
        {
          "name": "",
          "type": "bytes32"
        }
      ],
      "name": "orderBook",
      "outputs": [
        {
          "name": "orderID",
          "type": "bytes32"
        },
        {
          "name": "owner",
          "type": "address"
        },
        {
          "name": "tokenSell",
          "type": "address"
        },
        {
          "name": "tokenBuy",
          "type": "address"
        },
        {
          "name": "amountSell",
          "type": "uint256"
        },
        {
          "name": "amountBuy",
          "type": "uint256"
        },
        {
          "name": "expires",
          "type": "uint256"
        },
        {
          "name": "nonce",
          "type": "uint256"
        },
        {
          "name": "balance",
          "type": "uint256"
        },
        {
          "name": "status",
          "type": "uint256"
        }
      ],
      "payable": false,
      "stateMutability": "view",
      "type": "function"
    },
    {
      "constant": false,
      "inputs": [
        {
          "name": "token",
          "type": "address"
        },
        {
          "name": "receiver",
          "type": "address"
        },
        {
          "name": "amount",
          "type": "uint256"
        }
      ],
      "name": "transfer",
      "outputs": [],
      "payable": false,
      "stateMutability": "nonpayable",
      "type": "function"
    },
    {
      "constant": true,
      "inputs": [
        {
          "name": "",
          "type": "address"
        },
        {
          "name": "",
          "type": "address"
        }
      ],
      "name": "balances",
      "outputs": [
        {
          "name": "",
          "type": "uint256"
        }
      ],
      "payable": false,
      "stateMutability": "view",
      "type": "function"
    },
    {
      "constant": true,
      "inputs": [
        {
          "name": "",
          "type": "address"
        },
        {
          "name": "",
          "type": "uint256"
        }
      ],
      "name": "dependency",
      "outputs": [
        {
          "name": "",
          "type": "bool"
        }
      ],
      "payable": false,
      "stateMutability": "view",
      "type": "function"
    },
    {
      "constant": true,
      "inputs": [
        {
          "name": "token",
          "type": "address"
        },
        {
          "name": "account",
          "type": "address"
        }
      ],
      "name": "getBalance",
      "outputs": [
        {
          "name": "",
          "type": "uint256"
        }
      ],
      "payable": false,
      "stateMutability": "view",
      "type": "function"
    },
    {
      "constant": true,
      "inputs": [
        {
          "name": "maker",
          "type": "address"
        },
        {
          "name": "tokenSell",
          "type": "address"
        },
        {
          "name": "tokenBuy",
          "type": "address"
        },
        {
          "name": "amountSell",
          "type": "uint256"
        },
        {
          "name": "amountBuy",
          "type": "uint256"
        },
        {
          "name": "expires",
          "type": "uint256"
        },
        {
          "name": "nonce",
          "type": "uint256"
        }
      ],
      "name": "queryID",
      "outputs": [
        {
          "name": "hash",
          "type": "bytes32"
        },
        {
          "name": "status",
          "type": "uint256"
        }
      ],
      "payable": false,
      "stateMutability": "view",
      "type": "function"
    },
    {
      "constant": false,
      "inputs": [
        {
          "name": "tokenSell",
          "type": "address"
        },
        {
          "name": "tokenBuy",
          "type": "address"
        },
        {
          "name": "amountSell",
          "type": "uint256"
        },
        {
          "name": "amountBuy",
          "type": "uint256"
        },
        {
          "name": "expires",
          "type": "uint256"
        },
        {
          "name": "nonce",
          "type": "uint256"
        }
      ],
      "name": "cancel",
      "outputs": [],
      "payable": false,
      "stateMutability": "nonpayable",
      "type": "function"
    },
    {
      "constant": false,
      "inputs": [
        {
          "name": "newOwner",
          "type": "address"
        }
      ],
      "name": "transferOwnership",
      "outputs": [],
      "payable": false,
      "stateMutability": "nonpayable",
      "type": "function"
    },
    {
      "constant": false,
      "inputs": [
        {
          "name": "token",
          "type": "address"
        },
        {
          "name": "amount",
          "type": "uint256"
        }
      ],
      "name": "withdraw",
      "outputs": [],
      "payable": false,
      "stateMutability": "nonpayable",
      "type": "function"
    },
    {
      "constant": false,
      "inputs": [
        {
          "name": "tokenSell",
          "type": "address"
        },
        {
          "name": "tokenBuy",
          "type": "address"
        },
        {
          "name": "amountSell",
          "type": "uint256"
        },
        {
          "name": "amountBuy",
          "type": "uint256"
        },
        {
          "name": "expires",
          "type": "uint256"
        },
        {
          "name": "nonce",
          "type": "uint256"
        }
      ],
      "name": "make",
      "outputs": [],
      "payable": false,
      "stateMutability": "nonpayable",
      "type": "function"
    },
    {
      "anonymous": false,
      "inputs": [
        {
          "indexed": false,
          "name": "token",
          "type": "address"
        },
        {
          "indexed": false,
          "name": "sender",
          "type": "address"
        },
        {
          "indexed": false,
          "name": "amount",
          "type": "uint256"
        },
        {
          "indexed": false,
          "name": "balance",
          "type": "uint256"
        }
      ],
      "name": "Deposit",
      "type": "event"
    },
    {
      "anonymous": false,
      "inputs": [
        {
          "indexed": false,
          "name": "token",
          "type": "address"
        },
        {
          "indexed": false,
          "name": "user",
          "type": "address"
        },
        {
          "indexed": false,
          "name": "amount",
          "type": "uint256"
        },
        {
          "indexed": false,
          "name": "balance",
          "type": "uint256"
        }
      ],
      "name": "Withdraw",
      "type": "event"
    },
    {
      "anonymous": false,
      "inputs": [
        {
          "indexed": false,
          "name": "token",
          "type": "address"
        },
        {
          "indexed": false,
          "name": "sender",
          "type": "address"
        },
        {
          "indexed": false,
          "name": "amount",
          "type": "uint256"
        },
        {
          "indexed": false,
          "name": "senderBalance",
          "type": "uint256"
        },
        {
          "indexed": false,
          "name": "reveiver",
          "type": "address"
        },
        {
          "indexed": false,
          "name": "receriverBalance",
          "type": "uint256"
        }
      ],
      "name": "Transfer",
      "type": "event"
    },
    {
      "anonymous": false,
      "inputs": [
        {
          "indexed": false,
          "name": "maker",
          "type": "address"
        },
        {
          "indexed": false,
          "name": "tokenSell",
          "type": "address"
        },
        {
          "indexed": false,
          "name": "tokenBuy",
          "type": "address"
        },
        {
          "indexed": false,
          "name": "amountSell",
          "type": "uint256"
        },
        {
          "indexed": false,
          "name": "amountBuy",
          "type": "uint256"
        }
      ],
      "name": "TradeScuessed",
      "type": "event"
    },
    {
      "anonymous": false,
      "inputs": [
        {
          "indexed": false,
          "name": "orderID",
          "type": "bytes32"
        },
        {
          "indexed": false,
          "name": "maker",
          "type": "address"
        },
        {
          "indexed": false,
          "name": "tokenSell",
          "type": "address"
        },
        {
          "indexed": false,
          "name": "tokenBuy",
          "type": "address"
        },
        {
          "indexed": false,
          "name": "amountSell",
          "type": "uint256"
        },
        {
          "indexed": false,
          "name": "amountBuy",
          "type": "uint256"
        },
        {
          "indexed": false,
          "name": "expires",
          "type": "uint256"
        },
        {
          "indexed": false,
          "name": "nonce",
          "type": "uint256"
        }
      ],
      "name": "NewOrder",
      "type": "event"
    },
    {
      "anonymous": false,
      "inputs": [
        {
          "indexed": false,
          "name": "orderID",
          "type": "bytes32"
        }
      ],
      "name": "Cancel",
      "type": "event"
    },
    {
      "anonymous": false,
      "inputs": [
        {
          "indexed": false,
          "name": "index",
          "type": "uint8"
        },
        {
          "indexed": false,
          "name": "maker",
          "type": "address"
        },
        {
          "indexed": false,
          "name": "tokenSell",
          "type": "address"
        },
        {
          "indexed": false,
          "name": "tokenBuy",
          "type": "address"
        },
        {
          "indexed": false,
          "name": "amountSell",
          "type": "uint256"
        },
        {
          "indexed": false,
          "name": "amountBuy",
          "type": "uint256"
        },
        {
          "indexed": false,
          "name": "expires",
          "type": "uint256"
        },
        {
          "indexed": false,
          "name": "nonce",
          "type": "uint256"
        }
      ],
      "name": "Fail",
      "type": "event"
    },
    {
      "anonymous": false,
      "inputs": [
        {
          "indexed": true,
          "name": "previousOwner",
          "type": "address"
        },
        {
          "indexed": true,
          "name": "newOwner",
          "type": "address"
        }
      ],
      "name": "OwnershipTransferred",
      "type": "event"
    }
  ],
  "bytecode": "0x606060405260008054600160a060020a033316600160a060020a0319909116179055612055806100306000396000f300606060405236156100d55763ffffffff60e060020a60003504166347e7ef2481146100da57806377e0f146146100f35780637b4abd7b1461013c57806382b2808f146101555780638da5cb5b1461037e57806392d4d9ac146103ad5780639a54285a146103ef578063bd1bceca14610405578063beabacc81461047d578063c23f001f146104a5578063c441d086146104dc578063d4fac45d146104fe578063da4e2f9c14610523578063e40c4bac14610572578063f2fde38b146105a3578063f3fef3a3146105c2578063f4e733fe146105e4575b600080fd5b6100f1600160a060020a0360043516602435610615565b005b34156100fe57600080fd5b6100f1600160a060020a036004358116906024358116906044351660643560843560a43560c43560ff60e43516610104356101243561014435610798565b341561014757600080fd5b6100f1600435602435610a64565b341561016057600080fd5b6100f160046024813581810190830135806020818102016040519081016040528093929190818152602001838360200280828437509496600160a060020a038735811697602080820135909216975091955060608201945060409182013586018082019450359250829182820290910190519081016040528093929190818152602001838360200280828437820191505050505050919080359060200190820180359060200190808060200260200160405190810160405280939291908181526020018383602002808284378201915050505050509190803590602001908201803590602001908080602002602001604051908101604052809392919081815260200183836020028082843782019150505050505091908035906020019082018035906020019080806020026020016040519081016040528093929190818152602001838360200280828437820191505050505050919080359060200190820180359060200190808060200260200160405190810160405280939291908181526020018383602002808284378201915050505050509190803590602001908201803590602001908080602002602001604051908101604052809392919081815260200183836020028082843782019150505050505091908035906020019082018035906020019080806020026020016040519081016040528093929190818152602001838360200280828437509496505093359350610bf292505050565b341561038957600080fd5b610391610d63565b604051600160a060020a03909116815260200160405180910390f35b34156103b857600080fd5b6103db600435600160a060020a036024351660ff60443516606435608435610d72565b604051901515815260200160405180910390f35b34156103fa57600080fd5b6100f1600435610ea8565b341561041057600080fd5b61041b6004356110f6565b604051998a52600160a060020a0398891660208b01529688166040808b0191909152959097166060890152608088019390935260a087019190915260c086015260e0850152610100840192909252610120830152610140909101905180910390f35b341561048857600080fd5b6100f1600160a060020a0360043581169060243516604435611158565b34156104b057600080fd5b6104ca600160a060020a03600435811690602435166112a7565b60405190815260200160405180910390f35b34156104e757600080fd5b6103db600160a060020a03600435166024356112c4565b341561050957600080fd5b6104ca600160a060020a03600435811690602435166112e4565b341561052e57600080fd5b61055a600160a060020a036004358116906024358116906044351660643560843560a43560c43561130f565b60405191825260208201526040908101905180910390f35b341561057d57600080fd5b6100f1600160a060020a036004358116906024351660443560643560843560a43561139a565b34156105ae57600080fd5b6100f1600160a060020a0360043516611512565b34156105cd57600080fd5b6100f1600160a060020a03600435166024356115a0565b34156105ef57600080fd5b6100f1600160a060020a036004358116906024351660443560643560843560a43561177c565b600160a060020a0382161580159061062b575034155b8061063557508034145b151561064057600080fd5b3415156106d75781600160a060020a03166323b872dd33308460006040516020015260405160e060020a63ffffffff8616028152600160a060020a0393841660048201529190921660248201526044810191909152606401602060405180830381600087803b15156106b157600080fd5b6102c65a03f115156106c257600080fd5b5050506040518051905015156106d757600080fd5b600160a060020a038083166000908152600160209081526040808320339094168352929052205461070e908263ffffffff6119e716565b600160a060020a038381166000908152600160209081526040808320339485168452909152908190208390557fdcbc1c05240f31ff3ad067ef1ee35ce4997762752e3a095284754544f4c709d79285929185919051600160a060020a0394851681529290931660208301526040808301919091526060820192909252608001905180910390a15050565b600160a060020a03808a166000908152600160209081526040808320339094168352929052908120548190839010156107d057600080fd5b438810156107dd57600080fd5b6107ec8d8d8d8d8d8d8d61130f565b9092509050600281141561087f577fa5450e333233096524f2b0f581bf48524169cfaf0a82c6ed1cb856f09018875b60018e8e8e8e8e8e8e60405160ff9098168852600160a060020a039687166020890152948616604080890191909152939095166060870152608086019190915260a085015260c084019290925260e0830152610100909101905180910390a1610a55565b8015156109dd57610893828e888888610d72565b151561089e57600080fd5b61014060405190810160405280836000191681526020018e600160a060020a031681526020018d600160a060020a031681526020018c600160a060020a031681526020018b81526020018a81526020018981526020018881526020018a81526020016001815250600360008460001916600019168152602001908152602001600020600082015181556020820151600182018054600160a060020a031916600160a060020a03929092169190911790556040820151600282018054600160a060020a031916600160a060020a03929092169190911790556060820151600382018054600160a060020a031916600160a060020a03929092169190911790556080820151816004015560a0820151816005015560c0820151816006015560e082015181600701556101008201518160080155610120820151600990910155505b6109e682610ea8565b6109f082846119fd565b92507f9ffba7d3904f6d318f8375abfba77f08b05805062451e800d5be980e199c88ec8d8d8d8d8d604051600160a060020a0395861681529385166020850152919093166040808401919091526060830193909352608082015260a001905180910390a15b50505050505050505050505050565b610a6c611fc3565b60008381526003602052604090819020906101409051908101604090815282548252600180840154600160a060020a039081166020850152600285015481169284019290925260038401549091166060830190815260048401546080840152600584015460a0840152600684015460c0840152600784015460e08401526008840154610100840152600990930154610120830152909250839160009051600160a060020a0390811682526020808301939093526040918201600090812033909216815292529020541015610b3f57600080fd5b438160c001511015610b5057600080fd5b806101200151600114610b6257600080fd5b610b6b83610ea8565b610b7583836119fd565b91507f9ffba7d3904f6d318f8375abfba77f08b05805062451e800d5be980e199c88ec81602001518260400151836060015184608001518560a00151604051600160a060020a0395861681529385166020850152919093166040808401919091526060830193909352608082015260a001905180910390a1505050565b600160a060020a03808a16600090815260016020908152604080832033909416835292905290812054819083901015610c2a57600080fd5b8c519150818a51148015610c3e5750818951145b8015610c4a5750818851145b8015610c565750818751145b8015610c625750818651145b8015610c6e5750818551145b8015610c7a5750818451145b1515610c8557600080fd5b5060005b81811015610a555760008311610c9e57610a55565b610d598d8281518110610cad57fe5b906020019060200201518d8d8d8581518110610cc557fe5b906020019060200201518d8681518110610cdb57fe5b906020019060200201518d8781518110610cf157fe5b906020019060200201518d8881518110610d0757fe5b906020019060200201518d8981518110610d1d57fe5b906020019060200201518d8a81518110610d3357fe5b906020019060200201518d8b81518110610d4957fe5b906020019060200201518d611dbf565b9250600101610c89565b600054600160a060020a031681565b6000610d7c612017565b60006040805190810160405280601c81526020017f19457468657265756d205369676e6564204d6573736167653a0a333200000000815250915081886040518083805190602001908083835b60208310610de75780518252601f199092019160209182019101610dc8565b6001836020036101000a038019825116818451161790925250505091909101928352505060200190506040518091039020905086600160a060020a03166001828888886040516000815260200160405260006040516020015260405193845260ff90921660208085019190915260408085019290925260608401929092526080909201915160208103908084039060008661646e5a03f11515610e8957600080fd5b505060206040510351600160a060020a03161498975050505050505050565b610eb0611fc3565b60008281526003602052604090819020906101409051908101604090815282548252600180840154600160a060020a03908116602085015260028501548116928401928352600385015416606084015260048401546080840152600584015460a0840152600684015460c0840152600784015460e0840152600884015461010084015260099093015461012083015290925060009051600160a060020a0316600160a060020a0316815260200190815260200160002060008260200151600160a060020a031681526020810191909152604001600020541515610fa857600082815260036020526040902060026009909101556110f2565b8060800151600160008360400151600160a060020a0316600160a060020a0316815260200190815260200160002060008360200151600160a060020a03168152602081019190915260400160002054116110f25780610100015161107482608001516110688460a00151600160008760400151600160a060020a0316600160a060020a0316815260200190815260200160002060008760200151600160a060020a031681526020810191909152604001600020549063ffffffff611f7616565b9063ffffffff611f9a16565b116110f2576110df81608001516110688360a00151600160008660400151600160a060020a0316600160a060020a0316815260200190815260200160002060008660200151600160a060020a031681526020810191909152604001600020549063ffffffff611f7616565b6000838152600360205260409020600801555b5050565b600360208190526000918252604090912080546001820154600283015493830154600484015460058501546006860154600787015460088801546009909801549698600160a060020a039687169890871697969095169593949293919290918a565b600160a060020a03808416600090815260016020908152604080832033909416835292905220548190101561118c57600080fd5b600160a060020a03808416600090815260016020908152604080832033909416835292905220546111c3908263ffffffff611fb116565b600160a060020a038481166000908152600160209081526040808320338516845290915280822093909355908416815220546111ff90826119e7565b600160a060020a038481166000908152600160209081526040808320878516808552925280832085905533938416835280832054919092527f29c199f50ce76b0c1dca77e3f332fcdfc5e44f16ed003a7170b0b3197a15faa593879392869291889151600160a060020a03968716815294861660208601526040808601949094526060850192909252909316608083015260a082019290925260c001905180910390a1505050565b600160209081526000928352604080842090915290825290205481565b600260209081526000928352604080842090915290825290205460ff1681565b600160a060020a03918216600090815260016020908152604080832093909416825291909152205490565b600080888888888888886040516c01000000000000000000000000600160a060020a039889168102825296881687026014820152949096169094026028840152603c830191909152605c820152607c810191909152609c81019190915260bc01604051908190039020600081815260036020526040902060090154909a909950975050505050505050565b6000806113ac3389898989898961130f565b90925090506101406040519081016040908152838252600160a060020a033381166020808501919091528b821683850152908a1660608401526080830189905260a0830188905260c0830187905260e08301869052600061010084018190526002610120850152858152600390915220815181556020820151600182018054600160a060020a031916600160a060020a03929092169190911790556040820151600282018054600160a060020a031916600160a060020a03929092169190911790556060820151600382018054600160a060020a031916600160a060020a03929092169190911790556080820151816004015560a0820151816005015560c0820151816006015560e082015181600701556101008201518160080155610120820151600990910155507fe8d9861dbc9c663ed3accd261bbe2fe01e0d3d9e5f51fa38523b265c7757a93a8260405190815260200160405180910390a15050505050505050565b60005433600160a060020a0390811691161461152d57600080fd5b600160a060020a038116151561154257600080fd5b600054600160a060020a0380831691167f8be0079c531659141344cd1fd0a4f28419497f9722a3daafe3b4186f6b6457e060405160405180910390a360008054600160a060020a031916600160a060020a0392909216919091179055565b600160a060020a0380831660009081526001602090815260408083203390941683529290522054819010156115d457600080fd5b600160a060020a038083166000908152600160209081526040808320339094168352929052205461160b908263ffffffff611fb116565b600160a060020a038084166000818152600160209081526040808320339095168352939052919091209190915515156116715733600160a060020a03168160405160006040518083038185876187965a03f192505050151561166c57600080fd5b6116f4565b81600160a060020a031663a9059cbb338360006040516020015260405160e060020a63ffffffff8516028152600160a060020a0390921660048301526024820152604401602060405180830381600087803b15156116ce57600080fd5b6102c65a03f115156116df57600080fd5b5050506040518051905015156116f457600080fd5b600160a060020a03808316600090815260016020908152604080832033948516845290915290819020547ff341246adaac6f497bc2a656f546ab9e182111d630394f0c57c710a59a2cb5679285929091859151600160a060020a0394851681529290931660208301526040808301919091526060820192909252608001905180910390a15050565b600160a060020a03808716600090815260016020908152604080832033909416835292905290812054859010156117b257600080fd5b43839011156117c057600080fd5b338787878787876040516c01000000000000000000000000600160a060020a039889168102825296881687026014820152949096169094026028840152603c830191909152605c820152607c810191909152609c81019190915260bc016040519081900390206000818152600360205260409020549091501561183f57fe5b6101406040519081016040908152828252600160a060020a033381166020808501919091528a82168385015290891660608401526080830188905260a0830187905260c0830186905260e08301859052610100830187905260016101208401526000848152600390915220815181556020820151600182018054600160a060020a031916600160a060020a03929092169190911790556040820151600282018054600160a060020a031916600160a060020a03929092169190911790556060820151600382018054600160a060020a031916600160a060020a03929092169190911790556080820151816004015560a0820151816005015560c0820151816006015560e082015181600701556101008201518160080155610120820151600990910155507fda8fc6262a82b1376f3b423b065af02520146567658e61f4ebdb056cf0c5f8ec8133898989898989604051978852600160a060020a039687166020890152948616604080890191909152939095166060870152608086019190915260a085015260c084019290925260e0830152610100909101905180910390a150505050505050565b6000828201838110156119f657fe5b9392505050565b600080611a08611fc3565b60008581526003602052604081206008015485935083901115611a3a5760008681526003602052604090206008015492505b600086815260036020526040902060080154611a5c908463ffffffff611fb116565b5060008681526003602052604081206008015411611a8b57600086815260036020526040902060026009909101555b600086815260036020526040908190209061014090519081016040908152825482526001830154600160a060020a0390811660208401526002840154811691830191909152600383015416606082015260048201546080820152600582015460a08201908152600683015460c0830152600783015460e083015260088301546101008301526009909201546101208201529250611b3890516110688460800151869063ffffffff611f7616565b9050611b9481600160008560400151600160a060020a0316600160a060020a0316815260200190815260200160002060008560200151600160a060020a031681526020810191909152604001600020549063ffffffff611fb116565b600160008460400151600160a060020a0316600160a060020a0316815260200190815260200160002060008460200151600160a060020a0316600160a060020a0316815260200190815260200160002081905550611c2c81600160008560400151600160a060020a0390811682526020808301939093526040918201600090812033909216815292529020549063ffffffff6119e716565b600160008460400151600160a060020a0316600160a060020a03168152602001908152602001600020600033600160a060020a0316600160a060020a0316815260200190815260200160002081905550611cc083600160008560600151600160a060020a0390811682526020808301939093526040918201600090812033909216815292529020549063ffffffff611fb116565b600160008460600151600160a060020a0316600160a060020a03168152602001908152602001600020600033600160a060020a0316600160a060020a0316815260200190815260200160002081905550611d6a83600160008560600151600160a060020a0316600160a060020a0316815260200190815260200160002060008560200151600160a060020a031681526020810191909152604001600020549063ffffffff6119e716565b600160008460600151600160a060020a0316600160a060020a0316815260200190815260200160002060008460200151600160a060020a03168152602081019190915260400160002055505090910392915050565b60008080438910611dcf57611f65565b611dde8e8e8e8e8e8e8e61130f565b90925090506002811415611df157611f65565b801515611f4f57611e05828f898989610d72565b1515611e1057611f65565b61014060405190810160405280836000191681526020018f600160a060020a031681526020018e600160a060020a031681526020018d600160a060020a031681526020018c81526020018b81526020018a81526020018981526020018b81526020016001815250600360008460001916600019168152602001908152602001600020600082015181556020820151600182018054600160a060020a031916600160a060020a03929092169190911790556040820151600282018054600160a060020a031916600160a060020a03929092169190911790556060820151600382018054600160a060020a031916600160a060020a03929092169190911790556080820151816004015560a0820151816005015560c0820151816006015560e082015181600701556101008201518160080155610120820151600990910155505b611f5882610ea8565b611f6282856119fd565b92505b50509b9a5050505050505050505050565b6000828202831580611f925750828482811515611f8f57fe5b04145b15156119f657fe5b6000808284811515611fa857fe5b04949350505050565b600082821115611fbd57fe5b50900390565b6101406040519081016040908152600080835260208301819052908201819052606082018190526080820181905260a0820181905260c0820181905260e08201819052610100820181905261012082015290565b602060405190810160405260008152905600a165627a7a7230582033449a899ebea19d4a904e4a9ddc643daaaf8d6f0854b138dc521def852fab830029",
  "source": "pragma solidity ^0.4.17;\n\nimport \"./lib/SafeMath.sol\";\nimport \"./lib/Ownable.sol\";\nimport {StandardToken as Token} from \"./lib/StandardToken.sol\";\n\n/** @title Joyso contract \n  * \n  */\ncontract Joyso is Ownable {\n    using SafeMath for uint256;\n\n    struct JoysoOrder {\n        bytes32 orderID;\n        address owner;\n        address tokenSell;\n        address tokenBuy;\n        uint256 amountSell;\n        uint256 amountBuy;\n        uint256 expires;\n        uint256 nonce;\n        uint256 balance;\n        /** status = 0: off-chain\n            status = 1: onchain and still avaliable\n            status = 2: onchain but finished\n         **/ \n        uint256 status; \n    }\n\n    mapping (address => mapping (address => uint256)) public balances;\n    mapping (address => mapping (uint256 => bool)) public dependency;\n    mapping (bytes32 => JoysoOrder) public orderBook;\n\n\n    //events\n    event Deposit (address token, address sender, uint256 amount, uint256 balance);\n    event Withdraw(address token, address user, uint256 amount, uint256 balance);\n    event Transfer (address token, address sender, uint256 amount, uint256 senderBalance, address reveiver, uint256 receriverBalance);\n    event TradeScuessed (address maker, address tokenSell, address tokenBuy, uint256 amountSell, uint256 amountBuy);\n    event NewOrder(bytes32 orderID, address maker, address tokenSell, address tokenBuy, uint256 amountSell, uint256 amountBuy, uint256 expires, uint256 nonce);\n    event Cancel(bytes32 orderID);\n\n    /** Event for take fails\n      * 1: the order is filled or canceled \n      * 2: maker's balance is not enough\n      * 3: scuess the trade but fail in turn to order\n      */\n    event Fail(uint8 index, address maker, address tokenSell, address tokenBuy, uint256 amountSell, uint256 amountBuy, uint256 expires, uint256 nonce);\n \n    /** Deposit allow user to store the funds in Joyso contract.\n      * It is more convenient to transfer funds or to trade in contract.\n      * Besure to approve the contract to move your erc20 token if depositToken.  \n      */\n    function deposit (address token, uint256 amount) public payable {\n        require((token != 0 && msg.value == 0) || msg.value == amount);\n        if (msg.value == 0) {\n            require(Token(token).transferFrom(msg.sender, this, amount));\n        }\n        balances[token][msg.sender] = balances[token][msg.sender].add(amount);\n        Deposit(token, msg.sender, amount, balances[token][msg.sender]);\n    }\n\n    function withdraw (address token, uint256 amount) public {\n        require (balances[token][msg.sender] >= amount);\n        balances[token][msg.sender] = balances[token][msg.sender].sub(amount);\n        if (token == 0) {\n            require (msg.sender.call.value(amount)());\n        } else {\n            require (Token(token).transfer(msg.sender, amount));\n        }\n        Withdraw(token, msg.sender, amount, balances[token][msg.sender]);\n    }\n\n    /** Transfer funds in contract.\n      * Using token = 0x to transfer ether.\n      */\n    function transfer (address token, address receiver, uint256 amount) public {\n        require (balances[token][msg.sender] >= amount);\n        balances[token][msg.sender] = balances[token][msg.sender].sub(amount);\n        balances[token][receiver] = balances[token][receiver].add(amount);\n        Transfer(token, msg.sender, amount, balances[token][msg.sender], receiver, balances[token][receiver]);\n    }\n\n    function make (address tokenSell, address tokenBuy, uint256 amountSell, uint256 amountBuy, uint256 expires, uint256 nonce) public {\n        // simple check first, if these not pass, there is no need to watse more gas \n        require(balances[tokenSell][msg.sender] >= amountSell);\n        require(block.number <= expires);\n        bytes32 hash = keccak256(msg.sender, tokenSell, tokenBuy, amountSell, amountBuy, expires, nonce);\n        assert(orderBook[hash].orderID == 0); // This should be a new order.\n        orderBook[hash] = JoysoOrder(hash, msg.sender, tokenSell, tokenBuy, amountSell, amountBuy, expires, nonce, amountBuy, 1);\n        NewOrder(hash, msg.sender, tokenSell, tokenBuy, amountSell, amountBuy, expires, nonce);\n    }\n\n    function takeByID (bytes32 orderID, uint256 amountTake) public {\n\n        JoysoOrder memory thisOrder = orderBook[orderID];\n        require(balances[thisOrder.tokenBuy][msg.sender] >= amountTake);\n        require(thisOrder.expires >= block.number);\n        require(thisOrder.status == 1);\n\n        // update order balance\n        updateOrder(orderID);\n\n        // trade\n        amountTake = trade(orderID, amountTake);\n        TradeScuessed(thisOrder.owner, thisOrder.tokenSell, thisOrder.tokenBuy, thisOrder.amountSell, thisOrder.amountBuy);\n    }\n\n    function take (address maker, address tokenSell, address tokenBuy, uint256 amountSell, uint256 amountBuy, uint256 expires, uint256 nonce,\n        uint8 v, bytes32 r, bytes32 s, uint256 amountTake) public \n    {\n        require(balances[tokenBuy][msg.sender] >= amountTake);\n        require(expires >= block.number);\n\n        bytes32 orderID;\n        uint256 orderStatus;\n        (orderID, orderStatus) = queryID(maker, tokenSell, tokenBuy, amountSell, amountBuy, expires, nonce);\n\n        if (orderStatus == 2) {\n            Fail(1, maker, tokenSell, tokenBuy, amountSell, amountBuy, expires, nonce);\n            return;\n        }\n\n        if (orderStatus == 0) {\n            require (verify(orderID, maker, v, r, s));\n            orderBook[orderID] = JoysoOrder(orderID, maker, tokenSell, tokenBuy, amountSell, amountBuy, expires, nonce, amountBuy, 1);\n        }\n\n        // update order balance\n        updateOrder(orderID);\n        \n        // trade\n        amountTake = trade(orderID, amountTake);\n        TradeScuessed(maker, tokenSell, tokenBuy, amountSell, amountBuy);\n    }\n\n    function takeBatch (address[] maker, address tokenSell, address tokenBuy, uint256[] amountSell, uint256[] amountBuy, uint256[] expires, uint256[] nonce,\n        uint8[] v, bytes32[] r, bytes32[] s, uint256 amountTake) public \n    {\n        require(balances[tokenBuy][msg.sender] >= amountTake);\n\n        // check length \n        uint256 length = maker.length;\n        require(amountSell.length == length && \n            amountBuy.length == length && \n            expires.length == length && \n            nonce.length == length &&\n            v.length == length &&\n            r.length == length && \n            s.length == length);\n\n        for (uint256 i = 0; i < length; i++){\n            if (amountTake <= 0) break;\n            amountTake = internalTrade(maker[i], tokenSell, tokenBuy, amountSell[i], amountBuy[i], expires[i], nonce[i],\n                                    v[i], r[i], s[i], amountTake);\n        }\n    }\n\n    function cancel (address tokenSell, address tokenBuy, uint256 amountSell, uint256 amountBuy, uint256 expires, uint256 nonce) public {\n        bytes32 orderID;\n        uint256 orderStatus;\n        (orderID, orderStatus) = queryID(msg.sender, tokenSell, tokenBuy, amountSell, amountBuy, expires, nonce);\n        orderBook[orderID] = JoysoOrder(orderID, msg.sender, tokenSell, tokenBuy, amountSell, amountBuy, expires, nonce, 0, 2);\n        Cancel(orderID);\n    }\n\n    function updateOrder (bytes32 orderID) public {\n        JoysoOrder memory thisOrder = orderBook[orderID];\n        if (balances[thisOrder.tokenSell][thisOrder.owner] == 0) {\n            orderBook[orderID].status = 2;\n            return;\n        }\n        if (balances[thisOrder.tokenSell][thisOrder.owner] <= thisOrder.amountSell) {\n            if (balances[thisOrder.tokenSell][thisOrder.owner].mul(thisOrder.amountBuy).div(thisOrder.amountSell) <= thisOrder.balance) {\n                orderBook[orderID].balance = balances[thisOrder.tokenSell][thisOrder.owner].mul(thisOrder.amountBuy).div(thisOrder.amountSell);\n            }\n        }\n    }\n\n    // helper functions\n    function getBalance (address token, address account) public view returns (uint256) {\n        return balances[token][account];\n    }\n\n    function queryID (address maker, address tokenSell, address tokenBuy, uint256 amountSell, uint256 amountBuy, uint256 expires, uint256 nonce) \n        public view returns (bytes32 hash, uint256 status) \n    {\n        hash = keccak256(maker, tokenSell, tokenBuy, amountSell, amountBuy, expires, nonce);\n        status = orderBook[hash].status;\n    }\n\n    function verify (bytes32 hash, address sender, uint8 v, bytes32 r, bytes32 s) public pure returns (bool) {\n        bytes memory prefix = \"\\x19Ethereum Signed Message:\\n32\";\n        bytes32 prefixedHash = keccak256(prefix, hash);\n        return ecrecover(prefixedHash, v, r, s) == sender;\n    }\n\n    // internal function\n    /** This function directly trade between two parties.\n      * Besure to check anything then enter this function.  \n      */\n    function trade (bytes32 orderID, uint256 amountTake) \n        private returns (uint256)\n    {\n        uint256 amountToBuy = amountTake;\n        if (orderBook[orderID].balance > amountTake) {\n            amountToBuy = orderBook[orderID].balance;\n        }\n\n        // update balance first\n        orderBook[orderID].balance.sub(amountToBuy);\n        if (orderBook[orderID].balance <= 0) {\n            orderBook[orderID].status = 2;\n        }\n        JoysoOrder memory thisOrder = orderBook[orderID];\n    \n        // update maker/taker's balance\n        uint256 amountToSell = amountToBuy.mul(thisOrder.amountSell).div(thisOrder.amountBuy);\n        balances[thisOrder.tokenSell][thisOrder.owner] = balances[thisOrder.tokenSell][thisOrder.owner].sub(amountToSell);\n        balances[thisOrder.tokenSell][msg.sender] = balances[thisOrder.tokenSell][msg.sender].add(amountToSell);\n        balances[thisOrder.tokenBuy][msg.sender] = balances[thisOrder.tokenBuy][msg.sender].sub(amountToBuy);\n        balances[thisOrder.tokenBuy][thisOrder.owner] = balances[thisOrder.tokenBuy][thisOrder.owner].add(amountToBuy);\n\n        return amountTake - amountToBuy;\n    }\n\n    function internalTrade (address maker, address tokenSell, address tokenBuy, uint256 amountSell, uint256 amountBuy, uint256 expires, uint256 nonce,\n        uint8 v, bytes32 r, bytes32 s, uint256 amountTake)\n        private returns (uint256 reamin)\n    {\n        if (expires >= block.number) return;\n        bytes32 orderID;\n        uint256 orderStatus;\n        (orderID, orderStatus) = queryID(maker, tokenSell, tokenBuy, amountSell, amountBuy, expires, nonce);\n        if (orderStatus == 2) return;\n        if (orderStatus == 0) {\n            if (!verify(orderID, maker, v, r, s)) return;\n            orderBook[orderID] = JoysoOrder(orderID, maker, tokenSell, tokenBuy, amountSell, amountBuy, expires, nonce, amountBuy, 1);\n        }\n        updateOrder(orderID);\n        reamin = trade(orderID, amountTake);\n    }\n}",
  "sourcePath": "/Users/will/Work/ConsensusInnovation/joyso-contracts/contracts/Joyso.sol",
  "schemaVersion": "1.0.0",
  "updatedAt": "2017-11-10T06:40:03.455Z"
}