{
  "contractName": "Joyso",
  "abi": [
    {
      "constant": true,
      "inputs": [],
      "name": "userCount",
      "outputs": [
        {
          "name": "",
          "type": "uint256"
        }
      ],
      "payable": false,
      "stateMutability": "view",
      "type": "function"
    },
    {
      "constant": true,
      "inputs": [],
      "name": "joysoWallet",
      "outputs": [
        {
          "name": "",
          "type": "address"
        }
      ],
      "payable": false,
      "stateMutability": "view",
      "type": "function"
    },
    {
      "constant": true,
      "inputs": [
        {
          "name": "data",
          "type": "uint256"
        }
      ],
      "name": "decodeOrderMakerFee",
      "outputs": [
        {
          "name": "makerFee",
          "type": "uint256"
        }
      ],
      "payable": false,
      "stateMutability": "pure",
      "type": "function"
    },
    {
      "constant": true,
      "inputs": [
        {
          "name": "",
          "type": "address"
        }
      ],
      "name": "isAdmin",
      "outputs": [
        {
          "name": "",
          "type": "bool"
        }
      ],
      "payable": false,
      "stateMutability": "view",
      "type": "function"
    },
    {
      "constant": true,
      "inputs": [],
      "name": "lockPeriod",
      "outputs": [
        {
          "name": "",
          "type": "uint256"
        }
      ],
      "payable": false,
      "stateMutability": "view",
      "type": "function"
    },
    {
      "constant": true,
      "inputs": [
        {
          "name": "data",
          "type": "uint256"
        }
      ],
      "name": "decodeOrderUserId",
      "outputs": [
        {
          "name": "userId",
          "type": "uint256"
        }
      ],
      "payable": false,
      "stateMutability": "pure",
      "type": "function"
    },
    {
      "constant": true,
      "inputs": [
        {
          "name": "data",
          "type": "uint256"
        }
      ],
      "name": "decodeOrderTokenIdAndIsBuy",
      "outputs": [
        {
          "name": "tokenId",
          "type": "uint256"
        },
        {
          "name": "isBuy",
          "type": "uint256"
        }
      ],
      "payable": false,
      "stateMutability": "pure",
      "type": "function"
    },
    {
      "constant": true,
      "inputs": [
        {
          "name": "",
          "type": "bytes32"
        }
      ],
      "name": "usedHash",
      "outputs": [
        {
          "name": "",
          "type": "bool"
        }
      ],
      "payable": false,
      "stateMutability": "view",
      "type": "function"
    },
    {
      "constant": true,
      "inputs": [
        {
          "name": "",
          "type": "address"
        }
      ],
      "name": "userLock",
      "outputs": [
        {
          "name": "",
          "type": "uint256"
        }
      ],
      "payable": false,
      "stateMutability": "view",
      "type": "function"
    },
    {
      "constant": true,
      "inputs": [
        {
          "name": "_data",
          "type": "uint256"
        }
      ],
      "name": "retrieveV",
      "outputs": [
        {
          "name": "v",
          "type": "uint256"
        }
      ],
      "payable": false,
      "stateMutability": "pure",
      "type": "function"
    },
    {
      "constant": true,
      "inputs": [
        {
          "name": "",
          "type": "address"
        }
      ],
      "name": "address2Id",
      "outputs": [
        {
          "name": "",
          "type": "uint256"
        }
      ],
      "payable": false,
      "stateMutability": "view",
      "type": "function"
    },
    {
      "constant": true,
      "inputs": [
        {
          "name": "data",
          "type": "uint256"
        }
      ],
      "name": "decodeOrderJoyPrice",
      "outputs": [
        {
          "name": "joyPrice",
          "type": "uint256"
        }
      ],
      "payable": false,
      "stateMutability": "pure",
      "type": "function"
    },
    {
      "constant": true,
      "inputs": [
        {
          "name": "data",
          "type": "uint256"
        }
      ],
      "name": "decodeOrderNonce",
      "outputs": [
        {
          "name": "nonce",
          "type": "uint256"
        }
      ],
      "payable": false,
      "stateMutability": "pure",
      "type": "function"
    },
    {
      "constant": true,
      "inputs": [
        {
          "name": "_data",
          "type": "uint256"
        },
        {
          "name": "_address",
          "type": "address"
        }
      ],
      "name": "genUserSignedWithdrawData",
      "outputs": [
        {
          "name": "data",
          "type": "uint256"
        }
      ],
      "payable": false,
      "stateMutability": "pure",
      "type": "function"
    },
    {
      "constant": true,
      "inputs": [],
      "name": "owner",
      "outputs": [
        {
          "name": "",
          "type": "address"
        }
      ],
      "payable": false,
      "stateMutability": "view",
      "type": "function"
    },
    {
      "constant": true,
      "inputs": [
        {
          "name": "",
          "type": "uint256"
        }
      ],
      "name": "userId2Address",
      "outputs": [
        {
          "name": "",
          "type": "address"
        }
      ],
      "payable": false,
      "stateMutability": "view",
      "type": "function"
    },
    {
      "constant": true,
      "inputs": [],
      "name": "joyToken",
      "outputs": [
        {
          "name": "",
          "type": "address"
        }
      ],
      "payable": false,
      "stateMutability": "view",
      "type": "function"
    },
    {
      "constant": true,
      "inputs": [
        {
          "name": "_data",
          "type": "uint256"
        }
      ],
      "name": "decodeWithdrawData",
      "outputs": [
        {
          "name": "paymentMethod",
          "type": "uint256"
        },
        {
          "name": "tokenID",
          "type": "uint256"
        },
        {
          "name": "userID",
          "type": "uint256"
        }
      ],
      "payable": false,
      "stateMutability": "pure",
      "type": "function"
    },
    {
      "constant": true,
      "inputs": [
        {
          "name": "",
          "type": "address"
        },
        {
          "name": "",
          "type": "address"
        }
      ],
      "name": "balances",
      "outputs": [
        {
          "name": "",
          "type": "uint256"
        }
      ],
      "payable": false,
      "stateMutability": "view",
      "type": "function"
    },
    {
      "constant": true,
      "inputs": [
        {
          "name": "data",
          "type": "uint256"
        }
      ],
      "name": "decodeOrderTakerFee",
      "outputs": [
        {
          "name": "takerFee",
          "type": "uint256"
        }
      ],
      "payable": false,
      "stateMutability": "pure",
      "type": "function"
    },
    {
      "constant": true,
      "inputs": [
        {
          "name": "_data",
          "type": "uint256"
        },
        {
          "name": "_isBuy",
          "type": "uint256"
        },
        {
          "name": "_address",
          "type": "address"
        }
      ],
      "name": "genUserSignedOrderData",
      "outputs": [
        {
          "name": "data",
          "type": "uint256"
        }
      ],
      "payable": false,
      "stateMutability": "pure",
      "type": "function"
    },
    {
      "constant": false,
      "inputs": [
        {
          "name": "newOwner",
          "type": "address"
        }
      ],
      "name": "transferOwnership",
      "outputs": [],
      "payable": false,
      "stateMutability": "nonpayable",
      "type": "function"
    },
    {
      "constant": true,
      "inputs": [
        {
          "name": "",
          "type": "bytes32"
        }
      ],
      "name": "orderFills",
      "outputs": [
        {
          "name": "",
          "type": "uint256"
        }
      ],
      "payable": false,
      "stateMutability": "view",
      "type": "function"
    },
    {
      "constant": true,
      "inputs": [
        {
          "name": "",
          "type": "uint256"
        }
      ],
      "name": "tokenId2Address",
      "outputs": [
        {
          "name": "",
          "type": "address"
        }
      ],
      "payable": false,
      "stateMutability": "view",
      "type": "function"
    },
    {
      "inputs": [
        {
          "name": "_joysoWallet",
          "type": "address"
        },
        {
          "name": "_joyToken",
          "type": "address"
        }
      ],
      "payable": false,
      "stateMutability": "nonpayable",
      "type": "constructor"
    },
    {
      "anonymous": false,
      "inputs": [
        {
          "indexed": false,
          "name": "token",
          "type": "address"
        },
        {
          "indexed": false,
          "name": "user",
          "type": "address"
        },
        {
          "indexed": false,
          "name": "amount",
          "type": "uint256"
        },
        {
          "indexed": false,
          "name": "balance",
          "type": "uint256"
        }
      ],
      "name": "Deposit",
      "type": "event"
    },
    {
      "anonymous": false,
      "inputs": [
        {
          "indexed": false,
          "name": "token",
          "type": "address"
        },
        {
          "indexed": false,
          "name": "user",
          "type": "address"
        },
        {
          "indexed": false,
          "name": "amount",
          "type": "uint256"
        },
        {
          "indexed": false,
          "name": "balance",
          "type": "uint256"
        }
      ],
      "name": "Withdraw",
      "type": "event"
    },
    {
      "anonymous": false,
      "inputs": [
        {
          "indexed": false,
          "name": "user",
          "type": "address"
        },
        {
          "indexed": false,
          "name": "id",
          "type": "uint256"
        }
      ],
      "name": "NewUser",
      "type": "event"
    },
    {
      "anonymous": false,
      "inputs": [
        {
          "indexed": false,
          "name": "user",
          "type": "address"
        },
        {
          "indexed": false,
          "name": "timeLock",
          "type": "uint256"
        }
      ],
      "name": "Lock",
      "type": "event"
    },
    {
      "anonymous": false,
      "inputs": [
        {
          "indexed": false,
          "name": "user",
          "type": "address"
        },
        {
          "indexed": false,
          "name": "etherGet",
          "type": "uint256"
        },
        {
          "indexed": false,
          "name": "tokenGet",
          "type": "uint256"
        },
        {
          "indexed": false,
          "name": "isBuy",
          "type": "uint256"
        },
        {
          "indexed": false,
          "name": "etherFee",
          "type": "uint256"
        },
        {
          "indexed": false,
          "name": "joyFee",
          "type": "uint256"
        }
      ],
      "name": "TradeScuess",
      "type": "event"
    },
    {
      "anonymous": false,
      "inputs": [
        {
          "indexed": true,
          "name": "previousOwner",
          "type": "address"
        },
        {
          "indexed": true,
          "name": "newOwner",
          "type": "address"
        }
      ],
      "name": "OwnershipTransferred",
      "type": "event"
    },
    {
      "constant": false,
      "inputs": [
        {
          "name": "token",
          "type": "address"
        },
        {
          "name": "amount",
          "type": "uint256"
        }
      ],
      "name": "depositToken",
      "outputs": [],
      "payable": false,
      "stateMutability": "nonpayable",
      "type": "function"
    },
    {
      "constant": false,
      "inputs": [],
      "name": "depositEther",
      "outputs": [],
      "payable": true,
      "stateMutability": "payable",
      "type": "function"
    },
    {
      "constant": false,
      "inputs": [
        {
          "name": "token",
          "type": "address"
        },
        {
          "name": "amount",
          "type": "uint256"
        }
      ],
      "name": "withdraw",
      "outputs": [],
      "payable": false,
      "stateMutability": "nonpayable",
      "type": "function"
    },
    {
      "constant": false,
      "inputs": [],
      "name": "lockMe",
      "outputs": [],
      "payable": false,
      "stateMutability": "nonpayable",
      "type": "function"
    },
    {
      "constant": false,
      "inputs": [],
      "name": "unlockMe",
      "outputs": [],
      "payable": false,
      "stateMutability": "nonpayable",
      "type": "function"
    },
    {
      "constant": true,
      "inputs": [],
      "name": "getBlock",
      "outputs": [
        {
          "name": "",
          "type": "uint256"
        }
      ],
      "payable": false,
      "stateMutability": "view",
      "type": "function"
    },
    {
      "constant": true,
      "inputs": [
        {
          "name": "token",
          "type": "address"
        },
        {
          "name": "account",
          "type": "address"
        }
      ],
      "name": "getBalance",
      "outputs": [
        {
          "name": "",
          "type": "uint256"
        }
      ],
      "payable": false,
      "stateMutability": "view",
      "type": "function"
    },
    {
      "constant": true,
      "inputs": [
        {
          "name": "amount",
          "type": "uint256"
        },
        {
          "name": "gas",
          "type": "uint256"
        },
        {
          "name": "data",
          "type": "uint256"
        }
      ],
      "name": "getWithdrawDataHash",
      "outputs": [
        {
          "name": "",
          "type": "bytes32"
        }
      ],
      "payable": false,
      "stateMutability": "view",
      "type": "function"
    },
    {
      "constant": true,
      "inputs": [
        {
          "name": "amountSell",
          "type": "uint256"
        },
        {
          "name": "amountBuy",
          "type": "uint256"
        },
        {
          "name": "gasFee",
          "type": "uint256"
        },
        {
          "name": "data",
          "type": "uint256"
        }
      ],
      "name": "getOrderDataHash",
      "outputs": [
        {
          "name": "",
          "type": "bytes32"
        }
      ],
      "payable": false,
      "stateMutability": "view",
      "type": "function"
    },
    {
      "constant": true,
      "inputs": [
        {
          "name": "hash",
          "type": "bytes32"
        },
        {
          "name": "sender",
          "type": "address"
        },
        {
          "name": "v",
          "type": "uint8"
        },
        {
          "name": "r",
          "type": "bytes32"
        },
        {
          "name": "s",
          "type": "bytes32"
        }
      ],
      "name": "verify",
      "outputs": [
        {
          "name": "",
          "type": "bool"
        }
      ],
      "payable": false,
      "stateMutability": "pure",
      "type": "function"
    },
    {
      "constant": false,
      "inputs": [
        {
          "name": "tokenAddress",
          "type": "address"
        },
        {
          "name": "index",
          "type": "uint256"
        }
      ],
      "name": "registerToken",
      "outputs": [],
      "payable": false,
      "stateMutability": "nonpayable",
      "type": "function"
    },
    {
      "constant": false,
      "inputs": [
        {
          "name": "admin",
          "type": "address"
        },
        {
          "name": "isAdd",
          "type": "bool"
        }
      ],
      "name": "addToAdmin",
      "outputs": [],
      "payable": false,
      "stateMutability": "nonpayable",
      "type": "function"
    },
    {
      "constant": false,
      "inputs": [
        {
          "name": "inputs",
          "type": "uint256[]"
        }
      ],
      "name": "withdrawByAdmin",
      "outputs": [],
      "payable": false,
      "stateMutability": "nonpayable",
      "type": "function"
    },
    {
      "constant": false,
      "inputs": [
        {
          "name": "inputs",
          "type": "uint256[]"
        }
      ],
      "name": "matchByAdmin",
      "outputs": [],
      "payable": false,
      "stateMutability": "nonpayable",
      "type": "function"
    },
    {
      "constant": true,
      "inputs": [
        {
          "name": "gasFee",
          "type": "uint256"
        },
        {
          "name": "data",
          "type": "uint256"
        },
        {
          "name": "etherGet",
          "type": "uint256"
        },
        {
          "name": "orderHash",
          "type": "bytes32"
        },
        {
          "name": "isTaker",
          "type": "bool"
        }
      ],
      "name": "calculateJoyFee",
      "outputs": [
        {
          "name": "",
          "type": "uint256"
        }
      ],
      "payable": false,
      "stateMutability": "view",
      "type": "function"
    },
    {
      "constant": true,
      "inputs": [
        {
          "name": "gasFee",
          "type": "uint256"
        },
        {
          "name": "data",
          "type": "uint256"
        },
        {
          "name": "etherGet",
          "type": "uint256"
        },
        {
          "name": "orderHash",
          "type": "bytes32"
        },
        {
          "name": "isTaker",
          "type": "bool"
        }
      ],
      "name": "calculateEtherFee",
      "outputs": [
        {
          "name": "",
          "type": "uint256"
        }
      ],
      "payable": false,
      "stateMutability": "view",
      "type": "function"
    },
    {
      "constant": true,
      "inputs": [
        {
          "name": "amountSell",
          "type": "uint256"
        },
        {
          "name": "amountBuy",
          "type": "uint256"
        },
        {
          "name": "isBuy",
          "type": "uint256"
        },
        {
          "name": "tokenGet",
          "type": "uint256"
        }
      ],
      "name": "calculateEtherGet",
      "outputs": [
        {
          "name": "",
          "type": "uint256"
        }
      ],
      "payable": false,
      "stateMutability": "pure",
      "type": "function"
    },
    {
      "constant": true,
      "inputs": [
        {
          "name": "amountSell",
          "type": "uint256"
        },
        {
          "name": "amountBuy",
          "type": "uint256"
        },
        {
          "name": "_tokenExecute",
          "type": "uint256"
        },
        {
          "name": "isBuy",
          "type": "uint256"
        },
        {
          "name": "orderHash",
          "type": "bytes32"
        }
      ],
      "name": "calculateTokenGet",
      "outputs": [
        {
          "name": "",
          "type": "uint256"
        }
      ],
      "payable": false,
      "stateMutability": "view",
      "type": "function"
    }
  ],
  "bytecode": "0x6060604052620186a0600b5534156200001757600080fd5b60405160408062002845833981016040528080519190602001805160008054600160a060020a03338116600160a060020a031992831617909255600980549287169290911691909117905591506200007f905082640100000000620021e16200013e82021704565b600a8054600160a060020a0319908116600160a060020a03938416178083558316600090815260086020908152604082206001908190557f5eff886ea0ce6ca488a3d6e336d6c0f75f46d19b42c06ce5ee98e42c96d256c783905560069091527f54cdd369e4e8a8515e52ca72ec816c2101831ad1f18bf44102ed171459c9b4f880548416905592549290527f3e5fec24aa4dc4e5aee2e025e51e1392c72a2500577559fae9665c6d52bd6a31805492909316911617905550620001f0565b600160a060020a038116600090815260086020526040902054156200016357620001ed565b600c8054600101808255600160a060020a0383166000818152600860209081526040808320859055938252600790528290208054600160a060020a031916909117905590547fd75b88a9203b17f9356ca063241beac16a25d5a46f485b378c2c229e864bdd4d9183919051600160a060020a03909216825260208201526040908101905180910390a15b50565b61264580620002006000396000f3006060604052600436106101ea5763ffffffff60e060020a60003504166302ca599481146101ef57806307973ccf146102135780630f7c908514610238578063135a24741461025c57806319038b8d1461028b5780632204c37e146102da57806324d7806c146102f05780632e97766d14610323578063338b5dea146103365780633fd8b02f14610358578063415f47ea1461036b57806348761fb6146103815780635234305c146103d0578063560ebbd1146103fe5780635617a6e8146104145780635767b9ab146104335780635d3b00a5146104495780636fbd2160146104685780636ffb6e3314610487578063774bafdf1461049d57806378d65963146104b057806386c665b6146104c65780638da5cb5b146104e857806392d4d9ac146104fb578063934e16661461052957806398ea5fca1461053f578063a082588014610547578063a64968ac1461056b578063b20041f41461057e578063c23f001f146105b8578063c7caede4146105dd578063c9357a12146105f3578063d10df9c814610612578063d4fac45d14610636578063d95d42411461065b578063eb035fcb14610680578063f2fde38b146106a2578063f3fef3a3146106c1578063f7213db6146106e3578063f86f84d0146106f9578063f912ed0014610715578063fa76925714610728575b600080fd5b34156101fa57600080fd5b610211600160a060020a036004351660243561073e565b005b341561021e57600080fd5b6102266107f8565b60405190815260200160405180910390f35b341561024357600080fd5b610211600160a060020a036004351660243515156107fe565b341561026757600080fd5b61026f610869565b604051600160a060020a03909116815260200160405180910390f35b341561029657600080fd5b610211600460248135818101908301358060208181020160405190810160405280939291908181526020018383602002808284375094965061087895505050505050565b34156102e557600080fd5b610226600435610ceb565b34156102fb57600080fd5b61030f600160a060020a0360043516610d2b565b604051901515815260200160405180910390f35b341561032e57600080fd5b610226610d40565b341561034157600080fd5b610211600160a060020a0360043516602435610d44565b341561036357600080fd5b610226610ec2565b341561037657600080fd5b610226600435610ec8565b341561038c57600080fd5b6102116004602481358181019083013580602081810201604051908101604052809392919081815260200183836020028082843750949650610ed195505050505050565b34156103db57600080fd5b6103e66004356114a0565b60405191825260208201526040908101905180910390f35b341561040957600080fd5b61030f6004356114d9565b341561041f57600080fd5b610226600160a060020a03600435166114ee565b341561043e57600080fd5b610226600435611500565b341561045457600080fd5b610226600435602435604435606435611530565b341561047357600080fd5b610226600160a060020a036004351661157f565b341561049257600080fd5b610226600435611591565b34156104a857600080fd5b6102116115c9565b34156104bb57600080fd5b61022660043561162b565b34156104d157600080fd5b610226600435600160a060020a0360243516611650565b34156104f357600080fd5b61026f611676565b341561050657600080fd5b61030f600435600160a060020a036024351660ff60443516606435608435611685565b341561053457600080fd5b61026f6004356117b9565b6102116117d4565b341561055257600080fd5b6102266004356024356044356064356084351515611898565b341561057657600080fd5b61026f611932565b341561058957600080fd5b610594600435611941565b60405180848152602001838152602001828152602001935050505060405180910390f35b34156105c357600080fd5b610226600160a060020a0360043581169060243516611970565b34156105e857600080fd5b61022660043561198d565b34156105fe57600080fd5b6102266004356024356044356064356119ce565b341561061d57600080fd5b6102266004356024356044356064356084351515611a24565b341561064157600080fd5b610226600160a060020a0360043581169060243516611adf565b341561066657600080fd5b610226600435602435600160a060020a0360443516611b0a565b341561068b57600080fd5b610226600435602435604435606435608435611b32565b34156106ad57600080fd5b610211600160a060020a0360043516611b88565b34156106cc57600080fd5b610211600160a060020a0360043516602435611c23565b34156106ee57600080fd5b610226600435611e52565b341561070457600080fd5b610226600435602435604435611e64565b341561072057600080fd5b610211611eb0565b341561073357600080fd5b61026f600435611f2c565b60005433600160a060020a03908116911614806107735750600160a060020a03331660009081526005602052604090205460ff165b151561077e57600080fd5b6001811161078b57600080fd5b600160a060020a038216600090815260086020526040902054156107ae57600080fd5b600160a060020a0390911660008181526008602090815260408083208590559382526006905291909120805473ffffffffffffffffffffffffffffffffffffffff19169091179055565b600c5481565b60005433600160a060020a03908116911614806108335750600160a060020a03331660009081526005602052604090205460ff165b151561083e57600080fd5b600160a060020a03919091166000908152600560205260409020805460ff1916911515919091179055565b600954600160a060020a031681565b6000805481908190819081908190819033600160a060020a03908116911614806108ba5750600160a060020a03331660009081526005602052604090205460ff165b15156108c557600080fd5b6108e4886003815181106108d557fe5b906020019060200201516114a0565b9650965061096e886000815181106108f857fe5b906020019060200201518960018151811061090f57fe5b906020019060200201518a60028151811061092657fe5b906020019060200201516109698c60038151811061094057fe5b9060200190602002015160008d8152600660205260409020548c90600160a060020a0316611b0a565b6119ce565b6000818152600360205260409020549095501561098a57600080fd5b610a1d85600760006109b18c6003815181106109a257fe5b90602001906020020151610ec8565b8152602081019190915260400160002054600160a060020a03166109ea8b6003815181106109db57fe5b90602001906020020151611500565b8b6004815181106109f757fe5b906020019060200201518c600581518110610a0e57fe5b90602001906020020151611685565b1515610a2857600080fd5b60a060020a8614610a4f5787600081518110610a4057fe5b90602001906020020151610a67565b87600181518110610a5c57fe5b906020019060200201515b93506000925060a060020a86189550600691505b8751821015610c5857610ac0888381518110610a9357fe5b9060200190602002015189600081518110610aaa57fe5b906020019060200201519063ffffffff611f4716565b610ae9898460010181518110610ad257fe5b906020019060200201518a600181518110610aaa57fe5b1115610af457600080fd5b60008411610b0157600080fd5b610b5e888381518110610b1057fe5b90602001906020020151898460010181518110610b2957fe5b906020019060200201518a8560020181518110610b4257fe5b906020019060200201516109698c876003018151811061094057fe5b9050610bce8160076000610b7a8c87600301815181106109a257fe5b8152602081019190915260400160002054600160a060020a0316610ba68b60038701815181106109db57fe5b8b8660040181518110610bb557fe5b906020019060200201518c6005880181518110610a0e57fe5b1515610bd957600080fd5b610c47888381518110610be857fe5b90602001906020020151898460010181518110610c0157fe5b906020019060200201518a8560020181518110610c1a57fe5b906020019060200201518b8660030181518110610c3357fe5b9060200190602002015188888c8e89611f7d565b909450925060069190910190610a7b565b60a060020a958618958614610c9357610c8e8489600081518110610c7857fe5b906020019060200201519063ffffffff6120c216565b610ca4565b610ca48489600181518110610c7857fe5b9350610ce188600281518110610cb657fe5b9060200190602002015189600381518110610ccd57fe5b9060200190602002015186868a8c8b6120d4565b5050505050505050565b79ffffffffffffffffffffffffffffffffffffffffffffffffffff16600077ffffffffffffffffffffffffffffffffffffffffffffffff825b0492915050565b60056020526000908152604090205460ff1681565b4390565b600160a060020a0382166000908152600860205260409020541515610d6857600080fd5b610d71336121e1565b81600160a060020a03166323b872dd33308460006040516020015260405160e060020a63ffffffff8616028152600160a060020a0393841660048201529190921660248201526044810191909152606401602060405180830381600087803b1515610ddb57600080fd5b6102c65a03f11515610dec57600080fd5b505050604051805190501515610e0157600080fd5b600160a060020a0380831660009081526001602090815260408083203390941683529290522054610e38908263ffffffff61229e16565b600160a060020a038381166000908152600160209081526040808320339485168452909152908190208390557fdcbc1c05240f31ff3ad067ef1ee35ce4997762752e3a095284754544f4c709d79285929185919051600160a060020a0394851681529290931660208301526040808301919091526060820192909252608001905180910390a15050565b600b5481565b63ffffffff1690565b60008060008060008060008060008060009054906101000a9004600160a060020a0316600160a060020a031633600160a060020a03161480610f2b5750600160a060020a03331660009081526005602052604090205460ff165b1515610f3657600080fd5b610f468a6002815181106109db57fe5b9850610f678a600281518110610f5857fe5b90602001906020020151611941565b600082815260066020908152604080832054848452600790925290912054939b509199509750600160a060020a039081169650169350610fbd8a600281518110610fad57fe5b9060200190602002015186611650565b9250610ff68a600081518110610fcf57fe5b906020019060200201518b600181518110610fe657fe5b9060200190602002015185611e64565b60008181526004602052604090205490925060ff161561101557600080fd5b61103f82858b8d60038151811061102857fe5b906020019060200201518e600481518110610a0e57fe5b151561104a57600080fd5b50600060a060020a88141561106b5750600a54600160a060020a031661108b565b7402000000000000000000000000000000000000000088141561108b5750835b84600160a060020a031681600160a060020a0316141561119a576110e28a6001815181106110b557fe5b906020019060200201518b6000815181106110cc57fe5b906020019060200201519063ffffffff61229e16565b600160a060020a03808716600090815260016020908152604080832093891683529290522054101561111357600080fd5b61116f61113d8b60018151811061112657fe5b906020019060200201518c6000815181106110cc57fe5b600160a060020a038088166000908152600160209081526040808320938a16835292905220549063ffffffff6120c216565b600160a060020a03808716600090815260016020908152604080832093891683529290522055611314565b896000815181106111a757fe5b90602001906020020151600160a060020a0380871660009081526001602090815260408083209389168352929052205410156111e257600080fd5b896001815181106111ef57fe5b90602001906020020151600160a060020a03808316600090815260016020908152604080832093891683529290522054101561122a57600080fd5b6112768a60008151811061123a57fe5b90602001906020020151600160a060020a038088166000908152600160209081526040808320938a16835292905220549063ffffffff6120c216565b600160a060020a038087166000908152600160208181526040808420948a168452939052919020919091556112ed908b90815181106112b157fe5b90602001906020020151600160a060020a038084166000908152600160209081526040808320938a16835292905220549063ffffffff6120c216565b600160a060020a038083166000908152600160209081526040808320938916835292905220555b6113638a60018151811061132457fe5b90602001906020020151600160a060020a038084166000908152600160209081526040808320600954909416835292905220549063ffffffff61229e16565b600160a060020a0380831660009081526001602081815260408084206009548616855282528084209590955586835260049052929020805460ff1916909217909155851615156113fb5783600160a060020a03166108fc8b6000815181106113c757fe5b906020019060200201519081150290604051600060405180830381858888f1935050505015156113f657600080fd5b611494565b84600160a060020a031663a9059cbb858c60008151811061141857fe5b9060200190602002015160006040516020015260405160e060020a63ffffffff8516028152600160a060020a0390921660048301526024820152604401602060405180830381600087803b151561146e57600080fd5b6102c65a03f1151561147f57600080fd5b50505060405180519050151561149457600080fd5b50505050505050505050565b65ffffffffffff8082169167ffffffffffffffff160460008163ffffffff84048115156114d25780935060a060020a92505b5050915091565b60046020526000908152604090205460ff1681565b60026020526000908152604090205481565b600073f000000000000000000000000000000000000000821615156115275750601b61152b565b50601c5b919050565b600060a060020a83146115625761155d85611551848763ffffffff611f4716565b9063ffffffff6122ad16565b611576565b61157684611551848863ffffffff611f4716565b95945050505050565b60086020526000908152604090205481565b77ffffffffffffffffffffffffffffffffffffffffffffffff166000740fffffffffffffffffffffffffffffffffffffffff82610d24565b33600160a060020a0381166000908152600260205260408082208290557f625fed9875dada8643f2418b838ae0bc78d9a148a18eee4ee1979ff0f3f5d42792919051600160a060020a03909216825260208201526040908101905180910390a1565b60007bffffffffffffffffffffffffffffffffffffffffffffffffffffffff82610d24565b600160a060020a031673ffffffffffffffffffffffffffffffffffffffff199091161790565b600054600160a060020a031681565b600061168f6125e7565b6000806040805190810160405280601c81526020017f19457468657265756d205369676e6564204d6573736167653a0a333200000000815250925082896040518083805190602001908083835b602083106116fb5780518252601f1990920191602091820191016116dc565b6001836020036101000a03801982511681845116179092525050509190910192835250506020019050604051809103902091506001828888886040516000815260200160405260006040516020015260405193845260ff90921660208085019190915260408085019290925260608401929092526080909201915160208103908084039060008661646e5a03f1151561179357600080fd5b505060206040510351600160a060020a0390811698169790971498975050505050505050565b600760205260009081526040902054600160a060020a031681565b6117dd336121e1565b33600160a060020a031660009081526000805160206125fa8339815191526020526040902054611813903463ffffffff61229e16565b33600160a060020a03811660009081526000805160206125fa83398151915260205260408082208490557fdcbc1c05240f31ff3ad067ef1ee35ce4997762752e3a095284754544f4c709d793919291349151600160a060020a0394851681529290931660208301526040808301919091526060820192909252608001905180910390a1565b60008060006118a687611591565b156118b45760009250611927565b600085815260036020526040902054156118cf5760006118d1565b875b915083156118ff576118f86127106115516118eb8a61198d565b899063ffffffff611f4716565b9050611914565b6119116127106115516118eb8a610ceb565b90505b611924828263ffffffff61229e16565b92505b505095945050505050565b600a54600160a060020a031681565b740f000000000000000000000000000000000000000081169163ffffffff65ffffffffffff8316819004921690565b600160209081526000928352604080842090915290825290205481565b7bffffffffffffffffffffffffffffffffffffffffffffffffffffffff16600079ffffffffffffffffffffffffffffffffffffffffffffffffffff82610d24565b60003085858585604051600160a060020a03959095166c01000000000000000000000000028552601485019390935260348401919091526054830152607482015260940160405180910390209050949350505050565b6000806000806000611a3589611591565b93508315611acd5760008781526003602052604090205415611a58576000611a5a565b895b92508515611a8857611a81612710611551611a748c61198d565b8b9063ffffffff611f4716565b9150611a9d565b611a9a612710611551611a748c610ceb565b91505b611ab48461155184620186a063ffffffff6122ad16565b9050611ac6838263ffffffff61229e16565b9450611ad2565b600094505b5050505095945050505050565b600160a060020a03918216600090815260016020908152604080832093909416825291909152205490565b600160a060020a0316740fffffffffffffffffffffffffffffffffffffffff19909216171790565b60008060a060020a8414611b465786611b48565b855b600084815260036020526040902054909150611b6b90829063ffffffff6120c216565b905084811015611b7b5780611b7d565b845b979650505050505050565b60005433600160a060020a03908116911614611ba357600080fd5b600160a060020a0381161515611bb857600080fd5b600054600160a060020a0380831691167f8be0079c531659141344cd1fd0a4f28419497f9722a3daafe3b4186f6b6457e060405160405180910390a36000805473ffffffffffffffffffffffffffffffffffffffff1916600160a060020a0392909216919091179055565b600160a060020a033316600090815260026020526040902054611c44610d40565b118015611c685750600160a060020a03331660009081526002602052604090205415155b1515611c7357600080fd5b600160a060020a038083166000908152600160209081526040808320339094168352929052205481901015611ca757600080fd5b600160a060020a0380831660009081526001602090815260408083203390941683529290522054611cde908263ffffffff6120c216565b600160a060020a03808416600081815260016020908152604080832033909516835293905291909120919091551515611d4757600160a060020a03331681156108fc0282604051600060405180830381858888f193505050501515611d4257600080fd5b611dca565b81600160a060020a031663a9059cbb338360006040516020015260405160e060020a63ffffffff8516028152600160a060020a0390921660048301526024820152604401602060405180830381600087803b1515611da457600080fd5b6102c65a03f11515611db557600080fd5b505050604051805190501515611dca57600080fd5b600160a060020a03808316600090815260016020908152604080832033948516845290915290819020547ff341246adaac6f497bc2a656f546ab9e182111d630394f0c57c710a59a2cb5679285929091859151600160a060020a0394851681529290931660208301526040808301919091526060820192909252608001905180910390a15050565b60036020526000908152604090205481565b600030848484604051600160a060020a03949094166c01000000000000000000000000028452601484019290925260348301526054820152607401604051809103902090509392505050565b611eca600b54611ebe610d40565b9063ffffffff61229e16565b33600160a060020a038116600090815260026020526040908190208390557f625fed9875dada8643f2418b838ae0bc78d9a148a18eee4ee1979ff0f3f5d427929051600160a060020a03909216825260208201526040908101905180910390a1565b600660205260009081526040902054600160a060020a031681565b600080831515611f5a5760009150611f76565b50828202828482811515611f6a57fe5b0414611f7257fe5b8091505b5092915050565b600080600080600080611f938f8f8d8c8b611b32565b9350611fa18f8f8b87611530565b9250611fb18d8d858a6000611898565b9150611fc18d8d858a6000611a24565b9050611fd28c8a858786868e6122c4565b600087815260036020526040902054611ff1908563ffffffff61229e16565b60008881526003602052604090205561200c8b8b85876125b7565b90965094507f68a2060cb9c6465b0d477e93e1999840ef2aee8b5256c010ee78840d81aeda5d6007600061203f8f610ec8565b815260200190815260200160002060009054906101000a9004600160a060020a031684868c86866040518087600160a060020a0316600160a060020a03168152602001868152602001858152602001848152602001838152602001828152602001965050505050505060405180910390a150505050995099975050505050505050565b6000828211156120ce57fe5b50900390565b6000806120e5898988866001611898565b91506120f5898988866001611a24565b90506121068886888a86868a6122c4565b600083815260036020526040902054612125908863ffffffff61229e16565b6000848152600360205260408120919091557f68a2060cb9c6465b0d477e93e1999840ef2aee8b5256c010ee78840d81aeda5d906007906121658b610ec8565b815260200190815260200160002060009054906101000a9004600160a060020a031687898886866040518087600160a060020a0316600160a060020a03168152602001868152602001858152602001848152602001838152602001828152602001965050505050505060405180910390a1505050505050505050565b600160a060020a038116600090815260086020526040902054156122045761229b565b600c8054600101808255600160a060020a038316600081815260086020908152604080832085905593825260079052829020805473ffffffffffffffffffffffffffffffffffffffff1916909117905590547fd75b88a9203b17f9356ca063241beac16a25d5a46f485b378c2c229e864bdd4d9183919051600160a060020a03909216825260208201526040908101905180910390a15b50565b600082820183811015611f7257fe5b60008082848115156122bb57fe5b04949350505050565b600080600760006122d48b610ec8565b8152602080820192909252604090810160009081205486825260069093522054600160a060020a03918216935016905060a060020a8814156123d357600160a060020a03821660009081526000805160206125fa833981519152602052604090205461235890869061234c908a63ffffffff6120c216565b9063ffffffff6120c216565b600160a060020a0383811660008181526000805160206125fa8339815191526020908152604080832095909555928516815260018352838120918152915220546123a8908763ffffffff61229e16565b600160a060020a03808316600090815260016020908152604080832093871683529290522055612486565b600160a060020a03821660009081526000805160206125fa833981519152602052604090205461240f90869061234c908a63ffffffff61229e16565b600160a060020a0383811660008181526000805160206125fa83398151915260209081526040808320959095559285168152600183528381209181529152205461245f908763ffffffff6120c216565b600160a060020a038083166000908152600160209081526040808320938716835292905220555b831561254b57600a54600160a060020a039081166000908152600160209081526040808320938616835292905220546124c5908563ffffffff6120c216565b600a8054600160a060020a0390811660009081526001602081815260408084208986168552825280842096909655935483168252835283812060095490921681529152205461251a908563ffffffff61229e16565b600a54600160a060020a039081166000908152600160209081526040808320600954909416835292905220556125ac565b600954600160a060020a031660009081526000805160206125fa8339815191526020526040902054612583908663ffffffff61229e16565b600954600160a060020a031660009081526000805160206125fa83398151915260205260409020555b505050505050505050565b6000806125ca868463ffffffff6120c216565b91506125dc858563ffffffff61229e16565b905094509492505050565b602060405190810160405260008152905600a6eef7e35abe7026729641147f7915573c7e97b47efa546f5f6e3230263bcb49a165627a7a723058203036e2c3d3484175df7e1bf8fff43d087b1c3a49c163428905b040652ff9cf090029",
  "source": "pragma solidity ^0.4.17;\n\nimport \"./libs/SafeMath.sol\";\nimport \"./libs/Ownable.sol\";\nimport \"./JoysoDataDecoder.sol\";\nimport {ERC20 as Token} from \"./libs/ERC20.sol\";\n\ncontract Joyso is Ownable, JoysoDataDecoder {\n    using SafeMath for uint256;\n\n    uint256 constant PAY_BY_TOKEN = 0x0000000000000000000000020000000000000000000000000000000000000000;\n    uint256 constant PAY_BY_JOY = 0x0000000000000000000000010000000000000000000000000000000000000000;\n    uint256 constant PAY_BY_ETHER = 0x0000000000000000000000000000000000000000000000000000000000000000;\n    uint256 constant ORDER_ISBUY = 0x0000000000000000000000010000000000000000000000000000000000000000;\n\n    mapping (address => mapping (address => uint256)) public balances;\n    mapping (address => uint256) public userLock;\n    mapping (bytes32 => uint256) public orderFills;\n    mapping (bytes32 => bool) public usedHash;\n    mapping (address => bool) public isAdmin;\n    mapping (uint256 => address) public tokenId2Address;\n    mapping (uint256 => address) public userId2Address;\n    mapping (address => uint256) public address2Id;\n\n    address public joysoWallet;\n    address public joyToken;\n    uint256 public lockPeriod = 100000;\n    uint256 public userCount;\n\n    modifier onlyAdmin {\n        require(msg.sender == owner || isAdmin[msg.sender]);\n        _;\n    }\n\n    //events\n    event Deposit (address token, address user, uint256 amount, uint256 balance);\n    event Withdraw(address token, address user, uint256 amount, uint256 balance);\n    event NewUser (address user, uint256 id);\n    event Lock (address user, uint256 timeLock);\n\n    function Joyso (address _joysoWallet, address _joyToken) public {\n        joysoWallet = _joysoWallet;\n        addUser(_joysoWallet);\n        joyToken = _joyToken;\n        address2Id[joyToken] = 1;\n        address2Id[0] = 0; // ether address is Id 0\n        tokenId2Address[0] = 0;\n        tokenId2Address[1] = joyToken;\n    }\n\n    /** Deposit allow user to store the funds in Joyso contract.\n      * It is more convenient to transfer funds or to trade in contract.\n      * Besure to approve the contract to move your erc20 token if depositToken.\n      */\n    function depositToken (address token, uint256 amount) public {\n        require(address2Id[token] != 0);\n        addUser(msg.sender);\n        require(Token(token).transferFrom(msg.sender, this, amount));\n        balances[token][msg.sender] = balances[token][msg.sender].add(amount);\n        Deposit(token, msg.sender, amount, balances[token][msg.sender]);\n    }\n\n    function depositEther () public payable {\n        addUser(msg.sender);\n        balances[0][msg.sender] = balances[0][msg.sender].add(msg.value);\n        Deposit(0, msg.sender, msg.value, balances[0][msg.sender]);\n    }\n\n    function withdraw (address token, uint256 amount) public {\n        require(getBlock() > userLock[msg.sender] && userLock[msg.sender] != 0);\n        require(balances[token][msg.sender] >= amount);\n        balances[token][msg.sender] = balances[token][msg.sender].sub(amount);\n        if(token == 0) {\n            msg.sender.transfer(amount);\n        } else {\n            require(Token(token).transfer(msg.sender, amount));\n        }\n        Withdraw(token, msg.sender, amount, balances[token][msg.sender]);\n    }\n\n    function lockMe () public {\n        userLock[msg.sender] = getBlock().add(lockPeriod);\n        Lock (msg.sender, userLock[msg.sender]);\n    }\n\n    function unlockMe () public {\n        userLock[msg.sender] = 0;\n        Lock (msg.sender, userLock[msg.sender]);\n    }\n\n    // -------------------------------------------- helper functions\n    function getBlock () public view returns (uint256) {\n        return block.number;\n    }\n\n    function getBalance (address token, address account) public view returns (uint256) {\n        return balances[token][account];\n    }\n\n    function getWithdrawDataHash (uint256 amount, uint256 gas, uint256 data) public view returns (bytes32) {\n        return keccak256(this, amount, gas, data);\n    }\n\n    function getOrderDataHash (uint256 amountSell, uint256 amountBuy, uint256 gasFee, uint256 data) public view returns (bytes32) {\n        return keccak256(this, amountSell, amountBuy, gasFee, data);\n    }\n\n    function verify (bytes32 hash, address sender, uint8 v, bytes32 r, bytes32 s) public pure returns (bool) {\n        bytes memory prefix = \"\\x19Ethereum Signed Message:\\n32\";\n        bytes32 prefixedHash = keccak256(prefix, hash);\n        address signer = ecrecover(prefixedHash, v, r, s);\n        return signer == sender;\n    }\n\n    // -------------------------------------------- only admin \n    function registerToken (address tokenAddress, uint256 index) public onlyAdmin {\n        require (index > 1);\n        require (address2Id[tokenAddress] == 0);\n        address2Id[tokenAddress] = index;\n        tokenId2Address[index] = tokenAddress;\n    }\n\n    function addToAdmin (address admin, bool isAdd) onlyAdmin public {\n        isAdmin[admin] = isAdd;\n    }\n\n    function withdrawByAdmin (uint256[] inputs) onlyAdmin public {\n        /**\n            inputs[0] (uint256) amount;\n            inputs[1] (uint256) gasFee;\n            inputs[2] (uint256) dataV\n            inputs[3] (bytes32) r\n            inputs[4] (bytes32) s\n            -----------------------------------\n            dataV[0 .. 7] (uint256) nonce --> doesnt used when withdraw\n            dataV[23..23] (uint256) paymentMethod --> 0: ether, 1: JOY, 2: token\n            dataV[24..24] (uint256) v --> should be uint8 when used\n            dataV[52..55] (uint256) tokenId\n            dataV[56..63] (uint256) userId\n            -----------------------------------\n            user withdraw singature (uint256)\n            (this.address, amount, gasFee, data)\n            -----------------------------------\n            data [0 .. 7] (uint256) nonce --> does not used when withdraw\n            data [23..23] (uint256) paymentMethod\n            data [24..63] (address) tokenAddress\n         */\n        uint256 v_256 = retrieveV(inputs[2]);\n        var (paymentMethod, tokenId, userId) = decodeWithdrawData(inputs[2]);\n        address token = tokenId2Address[tokenId];\n        address user = userId2Address[userId];\n        uint256 data = genUserSignedWithdrawData(inputs[2], token);\n\n        bytes32 hash = getWithdrawDataHash(inputs[0], inputs[1], data);\n        require (!usedHash[hash]);\n        require (verify(hash, user, (uint8)(v_256), (bytes32)(inputs[3]), (bytes32)(inputs[4])));\n\n        address gasToken = 0;\n        if (paymentMethod == PAY_BY_JOY) { // pay fee by JOY\n            gasToken = joyToken;\n        } else if (paymentMethod == PAY_BY_TOKEN) { // pay fee by tx token\n            gasToken = token;\n        }\n\n        if (gasToken == token) { // pay by ether or token\n            require (balances[token][user] >= inputs[0].add(inputs[1]));\n            balances[token][user] = balances[token][user].sub(inputs[0].add(inputs[1]));\n        } else {\n            require (balances[token][user] >= inputs[0]);\n            require (balances[gasToken][user] >= inputs[1]);\n            balances[token][user] = balances[token][user].sub(inputs[0]);\n            balances[gasToken][user] = balances[gasToken][user].sub(inputs[1]);\n        }\n        balances[gasToken][joysoWallet] = balances[gasToken][joysoWallet].add(inputs[1]);\n\n        usedHash[hash] = true;\n\n        if (token == 0) {\n            user.transfer(inputs[0]);\n        } else {\n            require(Token(token).transfer(user, inputs[0]));\n        }\n    }\n\n    event TradeScuess(address user, uint256 etherGet, uint256 tokenGet, uint256 isBuy, uint256 etherFee, uint256 joyFee);\n    function matchByAdmin (uint256[] inputs) onlyAdmin public {\n        /**\n            inputs[6*i .. (6*i+5)] order i, order1 is taker, other orders are maker  \n            inputs[6i] (uint256) amountSell\n            inputs[6i+1] (uint256) amountBuy\n            inputs[6i+2] (uint256) gasFee\n            inputs[6i+3] (uint256) dataV\n            inputs[6i+4] (bytes32) r\n            inputs[6i+5] (bytes32) s\n            -----------------------------------\n            dataV[0 .. 7] (uint256) nonce \n            dataV[8 ..11] (uint256) takerFee\n            dataV[12..15] (uint256) makerFee\n            dataV[16..22] (uint256) joyPrice --> 0: pay ether, others: pay joy Token\n            dataV[23..23] (uint256) isBuy --> always 0, should be modified in contract\n            dataV[24..24] (uint256) v --> should be uint8 when used, 0: 27, 1: 28\n            dataV[49..51] (uint256) tokenSellId\n            dataV[52..55] (uint256) tokenBuyId\n            dataV[56..63] (uint256) userId\n            -----------------------------------\n            user order singature (uint256)\n            (this.address, amountSell, amountBuy, gasFee, data)\n            -----------------------------------\n            data [0 .. 7] (uint256) nonce \n            data [8 ..11] (uint256) takerFee\n            data [12..15] (uint256) makerFee\n            data [16..22] (uint256) joyPrice --> 0: pay ether, others: pay joy Token\n            data [23..23] (uint256) isBuy --> always 0, should be modified in contract\n            data [24..63] (address) tokenAddress\n        */\n        var (tokenId, isBuy) = decodeOrderTokenIdAndIsBuy(inputs[3]);\n        bytes32 orderHash = getOrderDataHash(inputs[0], inputs[1], inputs[2], genUserSignedOrderData(inputs[3], isBuy, tokenId2Address[tokenId]));\n        // TODO: should check the nonce here\n        require (orderFills[orderHash] == 0);\n        require (verify(orderHash, userId2Address[decodeOrderUserId(inputs[3])], (uint8)(retrieveV(inputs[3])), (bytes32)(inputs[4]), (bytes32)(inputs[5])));\n\n        uint256 tokenExecute = isBuy == ORDER_ISBUY ? inputs[1] : inputs[0]; // taker order token execute\n        uint256 etherExecute = 0;  // taker order ether execute\n        \n        isBuy = isBuy ^ ORDER_ISBUY;\n        for (uint256 i = 6; i < inputs.length; i+=6) {\n            // maker price should lower than taker price\n            require (inputs[1].mul(inputs[i+1]) <= inputs[0].mul(inputs[i]));     \n            require (tokenExecute > 0);\n            bytes32 makerOrderHash = getOrderDataHash(inputs[i], inputs[i+1], inputs[i+2], genUserSignedOrderData(inputs[i+3], isBuy, tokenId2Address[tokenId]));\n            require (verify(makerOrderHash, userId2Address[decodeOrderUserId(inputs[i+3])], (uint8)(retrieveV(inputs[i+3])), (bytes32)(inputs[i+4]), (bytes32)(inputs[i+5])));\n            (tokenExecute, etherExecute) = internalTrade(inputs[i], inputs[i+1], inputs[i+2], inputs[i+3], tokenExecute, etherExecute, isBuy, tokenId, makerOrderHash);\n        }\n\n        isBuy = isBuy ^ ORDER_ISBUY;\n        tokenExecute = isBuy == ORDER_ISBUY ? inputs[1].sub(tokenExecute) : inputs[0].sub(tokenExecute);\n        processTakerOrder(inputs[2], inputs[3], tokenExecute, etherExecute, isBuy, tokenId, orderHash);\n    }\n\n    // -------------------------------------------- internal/private function\n    function addUser (address _address) internal {\n        if (address2Id[_address] != 0) {\n            return;\n        }\n        userCount += 1;\n        address2Id[_address] = userCount;\n        userId2Address[userCount] = _address;\n        NewUser(_address, userCount);\n    }\n\n    function processTakerOrder (uint256 gasFee, uint256 data, uint256 tokenExecute, uint256 etherExecute, uint256 isBuy, uint256 tokenId, bytes32 orderHash) \n        internal\n    {\n        uint256 etherFee = calculateEtherFee(gasFee, data, etherExecute, orderHash, true);\n        uint256 joyFee = calculateJoyFee(gasFee, data, etherExecute, orderHash, true);\n        updateUserBalance(data, isBuy, etherExecute, tokenExecute, etherFee, joyFee, tokenId);\n        orderFills[orderHash] = orderFills[orderHash].add(tokenExecute);\n        TradeScuess(userId2Address[decodeOrderUserId(data)], etherExecute, tokenExecute, isBuy, etherFee, joyFee);\n    }\n\n    function internalTrade (uint256 amountSell, uint256 amountBuy, uint256 gasFee, uint256 data, uint256 _tokenExecute, uint256 _etherExecute, uint256 isBuy, uint256 tokenId, bytes32 orderHash) \n        internal returns (uint256 tokenExecute, uint256 etherExecute) \n    {\n        uint256 tokenGet = calculateTokenGet(amountSell, amountBuy, _tokenExecute, isBuy, orderHash);\n        uint256 etherGet = calculateEtherGet(amountSell, amountBuy, isBuy, tokenGet);\n        uint256 etherFee = calculateEtherFee(gasFee, data, etherGet, orderHash, false);\n        uint256 joyFee = calculateJoyFee(gasFee, data, etherGet, orderHash, false);\n        updateUserBalance(data, isBuy, etherGet, tokenGet, etherFee, joyFee, tokenId);\n        orderFills[orderHash] = orderFills[orderHash].add(tokenGet);\n        (tokenExecute, etherExecute) = updateTradeAmount(_tokenExecute, _etherExecute, etherGet, tokenGet);\n        TradeScuess(userId2Address[decodeOrderUserId(data)], etherGet, tokenGet, isBuy, etherFee, joyFee);\n    }\n\n    function updateTradeAmount (uint256 _tokenExecute, uint256 _etherExecute, uint256 etherGet, uint256 tokenGet) \n        internal pure returns (uint256 tokenExecute, uint256 etherExecute) \n    {\n        tokenExecute = _tokenExecute.sub(tokenGet);\n        etherExecute = _etherExecute.add(etherGet);\n    }\n\n    function updateUserBalance (uint256 data, uint256 isBuy, uint256 etherGet, uint256 tokenGet, uint256 etherFee, uint256 joyFee, uint256 tokenId) internal {\n        address user = userId2Address[decodeOrderUserId(data)];\n        address token = tokenId2Address[tokenId];\n        if (isBuy == ORDER_ISBUY) { // buy token, sell ether\n            balances[0][user] = balances[0][user].sub(etherGet).sub(etherFee);\n            balances[token][user] = balances[token][user].add(tokenGet);\n        } else {\n            balances[0][user] = balances[0][user].add(etherGet).sub(etherFee);\n            balances[token][user] = balances[token][user].sub(tokenGet);\n        }\n\n        if(joyFee != 0) {\n            balances[joyToken][user] = balances[joyToken][user].sub(joyFee);\n            balances[joyToken][joysoWallet] = balances[joyToken][joysoWallet].add(joyFee);\n        } else { \n            balances[0][joysoWallet] = balances[0][joysoWallet].add(etherFee);\n        }\n    }\n\n    function calculateJoyFee (uint256 gasFee, uint256 data, uint256 etherGet, bytes32 orderHash, bool isTaker) \n        public view returns (uint256) {\n        uint256 joyPrice = decodeOrderJoyPrice(data);\n        if (joyPrice != 0) {\n            uint256 joyFee = orderFills[orderHash] == 0 ? gasFee : 0;\n            uint256 txFee;\n            if (isTaker) {\n                txFee = etherGet.mul(decodeOrderTakerFee(data)).div(10000);\n            } else {\n                txFee = etherGet.mul(decodeOrderMakerFee(data)).div(10000);\n            }\n            //uint256 txFee = isTaker ? etherGet.mul(decodeOrderTakerFee(data)).div(10000) : etherGet.mul(decodeOrderMakerFee(data)).div(10000);\n            uint256 toJoy = txFee.div(10 ** 5).div(joyPrice);\n            return joyFee.add(toJoy);\n        } else { \n            return 0;\n        }\n    }\n\n    function calculateEtherFee (uint256 gasFee, uint256 data, uint256 etherGet, bytes32 orderHash, bool isTaker) public view returns (uint256) {\n        if (decodeOrderJoyPrice(data) != 0) {\n            return 0;\n        } else {\n            uint256 etherFee = orderFills[orderHash] == 0 ? gasFee : 0;\n            uint256 txFee;\n            if (isTaker) {\n                txFee = etherGet.mul(decodeOrderTakerFee(data)).div(10000);\n            } else {\n                txFee = etherGet.mul(decodeOrderMakerFee(data)).div(10000);\n            }\n            //uint256 txFee = isTaker ? etherGet.mul(decodeOrderTakerFee(data)).div(10000) : etherGet.mul(decodeOrderMakerFee(data)).div(10000);\n            return etherFee.add(txFee);\n        }\n    }\n\n    function calculateEtherGet (uint256 amountSell, uint256 amountBuy, uint256 isBuy, uint256 tokenGet) public pure returns (uint256) {\n        return isBuy == ORDER_ISBUY ? tokenGet.mul(amountSell).div(amountBuy): tokenGet.mul(amountBuy).div(amountSell) ;\n    }\n\n    function calculateTokenGet (uint256 amountSell, uint256 amountBuy, uint256 _tokenExecute, uint256 isBuy, bytes32 orderHash) public view returns (uint256) {\n        uint256 tradeTokenAmount = isBuy == ORDER_ISBUY ? amountBuy : amountSell;\n        tradeTokenAmount = tradeTokenAmount.sub(orderFills[orderHash]);\n        return tradeTokenAmount >= _tokenExecute ? _tokenExecute : tradeTokenAmount;\n    }\n}\n\n",
  "sourcePath": "/Users/will/Work/joyso-contracts/contracts/Joyso.sol",
  "compiler": {
    "name": "solc",
    "version": "0.4.19+commit.c4cbbb05.Emscripten.clang"
  },
  "schemaVersion": "1.0.1",
  "updatedAt": "2018-02-23T03:13:59.572Z"
}