{
  "contractName": "Joyso",
  "abi": [
    {
      "constant": false,
      "inputs": [
        {
          "name": "tokenAddress",
          "type": "address"
        },
        {
          "name": "index",
          "type": "uint256"
        }
      ],
      "name": "registerToken",
      "outputs": [],
      "payable": false,
      "stateMutability": "nonpayable",
      "type": "function"
    },
    {
      "constant": true,
      "inputs": [],
      "name": "userCount",
      "outputs": [
        {
          "name": "",
          "type": "uint256"
        }
      ],
      "payable": false,
      "stateMutability": "view",
      "type": "function"
    },
    {
      "constant": false,
      "inputs": [],
      "name": "unlockme",
      "outputs": [],
      "payable": false,
      "stateMutability": "nonpayable",
      "type": "function"
    },
    {
      "constant": false,
      "inputs": [
        {
          "name": "admin",
          "type": "address"
        },
        {
          "name": "isAdd",
          "type": "bool"
        }
      ],
      "name": "addToAdmin",
      "outputs": [],
      "payable": false,
      "stateMutability": "nonpayable",
      "type": "function"
    },
    {
      "constant": true,
      "inputs": [],
      "name": "joysoWallet",
      "outputs": [
        {
          "name": "",
          "type": "address"
        }
      ],
      "payable": false,
      "stateMutability": "view",
      "type": "function"
    },
    {
      "constant": false,
      "inputs": [
        {
          "name": "inputs",
          "type": "uint256[]"
        }
      ],
      "name": "matchByAdmin",
      "outputs": [],
      "payable": false,
      "stateMutability": "nonpayable",
      "type": "function"
    },
    {
      "constant": true,
      "inputs": [
        {
          "name": "data",
          "type": "uint256"
        }
      ],
      "name": "decodeOrderMakerFee",
      "outputs": [
        {
          "name": "makerFee",
          "type": "uint256"
        }
      ],
      "payable": false,
      "stateMutability": "pure",
      "type": "function"
    },
    {
      "constant": true,
      "inputs": [
        {
          "name": "",
          "type": "address"
        }
      ],
      "name": "isAdmin",
      "outputs": [
        {
          "name": "",
          "type": "bool"
        }
      ],
      "payable": false,
      "stateMutability": "view",
      "type": "function"
    },
    {
      "constant": false,
      "inputs": [
        {
          "name": "token",
          "type": "address"
        },
        {
          "name": "amount",
          "type": "uint256"
        }
      ],
      "name": "depositToken",
      "outputs": [],
      "payable": false,
      "stateMutability": "nonpayable",
      "type": "function"
    },
    {
      "constant": true,
      "inputs": [
        {
          "name": "_data",
          "type": "uint256"
        }
      ],
      "name": "decodeData4",
      "outputs": [
        {
          "name": "timeStamp",
          "type": "uint256"
        },
        {
          "name": "paymentMethod",
          "type": "uint256"
        },
        {
          "name": "userAddress",
          "type": "address"
        }
      ],
      "payable": false,
      "stateMutability": "pure",
      "type": "function"
    },
    {
      "constant": true,
      "inputs": [],
      "name": "lockPeriod",
      "outputs": [
        {
          "name": "",
          "type": "uint256"
        }
      ],
      "payable": false,
      "stateMutability": "view",
      "type": "function"
    },
    {
      "constant": true,
      "inputs": [
        {
          "name": "data",
          "type": "uint256"
        }
      ],
      "name": "decodeOrderUserId",
      "outputs": [
        {
          "name": "userId",
          "type": "uint256"
        }
      ],
      "payable": false,
      "stateMutability": "pure",
      "type": "function"
    },
    {
      "constant": false,
      "inputs": [
        {
          "name": "inputs",
          "type": "uint256[]"
        }
      ],
      "name": "withdrawByAdmin",
      "outputs": [],
      "payable": false,
      "stateMutability": "nonpayable",
      "type": "function"
    },
    {
      "constant": true,
      "inputs": [
        {
          "name": "data",
          "type": "uint256"
        }
      ],
      "name": "decodeOrderTokenIdAndIsBuy",
      "outputs": [
        {
          "name": "tokenId",
          "type": "uint256"
        },
        {
          "name": "isBuy",
          "type": "uint256"
        }
      ],
      "payable": false,
      "stateMutability": "pure",
      "type": "function"
    },
    {
      "constant": true,
      "inputs": [
        {
          "name": "",
          "type": "bytes32"
        }
      ],
      "name": "usedHash",
      "outputs": [
        {
          "name": "",
          "type": "bool"
        }
      ],
      "payable": false,
      "stateMutability": "view",
      "type": "function"
    },
    {
      "constant": true,
      "inputs": [
        {
          "name": "",
          "type": "address"
        }
      ],
      "name": "userLock",
      "outputs": [
        {
          "name": "",
          "type": "uint256"
        }
      ],
      "payable": false,
      "stateMutability": "view",
      "type": "function"
    },
    {
      "constant": true,
      "inputs": [
        {
          "name": "_data",
          "type": "uint256"
        }
      ],
      "name": "retrieveV",
      "outputs": [
        {
          "name": "v",
          "type": "uint256"
        }
      ],
      "payable": false,
      "stateMutability": "pure",
      "type": "function"
    },
    {
      "constant": true,
      "inputs": [
        {
          "name": "amountSell",
          "type": "uint256"
        },
        {
          "name": "amountBuy",
          "type": "uint256"
        },
        {
          "name": "isBuy",
          "type": "uint256"
        },
        {
          "name": "tokenGet",
          "type": "uint256"
        }
      ],
      "name": "calculateEtherGet",
      "outputs": [
        {
          "name": "",
          "type": "uint256"
        }
      ],
      "payable": false,
      "stateMutability": "pure",
      "type": "function"
    },
    {
      "constant": true,
      "inputs": [
        {
          "name": "",
          "type": "address"
        }
      ],
      "name": "address2Id",
      "outputs": [
        {
          "name": "",
          "type": "uint256"
        }
      ],
      "payable": false,
      "stateMutability": "view",
      "type": "function"
    },
    {
      "constant": true,
      "inputs": [
        {
          "name": "data",
          "type": "uint256"
        }
      ],
      "name": "decodeOrderJoyPrice",
      "outputs": [
        {
          "name": "joyPrice",
          "type": "uint256"
        }
      ],
      "payable": false,
      "stateMutability": "pure",
      "type": "function"
    },
    {
      "constant": true,
      "inputs": [
        {
          "name": "data",
          "type": "uint256"
        }
      ],
      "name": "decodeOrderNonce",
      "outputs": [
        {
          "name": "nonce",
          "type": "uint256"
        }
      ],
      "payable": false,
      "stateMutability": "pure",
      "type": "function"
    },
    {
      "constant": true,
      "inputs": [
        {
          "name": "_data",
          "type": "uint256"
        },
        {
          "name": "_address",
          "type": "address"
        }
      ],
      "name": "genUserSignedWithdrawData",
      "outputs": [
        {
          "name": "data",
          "type": "uint256"
        }
      ],
      "payable": false,
      "stateMutability": "pure",
      "type": "function"
    },
    {
      "constant": true,
      "inputs": [],
      "name": "owner",
      "outputs": [
        {
          "name": "",
          "type": "address"
        }
      ],
      "payable": false,
      "stateMutability": "view",
      "type": "function"
    },
    {
      "constant": true,
      "inputs": [
        {
          "name": "hash",
          "type": "bytes32"
        },
        {
          "name": "sender",
          "type": "address"
        },
        {
          "name": "v",
          "type": "uint8"
        },
        {
          "name": "r",
          "type": "bytes32"
        },
        {
          "name": "s",
          "type": "bytes32"
        }
      ],
      "name": "verify",
      "outputs": [
        {
          "name": "",
          "type": "bool"
        }
      ],
      "payable": false,
      "stateMutability": "pure",
      "type": "function"
    },
    {
      "constant": true,
      "inputs": [
        {
          "name": "",
          "type": "uint256"
        }
      ],
      "name": "userId2Address",
      "outputs": [
        {
          "name": "",
          "type": "address"
        }
      ],
      "payable": false,
      "stateMutability": "view",
      "type": "function"
    },
    {
      "constant": false,
      "inputs": [],
      "name": "depositEther",
      "outputs": [],
      "payable": true,
      "stateMutability": "payable",
      "type": "function"
    },
    {
      "constant": true,
      "inputs": [
        {
          "name": "gasFee",
          "type": "uint256"
        },
        {
          "name": "data",
          "type": "uint256"
        },
        {
          "name": "etherGet",
          "type": "uint256"
        },
        {
          "name": "orderHash",
          "type": "bytes32"
        },
        {
          "name": "isTaker",
          "type": "bool"
        }
      ],
      "name": "calculateEtherFee",
      "outputs": [
        {
          "name": "",
          "type": "uint256"
        }
      ],
      "payable": false,
      "stateMutability": "view",
      "type": "function"
    },
    {
      "constant": true,
      "inputs": [],
      "name": "joyToken",
      "outputs": [
        {
          "name": "",
          "type": "address"
        }
      ],
      "payable": false,
      "stateMutability": "view",
      "type": "function"
    },
    {
      "constant": true,
      "inputs": [
        {
          "name": "_data",
          "type": "uint256"
        }
      ],
      "name": "decodeWithdrawData",
      "outputs": [
        {
          "name": "paymentMethod",
          "type": "uint256"
        },
        {
          "name": "tokenID",
          "type": "uint256"
        },
        {
          "name": "userID",
          "type": "uint256"
        }
      ],
      "payable": false,
      "stateMutability": "pure",
      "type": "function"
    },
    {
      "constant": true,
      "inputs": [
        {
          "name": "",
          "type": "address"
        },
        {
          "name": "",
          "type": "address"
        }
      ],
      "name": "balances",
      "outputs": [
        {
          "name": "",
          "type": "uint256"
        }
      ],
      "payable": false,
      "stateMutability": "view",
      "type": "function"
    },
    {
      "constant": true,
      "inputs": [
        {
          "name": "data",
          "type": "uint256"
        }
      ],
      "name": "decodeOrderTakerFee",
      "outputs": [
        {
          "name": "takerFee",
          "type": "uint256"
        }
      ],
      "payable": false,
      "stateMutability": "pure",
      "type": "function"
    },
    {
      "constant": true,
      "inputs": [
        {
          "name": "amountSell",
          "type": "uint256"
        },
        {
          "name": "amountBuy",
          "type": "uint256"
        },
        {
          "name": "gasFee",
          "type": "uint256"
        },
        {
          "name": "data",
          "type": "uint256"
        }
      ],
      "name": "getOrderDataHash",
      "outputs": [
        {
          "name": "",
          "type": "bytes32"
        }
      ],
      "payable": false,
      "stateMutability": "view",
      "type": "function"
    },
    {
      "constant": true,
      "inputs": [
        {
          "name": "gasFee",
          "type": "uint256"
        },
        {
          "name": "data",
          "type": "uint256"
        },
        {
          "name": "etherGet",
          "type": "uint256"
        },
        {
          "name": "orderHash",
          "type": "bytes32"
        },
        {
          "name": "isTaker",
          "type": "bool"
        }
      ],
      "name": "calculateJoyFee",
      "outputs": [
        {
          "name": "",
          "type": "uint256"
        }
      ],
      "payable": false,
      "stateMutability": "view",
      "type": "function"
    },
    {
      "constant": true,
      "inputs": [
        {
          "name": "token",
          "type": "address"
        },
        {
          "name": "account",
          "type": "address"
        }
      ],
      "name": "getBalance",
      "outputs": [
        {
          "name": "",
          "type": "uint256"
        }
      ],
      "payable": false,
      "stateMutability": "view",
      "type": "function"
    },
    {
      "constant": true,
      "inputs": [
        {
          "name": "_data",
          "type": "uint256"
        },
        {
          "name": "_isBuy",
          "type": "uint256"
        },
        {
          "name": "_address",
          "type": "address"
        }
      ],
      "name": "genUserSignedOrderData",
      "outputs": [
        {
          "name": "data",
          "type": "uint256"
        }
      ],
      "payable": false,
      "stateMutability": "pure",
      "type": "function"
    },
    {
      "constant": true,
      "inputs": [
        {
          "name": "amountSell",
          "type": "uint256"
        },
        {
          "name": "amountBuy",
          "type": "uint256"
        },
        {
          "name": "_tokenExecute",
          "type": "uint256"
        },
        {
          "name": "isBuy",
          "type": "uint256"
        },
        {
          "name": "orderHash",
          "type": "bytes32"
        }
      ],
      "name": "calculateTokenGet",
      "outputs": [
        {
          "name": "",
          "type": "uint256"
        }
      ],
      "payable": false,
      "stateMutability": "view",
      "type": "function"
    },
    {
      "constant": false,
      "inputs": [
        {
          "name": "newOwner",
          "type": "address"
        }
      ],
      "name": "transferOwnership",
      "outputs": [],
      "payable": false,
      "stateMutability": "nonpayable",
      "type": "function"
    },
    {
      "constant": false,
      "inputs": [
        {
          "name": "token",
          "type": "address"
        },
        {
          "name": "amount",
          "type": "uint256"
        }
      ],
      "name": "withdraw",
      "outputs": [],
      "payable": false,
      "stateMutability": "nonpayable",
      "type": "function"
    },
    {
      "constant": true,
      "inputs": [
        {
          "name": "",
          "type": "bytes32"
        }
      ],
      "name": "orderFills",
      "outputs": [
        {
          "name": "",
          "type": "uint256"
        }
      ],
      "payable": false,
      "stateMutability": "view",
      "type": "function"
    },
    {
      "constant": true,
      "inputs": [
        {
          "name": "amount",
          "type": "uint256"
        },
        {
          "name": "gas",
          "type": "uint256"
        },
        {
          "name": "data",
          "type": "uint256"
        }
      ],
      "name": "getWithdrawDataHash",
      "outputs": [
        {
          "name": "",
          "type": "bytes32"
        }
      ],
      "payable": false,
      "stateMutability": "view",
      "type": "function"
    },
    {
      "constant": false,
      "inputs": [],
      "name": "lockMe",
      "outputs": [],
      "payable": false,
      "stateMutability": "nonpayable",
      "type": "function"
    },
    {
      "constant": true,
      "inputs": [
        {
          "name": "",
          "type": "uint256"
        }
      ],
      "name": "tokenId2Address",
      "outputs": [
        {
          "name": "",
          "type": "address"
        }
      ],
      "payable": false,
      "stateMutability": "view",
      "type": "function"
    },
    {
      "inputs": [
        {
          "name": "_joysoWallet",
          "type": "address"
        },
        {
          "name": "_joyToken",
          "type": "address"
        }
      ],
      "payable": false,
      "stateMutability": "nonpayable",
      "type": "constructor"
    },
    {
      "anonymous": false,
      "inputs": [
        {
          "indexed": false,
          "name": "token",
          "type": "address"
        },
        {
          "indexed": false,
          "name": "user",
          "type": "address"
        },
        {
          "indexed": false,
          "name": "amount",
          "type": "uint256"
        },
        {
          "indexed": false,
          "name": "balance",
          "type": "uint256"
        }
      ],
      "name": "Deposit",
      "type": "event"
    },
    {
      "anonymous": false,
      "inputs": [
        {
          "indexed": false,
          "name": "token",
          "type": "address"
        },
        {
          "indexed": false,
          "name": "user",
          "type": "address"
        },
        {
          "indexed": false,
          "name": "amount",
          "type": "uint256"
        },
        {
          "indexed": false,
          "name": "balance",
          "type": "uint256"
        }
      ],
      "name": "Withdraw",
      "type": "event"
    },
    {
      "anonymous": false,
      "inputs": [
        {
          "indexed": false,
          "name": "user",
          "type": "address"
        },
        {
          "indexed": false,
          "name": "id",
          "type": "uint256"
        }
      ],
      "name": "NewUser",
      "type": "event"
    },
    {
      "anonymous": false,
      "inputs": [
        {
          "indexed": false,
          "name": "user",
          "type": "address"
        },
        {
          "indexed": false,
          "name": "timeLock",
          "type": "uint256"
        }
      ],
      "name": "Lock",
      "type": "event"
    },
    {
      "anonymous": false,
      "inputs": [
        {
          "indexed": false,
          "name": "user",
          "type": "address"
        },
        {
          "indexed": false,
          "name": "etherGet",
          "type": "uint256"
        },
        {
          "indexed": false,
          "name": "tokenGet",
          "type": "uint256"
        },
        {
          "indexed": false,
          "name": "isBuy",
          "type": "uint256"
        },
        {
          "indexed": false,
          "name": "etherFee",
          "type": "uint256"
        },
        {
          "indexed": false,
          "name": "joyFee",
          "type": "uint256"
        }
      ],
      "name": "TradeScuess",
      "type": "event"
    },
    {
      "anonymous": false,
      "inputs": [
        {
          "indexed": true,
          "name": "previousOwner",
          "type": "address"
        },
        {
          "indexed": true,
          "name": "newOwner",
          "type": "address"
        }
      ],
      "name": "OwnershipTransferred",
      "type": "event"
    }
  ],
  "bytecode": "0x6060604052620186a0600b5534156200001757600080fd5b6040516040806200289a833981016040528080519190602001805160008054600160a060020a03338116600160a060020a031992831617909255600980549287169290911691909117905591506200007f905082640100000000620022366200013e82021704565b600a8054600160a060020a0319908116600160a060020a03938416178083558316600090815260086020908152604082206001908190557f5eff886ea0ce6ca488a3d6e336d6c0f75f46d19b42c06ce5ee98e42c96d256c783905560069091527f54cdd369e4e8a8515e52ca72ec816c2101831ad1f18bf44102ed171459c9b4f880548416905592549290527f3e5fec24aa4dc4e5aee2e025e51e1392c72a2500577559fae9665c6d52bd6a31805492909316911617905550620001f0565b600160a060020a038116600090815260086020526040902054156200016357620001ed565b600c8054600101808255600160a060020a0383166000818152600860209081526040808320859055938252600790528290208054600160a060020a031916909117905590547fd75b88a9203b17f9356ca063241beac16a25d5a46f485b378c2c229e864bdd4d9183919051600160a060020a03909216825260208201526040908101905180910390a15b50565b61269a80620002006000396000f3006060604052600436106101ea5763ffffffff60e060020a60003504166302ca599481146101ef57806307973ccf146102135780630f318692146102385780630f7c90851461024b578063135a24741461026f57806319038b8d1461029e5780632204c37e146102ed57806324d7806c14610303578063338b5dea146103365780633add3446146103585780633fd8b02f1461039b578063415f47ea146103ae57806348761fb6146103c45780635234305c14610413578063560ebbd1146104415780635617a6e8146104575780635767b9ab146104765780635d3b00a51461048c5780636fbd2160146104ab5780636ffb6e33146104ca57806378d65963146104e057806386c665b6146104f65780638da5cb5b1461051857806392d4d9ac1461052b578063934e16661461055957806398ea5fca1461056f578063a082588014610577578063a64968ac1461059b578063b20041f4146105ae578063c23f001f146105e8578063c7caede41461060d578063c9357a1214610623578063d10df9c814610642578063d4fac45d14610666578063d95d42411461068b578063eb035fcb146106b0578063f2fde38b146106d2578063f3fef3a3146106f1578063f7213db614610713578063f86f84d014610729578063f912ed0014610745578063fa76925714610758575b600080fd5b34156101fa57600080fd5b610211600160a060020a036004351660243561076e565b005b341561021e57600080fd5b610226610828565b60405190815260200160405180910390f35b341561024357600080fd5b61021161082e565b341561025657600080fd5b610211600160a060020a03600435166024351515610890565b341561027a57600080fd5b6102826108fb565b604051600160a060020a03909116815260200160405180910390f35b34156102a957600080fd5b610211600460248135818101908301358060208181020160405190810160405280939291908181526020018383602002808284375094965061090a95505050505050565b34156102f857600080fd5b610226600435610d7d565b341561030e57600080fd5b610322600160a060020a0360043516610dbd565b604051901515815260200160405180910390f35b341561034157600080fd5b610211600160a060020a0360043516602435610dd2565b341561036357600080fd5b61036e600435610f50565b6040519283526020830191909152600160a060020a03166040808301919091526060909101905180910390f35b34156103a657600080fd5b610226610f8e565b34156103b957600080fd5b610226600435610f94565b34156103cf57600080fd5b6102116004602481358181019083013580602081810201604051908101604052809392919081815260200183836020028082843750949650610f9d95505050505050565b341561041e57600080fd5b61042960043561156c565b60405191825260208201526040908101905180910390f35b341561044c57600080fd5b6103226004356115a5565b341561046257600080fd5b610226600160a060020a03600435166115ba565b341561048157600080fd5b6102266004356115cc565b341561049757600080fd5b6102266004356024356044356064356115fc565b34156104b657600080fd5b610226600160a060020a036004351661164b565b34156104d557600080fd5b61022660043561165d565b34156104eb57600080fd5b610226600435611695565b341561050157600080fd5b610226600435600160a060020a03602435166116ba565b341561052357600080fd5b6102826116e0565b341561053657600080fd5b610322600435600160a060020a036024351660ff604435166064356084356116ef565b341561056457600080fd5b610282600435611823565b61021161183e565b341561058257600080fd5b6102266004356024356044356064356084351515611902565b34156105a657600080fd5b610282611998565b34156105b957600080fd5b6105c46004356119a7565b60405180848152602001838152602001828152602001935050505060405180910390f35b34156105f357600080fd5b610226600160a060020a03600435811690602435166119d6565b341561061857600080fd5b6102266004356119f3565b341561062e57600080fd5b610226600435602435604435606435611a34565b341561064d57600080fd5b6102266004356024356044356064356084351515611a8a565b341561067157600080fd5b610226600160a060020a0360043581169060243516611b41565b341561069657600080fd5b610226600435602435600160a060020a0360443516611b6c565b34156106bb57600080fd5b610226600435602435604435606435608435611b94565b34156106dd57600080fd5b610211600160a060020a0360043516611bea565b34156106fc57600080fd5b610211600160a060020a0360043516602435611c85565b341561071e57600080fd5b610226600435611ead565b341561073457600080fd5b610226600435602435604435611ebf565b341561075057600080fd5b610211611f0b565b341561076357600080fd5b610282600435611f81565b60005433600160a060020a03908116911614806107a35750600160a060020a03331660009081526005602052604090205460ff165b15156107ae57600080fd5b600181116107bb57600080fd5b600160a060020a038216600090815260086020526040902054156107de57600080fd5b600160a060020a0390911660008181526008602090815260408083208590559382526006905291909120805473ffffffffffffffffffffffffffffffffffffffff19169091179055565b600c5481565b33600160a060020a0381166000908152600260205260408082208290557f625fed9875dada8643f2418b838ae0bc78d9a148a18eee4ee1979ff0f3f5d42792919051600160a060020a03909216825260208201526040908101905180910390a1565b60005433600160a060020a03908116911614806108c55750600160a060020a03331660009081526005602052604090205460ff165b15156108d057600080fd5b600160a060020a03919091166000908152600560205260409020805460ff1916911515919091179055565b600954600160a060020a031681565b6000805481908190819081908190819033600160a060020a039081169116148061094c5750600160a060020a03331660009081526005602052604090205460ff165b151561095757600080fd5b6109768860038151811061096757fe5b9060200190602002015161156c565b96509650610a008860008151811061098a57fe5b90602001906020020151896001815181106109a157fe5b906020019060200201518a6002815181106109b857fe5b906020019060200201516109fb8c6003815181106109d257fe5b9060200190602002015160008d8152600660205260409020548c90600160a060020a0316611b6c565b611a34565b60008181526003602052604090205490955015610a1c57600080fd5b610aaf8560076000610a438c600381518110610a3457fe5b90602001906020020151610f94565b8152602081019190915260400160002054600160a060020a0316610a7c8b600381518110610a6d57fe5b906020019060200201516115cc565b8b600481518110610a8957fe5b906020019060200201518c600581518110610aa057fe5b906020019060200201516116ef565b1515610aba57600080fd5b60a060020a8614610ae15787600081518110610ad257fe5b90602001906020020151610af9565b87600181518110610aee57fe5b906020019060200201515b93506000925060a060020a86189550600691505b8751821015610cea57610b52888381518110610b2557fe5b9060200190602002015189600081518110610b3c57fe5b906020019060200201519063ffffffff611f9c16565b610b7b898460010181518110610b6457fe5b906020019060200201518a600181518110610b3c57fe5b1115610b8657600080fd5b60008411610b9357600080fd5b610bf0888381518110610ba257fe5b90602001906020020151898460010181518110610bbb57fe5b906020019060200201518a8560020181518110610bd457fe5b906020019060200201516109fb8c87600301815181106109d257fe5b9050610c608160076000610c0c8c8760030181518110610a3457fe5b8152602081019190915260400160002054600160a060020a0316610c388b6003870181518110610a6d57fe5b8b8660040181518110610c4757fe5b906020019060200201518c6005880181518110610aa057fe5b1515610c6b57600080fd5b610cd9888381518110610c7a57fe5b90602001906020020151898460010181518110610c9357fe5b906020019060200201518a8560020181518110610cac57fe5b906020019060200201518b8660030181518110610cc557fe5b9060200190602002015188888c8e89611fd2565b909450925060069190910190610b0d565b60a060020a958618958614610d2557610d208489600081518110610d0a57fe5b906020019060200201519063ffffffff61211716565b610d36565b610d368489600181518110610d0a57fe5b9350610d7388600281518110610d4857fe5b9060200190602002015189600381518110610d5f57fe5b9060200190602002015186868a8c8b612129565b5050505050505050565b79ffffffffffffffffffffffffffffffffffffffffffffffffffff16600077ffffffffffffffffffffffffffffffffffffffffffffffff825b0492915050565b60056020526000908152604090205460ff1681565b600160a060020a0382166000908152600860205260409020541515610df657600080fd5b610dff33612236565b81600160a060020a03166323b872dd33308460006040516020015260405160e060020a63ffffffff8616028152600160a060020a0393841660048201529190921660248201526044810191909152606401602060405180830381600087803b1515610e6957600080fd5b6102c65a03f11515610e7a57600080fd5b505050604051805190501515610e8f57600080fd5b600160a060020a0380831660009081526001602090815260408083203390941683529290522054610ec6908263ffffffff6122f316565b600160a060020a038381166000908152600160209081526040808320339485168452909152908190208390557fdcbc1c05240f31ff3ad067ef1ee35ce4997762752e3a095284754544f4c709d79285929185919051600160a060020a0394851681529290931660208301526040808301919091526060820192909252608001905180910390a15050565b740fffffffffffffffffffffffffffffffffffffffff810491740f0000000000000000000000000000000000000000821691600160a060020a031690565b600b5481565b63ffffffff1690565b60008060008060008060008060008060009054906101000a9004600160a060020a0316600160a060020a031633600160a060020a03161480610ff75750600160a060020a03331660009081526005602052604090205460ff165b151561100257600080fd5b6110128a600281518110610a6d57fe5b98506110338a60028151811061102457fe5b906020019060200201516119a7565b600082815260066020908152604080832054848452600790925290912054939b509199509750600160a060020a0390811696501693506110898a60028151811061107957fe5b90602001906020020151866116ba565b92506110c28a60008151811061109b57fe5b906020019060200201518b6001815181106110b257fe5b9060200190602002015185611ebf565b60008181526004602052604090205490925060ff16156110e157600080fd5b61110b82858b8d6003815181106110f457fe5b906020019060200201518e600481518110610aa057fe5b151561111657600080fd5b50600060a060020a8814156111375750600a54600160a060020a0316611157565b740200000000000000000000000000000000000000008814156111575750835b84600160a060020a031681600160a060020a03161415611266576111ae8a60018151811061118157fe5b906020019060200201518b60008151811061119857fe5b906020019060200201519063ffffffff6122f316565b600160a060020a0380871660009081526001602090815260408083209389168352929052205410156111df57600080fd5b61123b6112098b6001815181106111f257fe5b906020019060200201518c60008151811061119857fe5b600160a060020a038088166000908152600160209081526040808320938a16835292905220549063ffffffff61211716565b600160a060020a038087166000908152600160209081526040808320938916835292905220556113e0565b8960008151811061127357fe5b90602001906020020151600160a060020a0380871660009081526001602090815260408083209389168352929052205410156112ae57600080fd5b896001815181106112bb57fe5b90602001906020020151600160a060020a0380831660009081526001602090815260408083209389168352929052205410156112f657600080fd5b6113428a60008151811061130657fe5b90602001906020020151600160a060020a038088166000908152600160209081526040808320938a16835292905220549063ffffffff61211716565b600160a060020a038087166000908152600160208181526040808420948a168452939052919020919091556113b9908b908151811061137d57fe5b90602001906020020151600160a060020a038084166000908152600160209081526040808320938a16835292905220549063ffffffff61211716565b600160a060020a038083166000908152600160209081526040808320938916835292905220555b61142f8a6001815181106113f057fe5b90602001906020020151600160a060020a038084166000908152600160209081526040808320600954909416835292905220549063ffffffff6122f316565b600160a060020a0380831660009081526001602081815260408084206009548616855282528084209590955586835260049052929020805460ff1916909217909155851615156114c75783600160a060020a03166108fc8b60008151811061149357fe5b906020019060200201519081150290604051600060405180830381858888f1935050505015156114c257600080fd5b611560565b84600160a060020a031663a9059cbb858c6000815181106114e457fe5b9060200190602002015160006040516020015260405160e060020a63ffffffff8516028152600160a060020a0390921660048301526024820152604401602060405180830381600087803b151561153a57600080fd5b6102c65a03f1151561154b57600080fd5b50505060405180519050151561156057600080fd5b50505050505050505050565b65ffffffffffff8082169167ffffffffffffffff160460008163ffffffff840481151561159e5780935060a060020a92505b5050915091565b60046020526000908152604090205460ff1681565b60026020526000908152604090205481565b600073f000000000000000000000000000000000000000821615156115f35750601b6115f7565b50601c5b919050565b600060a060020a831461162e576116298561161d848763ffffffff611f9c16565b9063ffffffff61230216565b611642565b6116428461161d848863ffffffff611f9c16565b95945050505050565b60086020526000908152604090205481565b77ffffffffffffffffffffffffffffffffffffffffffffffff166000740fffffffffffffffffffffffffffffffffffffffff82610db6565b60007bffffffffffffffffffffffffffffffffffffffffffffffffffffffff82610db6565b600160a060020a031673ffffffffffffffffffffffffffffffffffffffff199091161790565b600054600160a060020a031681565b60006116f961263c565b6000806040805190810160405280601c81526020017f19457468657265756d205369676e6564204d6573736167653a0a333200000000815250925082896040518083805190602001908083835b602083106117655780518252601f199092019160209182019101611746565b6001836020036101000a03801982511681845116179092525050509190910192835250506020019050604051809103902091506001828888886040516000815260200160405260006040516020015260405193845260ff90921660208085019190915260408085019290925260608401929092526080909201915160208103908084039060008661646e5a03f115156117fd57600080fd5b505060206040510351600160a060020a0390811698169790971498975050505050505050565b600760205260009081526040902054600160a060020a031681565b61184733612236565b33600160a060020a0316600090815260008051602061264f833981519152602052604090205461187d903463ffffffff6122f316565b33600160a060020a038116600090815260008051602061264f83398151915260205260408082208490557fdcbc1c05240f31ff3ad067ef1ee35ce4997762752e3a095284754544f4c709d793919291349151600160a060020a0394851681529290931660208301526040808301919091526060820192909252608001905180910390a1565b60008060006119108761165d565b1561191e576000925061198d565b6000858152600360205260409020541561193957600061193b565b875b9150836119665761196161271061161d6119548a610d7d565b899063ffffffff611f9c16565b611978565b61197861271061161d6119548a6119f3565b905061198a828263ffffffff6122f316565b92505b505095945050505050565b600a54600160a060020a031681565b740f000000000000000000000000000000000000000081169163ffffffff65ffffffffffff8316819004921690565b600160209081526000928352604080842090915290825290205481565b7bffffffffffffffffffffffffffffffffffffffffffffffffffffffff16600079ffffffffffffffffffffffffffffffffffffffffffffffffffff82610db6565b60003085858585604051600160a060020a03959095166c01000000000000000000000000028552601485019390935260348401919091526054830152607482015260940160405180910390209050949350505050565b6000806000806000611a9b8961165d565b93508315611b2f5760008781526003602052604090205415611abe576000611ac0565b895b925085611aeb57611ae661271061161d611ad98c610d7d565b8b9063ffffffff611f9c16565b611afd565b611afd61271061161d611ad98c6119f3565b9150611b168461161d84620186a063ffffffff611f9c16565b9050611b28838263ffffffff6122f316565b9450611b34565b600094505b5050505095945050505050565b600160a060020a03918216600090815260016020908152604080832093909416825291909152205490565b600160a060020a0316740fffffffffffffffffffffffffffffffffffffffff19909216171790565b60008060a060020a8414611ba85786611baa565b855b600084815260036020526040902054909150611bcd90829063ffffffff61211716565b905084811015611bdd5780611bdf565b845b979650505050505050565b60005433600160a060020a03908116911614611c0557600080fd5b600160a060020a0381161515611c1a57600080fd5b600054600160a060020a0380831691167f8be0079c531659141344cd1fd0a4f28419497f9722a3daafe3b4186f6b6457e060405160405180910390a36000805473ffffffffffffffffffffffffffffffffffffffff1916600160a060020a0392909216919091179055565b600160a060020a03331660009081526002602052604090205443118015611cc35750600160a060020a03331660009081526002602052604090205415155b1515611cce57600080fd5b600160a060020a038083166000908152600160209081526040808320339094168352929052205481901015611d0257600080fd5b600160a060020a0380831660009081526001602090815260408083203390941683529290522054611d39908263ffffffff61211716565b600160a060020a03808416600081815260016020908152604080832033909516835293905291909120919091551515611da257600160a060020a03331681156108fc0282604051600060405180830381858888f193505050501515611d9d57600080fd5b611e25565b81600160a060020a031663a9059cbb338360006040516020015260405160e060020a63ffffffff8516028152600160a060020a0390921660048301526024820152604401602060405180830381600087803b1515611dff57600080fd5b6102c65a03f11515611e1057600080fd5b505050604051805190501515611e2557600080fd5b600160a060020a03808316600090815260016020908152604080832033948516845290915290819020547ff341246adaac6f497bc2a656f546ab9e182111d630394f0c57c710a59a2cb5679285929091859151600160a060020a0394851681529290931660208301526040808301919091526060820192909252608001905180910390a15050565b60036020526000908152604090205481565b600030848484604051600160a060020a03949094166c01000000000000000000000000028452601484019290925260348301526054820152607401604051809103902090509392505050565b600b54611f1f90439063ffffffff6122f316565b33600160a060020a038116600090815260026020526040908190208390557f625fed9875dada8643f2418b838ae0bc78d9a148a18eee4ee1979ff0f3f5d427929051600160a060020a03909216825260208201526040908101905180910390a1565b600660205260009081526040902054600160a060020a031681565b600080831515611faf5760009150611fcb565b50828202828482811515611fbf57fe5b0414611fc757fe5b8091505b5092915050565b600080600080600080611fe88f8f8d8c8b611b94565b9350611ff68f8f8b876115fc565b92506120068d8d858a6000611902565b91506120168d8d858a6000611a8a565b90506120278c8a858786868e612319565b600087815260036020526040902054612046908563ffffffff6122f316565b6000888152600360205260409020556120618b8b858761260c565b90965094507f68a2060cb9c6465b0d477e93e1999840ef2aee8b5256c010ee78840d81aeda5d600760006120948f610f94565b815260200190815260200160002060009054906101000a9004600160a060020a031684868c86866040518087600160a060020a0316600160a060020a03168152602001868152602001858152602001848152602001838152602001828152602001965050505050505060405180910390a150505050995099975050505050505050565b60008282111561212357fe5b50900390565b60008061213a898988866001611902565b915061214a898988866001611a8a565b905061215b8886888a86868a612319565b60008381526003602052604090205461217a908863ffffffff6122f316565b6000848152600360205260408120919091557f68a2060cb9c6465b0d477e93e1999840ef2aee8b5256c010ee78840d81aeda5d906007906121ba8b610f94565b815260200190815260200160002060009054906101000a9004600160a060020a031687898886866040518087600160a060020a0316600160a060020a03168152602001868152602001858152602001848152602001838152602001828152602001965050505050505060405180910390a1505050505050505050565b600160a060020a03811660009081526008602052604090205415612259576122f0565b600c8054600101808255600160a060020a038316600081815260086020908152604080832085905593825260079052829020805473ffffffffffffffffffffffffffffffffffffffff1916909117905590547fd75b88a9203b17f9356ca063241beac16a25d5a46f485b378c2c229e864bdd4d9183919051600160a060020a03909216825260208201526040908101905180910390a15b50565b600082820183811015611fc757fe5b600080828481151561231057fe5b04949350505050565b600080600760006123298b610f94565b8152602080820192909252604090810160009081205486825260069093522054600160a060020a03918216935016905060a060020a88141561242857600160a060020a038216600090815260008051602061264f83398151915260205260409020546123ad9086906123a1908a63ffffffff61211716565b9063ffffffff61211716565b600160a060020a03838116600081815260008051602061264f8339815191526020908152604080832095909555928516815260018352838120918152915220546123fd908763ffffffff6122f316565b600160a060020a038083166000908152600160209081526040808320938716835292905220556124db565b600160a060020a038216600090815260008051602061264f83398151915260205260409020546124649086906123a1908a63ffffffff6122f316565b600160a060020a03838116600081815260008051602061264f8339815191526020908152604080832095909555928516815260018352838120918152915220546124b4908763ffffffff61211716565b600160a060020a038083166000908152600160209081526040808320938716835292905220555b83156125a057600a54600160a060020a0390811660009081526001602090815260408083209386168352929052205461251a908563ffffffff61211716565b600a8054600160a060020a0390811660009081526001602081815260408084208986168552825280842096909655935483168252835283812060095490921681529152205461256f908563ffffffff6122f316565b600a54600160a060020a03908116600090815260016020908152604080832060095490941683529290522055612601565b600954600160a060020a0316600090815260008051602061264f83398151915260205260409020546125d8908663ffffffff6122f316565b600954600160a060020a0316600090815260008051602061264f83398151915260205260409020555b505050505050505050565b60008061261f868463ffffffff61211716565b9150612631858563ffffffff6122f316565b905094509492505050565b602060405190810160405260008152905600a6eef7e35abe7026729641147f7915573c7e97b47efa546f5f6e3230263bcb49a165627a7a72305820c9d275a80f4f96d5bf3be48acfb7489cbc0c1984d7dfbc85377675188df8cec10029",
  "source": "pragma solidity ^0.4.17;\n\n//import \"./lib/SafeMath.sol\";\n//import \"./lib/Ownable.sol\";\nimport 'zeppelin-solidity/contracts/ownership/Ownable.sol';\nimport 'zeppelin-solidity/contracts/math/SafeMath.sol';\nimport \"./JoysoDataDecoder.sol\";\nimport {StandardToken as Token} from \"zeppelin-solidity/contracts/token/StandardToken.sol\";\n\n/** @title Joyso contract\n  *\n  */\ncontract Joyso is Ownable, JoysoDataDecoder {\n    using SafeMath for uint256;\n\n    uint256 constant PAY_BY_TOKEN = 0x0000000000000000000000020000000000000000000000000000000000000000;\n    uint256 constant PAY_BY_JOY = 0x0000000000000000000000010000000000000000000000000000000000000000;\n    uint256 constant PAY_BY_ETHER = 0x0000000000000000000000000000000000000000000000000000000000000000;\n    uint256 constant ORDER_ISBUY = 0x0000000000000000000000010000000000000000000000000000000000000000;\n\n    mapping (address => mapping (address => uint256)) public balances;\n    mapping (address => uint256) public userLock;\n    mapping (bytes32 => uint256) public orderFills;\n    mapping (bytes32 => bool) public usedHash;\n    mapping (address => bool) public isAdmin;\n    mapping (uint256 => address) public tokenId2Address;\n    mapping (uint256 => address) public userId2Address;\n    mapping (address => uint256) public address2Id;\n\n    address public joysoWallet;\n    address public joyToken;\n    uint256 public lockPeriod = 100000;\n    uint256 public userCount;\n\n    modifier onlyAdmin {\n        require(msg.sender == owner || isAdmin[msg.sender]);\n        _;\n    }\n\n    //events\n    event Deposit (address token, address user, uint256 amount, uint256 balance);\n    event Withdraw(address token, address user, uint256 amount, uint256 balance);\n    event NewUser (address user, uint256 id);\n    event Lock (address user, uint256 timeLock);\n\n    function Joyso (address _joysoWallet, address _joyToken) public {\n        joysoWallet = _joysoWallet;\n        addUser(_joysoWallet);\n        joyToken = _joyToken;\n        address2Id[joyToken] = 1;\n        address2Id[0] = 0; // ether address is Id 0\n        tokenId2Address[0] = 0;\n        tokenId2Address[1] = joyToken;\n    }\n\n    /** Deposit allow user to store the funds in Joyso contract.\n      * It is more convenient to transfer funds or to trade in contract.\n      * Besure to approve the contract to move your erc20 token if depositToken.\n      */\n    function depositToken (address token, uint256 amount) public {\n        require(address2Id[token] != 0);\n        addUser(msg.sender);\n        require(Token(token).transferFrom(msg.sender, this, amount));\n        balances[token][msg.sender] = balances[token][msg.sender].add(amount);\n        Deposit(token, msg.sender, amount, balances[token][msg.sender]);\n    }\n\n    function depositEther () public payable {\n        addUser(msg.sender);\n        balances[0][msg.sender] = balances[0][msg.sender].add(msg.value);\n        Deposit(0, msg.sender, msg.value, balances[0][msg.sender]);\n    }\n\n    function withdraw (address token, uint256 amount) public {\n        require(block.number > userLock[msg.sender] && userLock[msg.sender] != 0);\n        require(balances[token][msg.sender] >= amount);\n        balances[token][msg.sender] = balances[token][msg.sender].sub(amount);\n        if(token == 0) {\n            msg.sender.transfer(amount);\n        } else {\n            require(Token(token).transfer(msg.sender, amount));\n        }\n        Withdraw(token, msg.sender, amount, balances[token][msg.sender]);\n    }\n\n    function lockMe () public {\n        userLock[msg.sender] = block.number.add(lockPeriod);\n        Lock (msg.sender, userLock[msg.sender]);\n    }\n\n    function unlockme () public {\n        userLock[msg.sender] = 0;\n        Lock (msg.sender, userLock[msg.sender]);\n    }\n\n    // -------------------------------------------- helper functions\n    function getBalance (address token, address account) public view returns (uint256) {\n        return balances[token][account];\n    }\n\n    function getWithdrawDataHash (uint256 amount, uint256 gas, uint256 data) public view returns (bytes32) {\n        return keccak256(this, amount, gas, data);\n    }\n\n    function getOrderDataHash (uint256 amountSell, uint256 amountBuy, uint256 gasFee, uint256 data) public view returns (bytes32) {\n        return keccak256(this, amountSell, amountBuy, gasFee, data);\n    }\n\n    function verify (bytes32 hash, address sender, uint8 v, bytes32 r, bytes32 s) public pure returns (bool) {\n        bytes memory prefix = \"\\x19Ethereum Signed Message:\\n32\";\n        bytes32 prefixedHash = keccak256(prefix, hash);\n        address signer = ecrecover(prefixedHash, v, r, s);\n        return signer == sender;\n    }\n\n    // -------------------------------------------- only admin \n    function registerToken (address tokenAddress, uint256 index) public onlyAdmin {\n        require (index > 1);\n        require (address2Id[tokenAddress] == 0);\n        address2Id[tokenAddress] = index;\n        tokenId2Address[index] = tokenAddress;\n    }\n\n    function addToAdmin (address admin, bool isAdd) onlyAdmin public {\n        isAdmin[admin] = isAdd;\n    }\n\n    function withdrawByAdmin (uint256[] inputs) onlyAdmin public {\n        /**\n            inputs[0] (uint256) amount;\n            inputs[1] (uint256) gasFee;\n            inputs[2] (uint256) dataV\n            inputs[3] (bytes32) r\n            inputs[4] (bytes32) s\n            -----------------------------------\n            dataV[0 .. 7] (uint256) nonce --> doesnt used when withdraw\n            dataV[23..23] (uint256) paymentMethod --> 0: ether, 1: JOY, 2: token\n            dataV[24..24] (uint256) v --> should be uint8 when used\n            dataV[52..55] (uint256) tokenId\n            dataV[56..63] (uint256) userId\n            -----------------------------------\n            user withdraw singature (uint256)\n            (this.address, amount, gasFee, data)\n            -----------------------------------\n            data [0 .. 7] (uint256) nonce --> does not used when withdraw\n            data [23..23] (uint256) paymentMethod\n            data [24..63] (address) tokenAddress\n         */\n        uint256 v_256 = retrieveV(inputs[2]);\n        var (paymentMethod, tokenId, userId) = decodeWithdrawData(inputs[2]);\n        address token = tokenId2Address[tokenId];\n        address user = userId2Address[userId];\n        uint256 data = genUserSignedWithdrawData(inputs[2], token);\n\n        bytes32 hash = getWithdrawDataHash(inputs[0], inputs[1], data);\n        require (!usedHash[hash]);\n        require (verify(hash, user, (uint8)(v_256), (bytes32)(inputs[3]), (bytes32)(inputs[4])));\n\n        address gasToken = 0;\n        if (paymentMethod == PAY_BY_JOY) { // pay fee by JOY\n            gasToken = joyToken;\n        } else if (paymentMethod == PAY_BY_TOKEN) { // pay fee by tx token\n            gasToken = token;\n        }\n\n        if (gasToken == token) { // pay by ether or token\n            require (balances[token][user] >= inputs[0].add(inputs[1]));\n            balances[token][user] = balances[token][user].sub(inputs[0].add(inputs[1]));\n        } else {\n            require (balances[token][user] >= inputs[0]);\n            require (balances[gasToken][user] >= inputs[1]);\n            balances[token][user] = balances[token][user].sub(inputs[0]);\n            balances[gasToken][user] = balances[gasToken][user].sub(inputs[1]);\n        }\n        balances[gasToken][joysoWallet] = balances[gasToken][joysoWallet].add(inputs[1]);\n\n        usedHash[hash] = true;\n\n        if (token == 0) {\n            user.transfer(inputs[0]);\n        } else {\n            require(Token(token).transfer(user, inputs[0]));\n        }\n    }\n\n    event TradeScuess(address user, uint256 etherGet, uint256 tokenGet, uint256 isBuy, uint256 etherFee, uint256 joyFee);\n    function matchByAdmin (uint256[] inputs) onlyAdmin public {\n        /**\n            inputs[6*i .. (6*i+5)] order i, order1 is taker, other orders are maker  \n            inputs[6i] (uint256) amountSell\n            inputs[6i+1] (uint256) amountBuy\n            inputs[6i+2] (uint256) gasFee\n            inputs[6i+3] (uint256) dataV\n            inputs[6i+4] (bytes32) r\n            inputs[6i+5] (bytes32) s\n            -----------------------------------\n            dataV[0 .. 7] (uint256) nonce \n            dataV[8 ..11] (uint256) takerFee\n            dataV[12..15] (uint256) makerFee\n            dataV[16..22] (uint256) joyPrice --> 0: pay ether, others: pay joy Token\n            dataV[23..23] (uint256) isBuy --> always 0, should be modified in contract\n            dataV[24..24] (uint256) v --> should be uint8 when used, 0: 27, 1: 28\n            dataV[49..51] (uint256) tokenSellId\n            dataV[52..55] (uint256) tokenBuyId\n            dataV[56..63] (uint256) userId\n            -----------------------------------\n            user order singature (uint256)\n            (this.address, amountSell, amountBuy, gasFee, data)\n            -----------------------------------\n            data [0 .. 7] (uint256) nonce \n            data [8 ..11] (uint256) takerFee\n            data [12..15] (uint256) makerFee\n            data [16..22] (uint256) joyPrice --> 0: pay ether, others: pay joy Token\n            data [23..23] (uint256) isBuy --> always 0, should be modified in contract\n            data [24..63] (address) tokenAddress\n         */\n        var (tokenId, isBuy) = decodeOrderTokenIdAndIsBuy(inputs[3]);\n        bytes32 orderHash = getOrderDataHash(inputs[0], inputs[1], inputs[2], genUserSignedOrderData(inputs[3], isBuy, tokenId2Address[tokenId]));\n        // TODO: should check the nonce here\n        require (orderFills[orderHash] == 0);\n        require (verify(orderHash, userId2Address[decodeOrderUserId(inputs[3])], (uint8)(retrieveV(inputs[3])), (bytes32)(inputs[4]), (bytes32)(inputs[5])));\n\n        uint256 tokenExecute = isBuy == ORDER_ISBUY ? inputs[1] : inputs[0]; // taker order token execute\n        uint256 etherExecute = 0;  // taker order ether execute\n        \n        isBuy = isBuy ^ ORDER_ISBUY;\n        for (uint256 i = 6; i < inputs.length; i+=6) {\n            // maker price should lower than taker price\n            require (inputs[1].mul(inputs[i+1]) <= inputs[0].mul(inputs[i]));     \n            require (tokenExecute > 0);\n            bytes32 makerOrderHash = getOrderDataHash(inputs[i], inputs[i+1], inputs[i+2], genUserSignedOrderData(inputs[i+3], isBuy, tokenId2Address[tokenId]));\n            require (verify(makerOrderHash, userId2Address[decodeOrderUserId(inputs[i+3])], (uint8)(retrieveV(inputs[i+3])), (bytes32)(inputs[i+4]), (bytes32)(inputs[i+5])));\n            (tokenExecute, etherExecute) = internalTrade(inputs[i], inputs[i+1], inputs[i+2], inputs[i+3], tokenExecute, etherExecute, isBuy, tokenId, makerOrderHash);\n        }\n\n        isBuy = isBuy ^ ORDER_ISBUY;\n        tokenExecute = isBuy == ORDER_ISBUY ? inputs[1].sub(tokenExecute) : inputs[0].sub(tokenExecute);\n        updateTakerBalance(inputs[2], inputs[3], tokenExecute, etherExecute, isBuy, tokenId, orderHash);\n    }\n\n    // -------------------------------------------- internal/private function\n    function addUser (address _address) internal {\n        if (address2Id[_address] != 0) {\n            return;\n        }\n        userCount += 1;\n        address2Id[_address] = userCount;\n        userId2Address[userCount] = _address;\n        NewUser(_address, userCount);\n    }\n\n    function updateTakerBalance (uint256 gasFee, uint256 data, uint256 tokenExecute, uint256 etherExecute, uint256 isBuy, uint256 tokenId, bytes32 orderHash) \n        internal\n    {\n        uint256 etherFee = calculateEtherFee(gasFee, data, etherExecute, orderHash, true);\n        uint256 joyFee = calculateJoyFee(gasFee, data, etherExecute, orderHash, true);\n        updateUserBalance(data, isBuy, etherExecute, tokenExecute, etherFee, joyFee, tokenId);\n        orderFills[orderHash] = orderFills[orderHash].add(tokenExecute);\n        TradeScuess(userId2Address[decodeOrderUserId(data)], etherExecute, tokenExecute, isBuy, etherFee, joyFee);\n    }\n\n    function internalTrade (uint256 amountSell, uint256 amountBuy, uint256 gasFee, uint256 data, uint256 _tokenExecute, uint256 _etherExecute, uint256 isBuy, uint256 tokenId, bytes32 orderHash) \n        internal returns (uint256 tokenExecute, uint256 etherExecute) \n    {\n        uint256 tokenGet = calculateTokenGet(amountSell, amountBuy, _tokenExecute, isBuy, orderHash);\n        uint256 etherGet = calculateEtherGet(amountSell, amountBuy, isBuy, tokenGet);\n        uint256 etherFee = calculateEtherFee(gasFee, data, etherGet, orderHash, false);\n        uint256 joyFee = calculateJoyFee(gasFee, data, etherGet, orderHash, false);\n        updateUserBalance(data, isBuy, etherGet, tokenGet, etherFee, joyFee, tokenId);\n        orderFills[orderHash] = orderFills[orderHash].add(tokenGet);\n        (tokenExecute, etherExecute) = updateTakerOrder(_tokenExecute, _etherExecute, etherGet, tokenGet);\n        TradeScuess(userId2Address[decodeOrderUserId(data)], etherGet, tokenGet, isBuy, etherFee, joyFee);\n    }\n\n    function updateTakerOrder (uint256 _tokenExecute, uint256 _etherExecute, uint256 etherGet, uint256 tokenGet) \n        internal pure returns (uint256 tokenExecute, uint256 etherExecute) \n    {\n        tokenExecute = _tokenExecute.sub(tokenGet);\n        etherExecute = _etherExecute.add(etherGet);\n    }\n\n    function updateUserBalance (uint256 data, uint256 isBuy, uint256 etherGet, uint256 tokenGet, uint256 etherFee, uint256 joyFee, uint256 tokenId) internal {\n        address user = userId2Address[decodeOrderUserId(data)];\n        address token = tokenId2Address[tokenId];\n        if (isBuy == ORDER_ISBUY) { // buy token, sell ether\n            balances[0][user] = balances[0][user].sub(etherGet).sub(etherFee);\n            balances[token][user] = balances[token][user].add(tokenGet);\n        } else {\n            balances[0][user] = balances[0][user].add(etherGet).sub(etherFee);\n            balances[token][user] = balances[token][user].sub(tokenGet);\n        }\n\n        if(joyFee != 0) {\n            balances[joyToken][user] = balances[joyToken][user].sub(joyFee);\n            balances[joyToken][joysoWallet] = balances[joyToken][joysoWallet].add(joyFee);\n        } else { \n            balances[0][joysoWallet] = balances[0][joysoWallet].add(etherFee);\n        }\n    }\n\n    function calculateJoyFee (uint256 gasFee, uint256 data, uint256 etherGet, bytes32 orderHash, bool isTaker) \n        public view returns (uint256) {\n        uint256 joyPrice = decodeOrderJoyPrice(data);\n        if (joyPrice != 0) {\n            uint256 joyFee = orderFills[orderHash] == 0 ? gasFee : 0;\n            uint256 txFee = isTaker ? etherGet.mul(decodeOrderTakerFee(data)).div(10000) : etherGet.mul(decodeOrderMakerFee(data)).div(10000);\n            uint256 toJoy = txFee.mul(10 ** 5).div(joyPrice);\n            return joyFee.add(toJoy);\n        } else { \n            return 0;\n        }\n    }\n\n    function calculateEtherFee (uint256 gasFee, uint256 data, uint256 etherGet, bytes32 orderHash, bool isTaker) public view returns (uint256) {\n        if (decodeOrderJoyPrice(data) != 0) {\n            return 0;\n        } else {\n            uint256 etherFee = orderFills[orderHash] == 0 ? gasFee : 0;\n            uint256 txFee = isTaker ? etherGet.mul(decodeOrderTakerFee(data)).div(10000) : etherGet.mul(decodeOrderMakerFee(data)).div(10000);\n            return etherFee.add(txFee);\n        }\n    }\n\n    function calculateEtherGet (uint256 amountSell, uint256 amountBuy, uint256 isBuy, uint256 tokenGet) public pure returns (uint256) {\n        return isBuy == ORDER_ISBUY ? tokenGet.mul(amountSell).div(amountBuy): tokenGet.mul(amountBuy).div(amountSell) ;\n    }\n\n    function calculateTokenGet (uint256 amountSell, uint256 amountBuy, uint256 _tokenExecute, uint256 isBuy, bytes32 orderHash) public view returns (uint256) {\n        uint256 tradeTokenAmount = isBuy == ORDER_ISBUY ? amountBuy : amountSell;\n        tradeTokenAmount = tradeTokenAmount.sub(orderFills[orderHash]);\n        return tradeTokenAmount >= _tokenExecute ? _tokenExecute : tradeTokenAmount;\n    }\n}\n\n",
  "sourcePath": "/Users/will/Work/ConsensusInnovation/joyso-contracts/contracts/Joyso.sol",
  "compiler": {
    "name": "solc",
    "version": "0.4.18+commit.9cf6e910.Emscripten.clang"
  },
  "schemaVersion": "1.0.1",
  "updatedAt": "2018-02-01T03:33:01.533Z"
}