{
  "contractName": "Joyso",
  "abi": [
    {
      "constant": false,
      "inputs": [
        {
          "name": "token",
          "type": "address"
        },
        {
          "name": "amount",
          "type": "uint256"
        }
      ],
      "name": "deposit",
      "outputs": [],
      "payable": true,
      "stateMutability": "payable",
      "type": "function"
    },
    {
      "constant": false,
      "inputs": [
        {
          "name": "maker",
          "type": "address"
        },
        {
          "name": "tokenSell",
          "type": "address"
        },
        {
          "name": "tokenBuy",
          "type": "address"
        },
        {
          "name": "amountSell",
          "type": "uint256"
        },
        {
          "name": "amountBuy",
          "type": "uint256"
        },
        {
          "name": "expires",
          "type": "uint256"
        },
        {
          "name": "nonce",
          "type": "uint256"
        },
        {
          "name": "v",
          "type": "uint8"
        },
        {
          "name": "r",
          "type": "bytes32"
        },
        {
          "name": "s",
          "type": "bytes32"
        },
        {
          "name": "amountTake",
          "type": "uint256"
        }
      ],
      "name": "take",
      "outputs": [],
      "payable": false,
      "stateMutability": "nonpayable",
      "type": "function"
    },
    {
      "constant": false,
      "inputs": [
        {
          "name": "orderID",
          "type": "bytes32"
        },
        {
          "name": "amountTake",
          "type": "uint256"
        }
      ],
      "name": "takeByID",
      "outputs": [],
      "payable": false,
      "stateMutability": "nonpayable",
      "type": "function"
    },
    {
      "constant": true,
      "inputs": [],
      "name": "owner",
      "outputs": [
        {
          "name": "",
          "type": "address"
        }
      ],
      "payable": false,
      "stateMutability": "view",
      "type": "function"
    },
    {
      "constant": true,
      "inputs": [
        {
          "name": "hash",
          "type": "bytes32"
        },
        {
          "name": "sender",
          "type": "address"
        },
        {
          "name": "v",
          "type": "uint8"
        },
        {
          "name": "r",
          "type": "bytes32"
        },
        {
          "name": "s",
          "type": "bytes32"
        }
      ],
      "name": "verify",
      "outputs": [
        {
          "name": "",
          "type": "bool"
        }
      ],
      "payable": false,
      "stateMutability": "pure",
      "type": "function"
    },
    {
      "constant": false,
      "inputs": [
        {
          "name": "orderID",
          "type": "bytes32"
        }
      ],
      "name": "updateOrder",
      "outputs": [],
      "payable": false,
      "stateMutability": "nonpayable",
      "type": "function"
    },
    {
      "constant": true,
      "inputs": [
        {
          "name": "",
          "type": "bytes32"
        }
      ],
      "name": "orderBook",
      "outputs": [
        {
          "name": "orderID",
          "type": "bytes32"
        },
        {
          "name": "owner",
          "type": "address"
        },
        {
          "name": "tokenSell",
          "type": "address"
        },
        {
          "name": "tokenBuy",
          "type": "address"
        },
        {
          "name": "amountSell",
          "type": "uint256"
        },
        {
          "name": "amountBuy",
          "type": "uint256"
        },
        {
          "name": "expires",
          "type": "uint256"
        },
        {
          "name": "nonce",
          "type": "uint256"
        },
        {
          "name": "balance",
          "type": "uint256"
        },
        {
          "name": "status",
          "type": "uint256"
        }
      ],
      "payable": false,
      "stateMutability": "view",
      "type": "function"
    },
    {
      "constant": false,
      "inputs": [
        {
          "name": "token",
          "type": "address"
        },
        {
          "name": "receiver",
          "type": "address"
        },
        {
          "name": "amount",
          "type": "uint256"
        }
      ],
      "name": "transfer",
      "outputs": [],
      "payable": false,
      "stateMutability": "nonpayable",
      "type": "function"
    },
    {
      "constant": true,
      "inputs": [
        {
          "name": "",
          "type": "address"
        },
        {
          "name": "",
          "type": "address"
        }
      ],
      "name": "balances",
      "outputs": [
        {
          "name": "",
          "type": "uint256"
        }
      ],
      "payable": false,
      "stateMutability": "view",
      "type": "function"
    },
    {
      "constant": true,
      "inputs": [
        {
          "name": "",
          "type": "address"
        },
        {
          "name": "",
          "type": "uint256"
        }
      ],
      "name": "dependency",
      "outputs": [
        {
          "name": "",
          "type": "bool"
        }
      ],
      "payable": false,
      "stateMutability": "view",
      "type": "function"
    },
    {
      "constant": true,
      "inputs": [
        {
          "name": "token",
          "type": "address"
        },
        {
          "name": "account",
          "type": "address"
        }
      ],
      "name": "getBalance",
      "outputs": [
        {
          "name": "",
          "type": "uint256"
        }
      ],
      "payable": false,
      "stateMutability": "view",
      "type": "function"
    },
    {
      "constant": true,
      "inputs": [
        {
          "name": "maker",
          "type": "address"
        },
        {
          "name": "tokenSell",
          "type": "address"
        },
        {
          "name": "tokenBuy",
          "type": "address"
        },
        {
          "name": "amountSell",
          "type": "uint256"
        },
        {
          "name": "amountBuy",
          "type": "uint256"
        },
        {
          "name": "expires",
          "type": "uint256"
        },
        {
          "name": "nonce",
          "type": "uint256"
        }
      ],
      "name": "queryID",
      "outputs": [
        {
          "name": "hash",
          "type": "bytes32"
        },
        {
          "name": "status",
          "type": "uint256"
        }
      ],
      "payable": false,
      "stateMutability": "view",
      "type": "function"
    },
    {
      "constant": false,
      "inputs": [
        {
          "name": "newOwner",
          "type": "address"
        }
      ],
      "name": "transferOwnership",
      "outputs": [],
      "payable": false,
      "stateMutability": "nonpayable",
      "type": "function"
    },
    {
      "constant": false,
      "inputs": [
        {
          "name": "token",
          "type": "address"
        },
        {
          "name": "amount",
          "type": "uint256"
        }
      ],
      "name": "withdraw",
      "outputs": [],
      "payable": false,
      "stateMutability": "nonpayable",
      "type": "function"
    },
    {
      "constant": false,
      "inputs": [
        {
          "name": "tokenSell",
          "type": "address"
        },
        {
          "name": "tokenBuy",
          "type": "address"
        },
        {
          "name": "amountSell",
          "type": "uint256"
        },
        {
          "name": "amountBuy",
          "type": "uint256"
        },
        {
          "name": "expires",
          "type": "uint256"
        },
        {
          "name": "nonce",
          "type": "uint256"
        }
      ],
      "name": "make",
      "outputs": [],
      "payable": false,
      "stateMutability": "nonpayable",
      "type": "function"
    },
    {
      "anonymous": false,
      "inputs": [
        {
          "indexed": false,
          "name": "token",
          "type": "address"
        },
        {
          "indexed": false,
          "name": "sender",
          "type": "address"
        },
        {
          "indexed": false,
          "name": "amount",
          "type": "uint256"
        },
        {
          "indexed": false,
          "name": "balance",
          "type": "uint256"
        }
      ],
      "name": "Deposit",
      "type": "event"
    },
    {
      "anonymous": false,
      "inputs": [
        {
          "indexed": false,
          "name": "token",
          "type": "address"
        },
        {
          "indexed": false,
          "name": "user",
          "type": "address"
        },
        {
          "indexed": false,
          "name": "amount",
          "type": "uint256"
        },
        {
          "indexed": false,
          "name": "balance",
          "type": "uint256"
        }
      ],
      "name": "Withdraw",
      "type": "event"
    },
    {
      "anonymous": false,
      "inputs": [
        {
          "indexed": false,
          "name": "token",
          "type": "address"
        },
        {
          "indexed": false,
          "name": "sender",
          "type": "address"
        },
        {
          "indexed": false,
          "name": "amount",
          "type": "uint256"
        },
        {
          "indexed": false,
          "name": "senderBalance",
          "type": "uint256"
        },
        {
          "indexed": false,
          "name": "reveiver",
          "type": "address"
        },
        {
          "indexed": false,
          "name": "receriverBalance",
          "type": "uint256"
        }
      ],
      "name": "Transfer",
      "type": "event"
    },
    {
      "anonymous": false,
      "inputs": [
        {
          "indexed": false,
          "name": "maker",
          "type": "address"
        },
        {
          "indexed": false,
          "name": "tokenSell",
          "type": "address"
        },
        {
          "indexed": false,
          "name": "tokenBuy",
          "type": "address"
        },
        {
          "indexed": false,
          "name": "amountSell",
          "type": "uint256"
        },
        {
          "indexed": false,
          "name": "amountBuy",
          "type": "uint256"
        }
      ],
      "name": "TradeScuessed",
      "type": "event"
    },
    {
      "anonymous": false,
      "inputs": [
        {
          "indexed": false,
          "name": "orderID",
          "type": "bytes32"
        },
        {
          "indexed": false,
          "name": "maker",
          "type": "address"
        },
        {
          "indexed": false,
          "name": "tokenSell",
          "type": "address"
        },
        {
          "indexed": false,
          "name": "tokenBuy",
          "type": "address"
        },
        {
          "indexed": false,
          "name": "amountSell",
          "type": "uint256"
        },
        {
          "indexed": false,
          "name": "amountBuy",
          "type": "uint256"
        },
        {
          "indexed": false,
          "name": "expires",
          "type": "uint256"
        },
        {
          "indexed": false,
          "name": "nonce",
          "type": "uint256"
        }
      ],
      "name": "NewOrder",
      "type": "event"
    },
    {
      "anonymous": false,
      "inputs": [
        {
          "indexed": false,
          "name": "index",
          "type": "uint8"
        },
        {
          "indexed": false,
          "name": "maker",
          "type": "address"
        },
        {
          "indexed": false,
          "name": "tokenSell",
          "type": "address"
        },
        {
          "indexed": false,
          "name": "tokenBuy",
          "type": "address"
        },
        {
          "indexed": false,
          "name": "amountSell",
          "type": "uint256"
        },
        {
          "indexed": false,
          "name": "amountBuy",
          "type": "uint256"
        },
        {
          "indexed": false,
          "name": "expires",
          "type": "uint256"
        },
        {
          "indexed": false,
          "name": "nonce",
          "type": "uint256"
        }
      ],
      "name": "Fail",
      "type": "event"
    },
    {
      "anonymous": false,
      "inputs": [
        {
          "indexed": true,
          "name": "previousOwner",
          "type": "address"
        },
        {
          "indexed": true,
          "name": "newOwner",
          "type": "address"
        }
      ],
      "name": "OwnershipTransferred",
      "type": "event"
    }
  ],
  "bytecode": "0x606060405260008054600160a060020a033316600160a060020a03199091161790556118b6806100306000396000f300606060405236156100bf5763ffffffff60e060020a60003504166347e7ef2481146100c457806377e0f146146100dd5780637b4abd7b146101265780638da5cb5b1461013f57806392d4d9ac1461016e5780639a54285a146101b0578063bd1bceca146101c6578063beabacc81461023e578063c23f001f14610266578063c441d0861461029d578063d4fac45d146102bf578063da4e2f9c146102e4578063f2fde38b14610333578063f3fef3a314610352578063f4e733fe14610374575b600080fd5b6100db600160a060020a03600435166024356103a5565b005b34156100e857600080fd5b6100db600160a060020a036004358116906024358116906044351660643560843560a43560c43560ff60e43516610104356101243561014435610528565b341561013157600080fd5b6100db600435602435610765565b341561014a57600080fd5b6101526108f3565b604051600160a060020a03909116815260200160405180910390f35b341561017957600080fd5b61019c600435600160a060020a036024351660ff60443516606435608435610902565b604051901515815260200160405180910390f35b34156101bb57600080fd5b6100db600435610a38565b34156101d157600080fd5b6101dc600435610c86565b604051998a52600160a060020a0398891660208b01529688166040808b0191909152959097166060890152608088019390935260a087019190915260c086015260e0850152610100840192909252610120830152610140909101905180910390f35b341561024957600080fd5b6100db600160a060020a0360043581169060243516604435610ce8565b341561027157600080fd5b61028b600160a060020a0360043581169060243516610e37565b60405190815260200160405180910390f35b34156102a857600080fd5b61019c600160a060020a0360043516602435610e54565b34156102ca57600080fd5b61028b600160a060020a0360043581169060243516610e74565b34156102ef57600080fd5b61031b600160a060020a036004358116906024358116906044351660643560843560a43560c435610e9f565b60405191825260208201526040908101905180910390f35b341561033e57600080fd5b6100db600160a060020a0360043516610f2a565b341561035d57600080fd5b6100db600160a060020a0360043516602435610fb8565b341561037f57600080fd5b6100db600160a060020a036004358116906024351660443560643560843560a435611194565b600160a060020a038216158015906103bb575034155b806103c557508034145b15156103d057600080fd5b3415156104675781600160a060020a03166323b872dd33308460006040516020015260405160e060020a63ffffffff8616028152600160a060020a0393841660048201529190921660248201526044810191909152606401602060405180830381600087803b151561044157600080fd5b6102c65a03f1151561045257600080fd5b50505060405180519050151561046757600080fd5b600160a060020a038083166000908152600160209081526040808320339094168352929052205461049e908263ffffffff6113ff16565b600160a060020a038381166000908152600160209081526040808320339485168452909152908190208390557fdcbc1c05240f31ff3ad067ef1ee35ce4997762752e3a095284754544f4c709d79285929185919051600160a060020a0394851681529290931660208301526040808301919091526060820192909252608001905180910390a15050565b600160a060020a03808a1660009081526001602090815260408083203390941683529290529081205481908390101561056057600080fd5b4388101561056d57600080fd5b61057c8d8d8d8d8d8d8d610e9f565b90925090508015156106df57610595828e888888610902565b15156105a057600080fd5b61014060405190810160405280836000191681526020018e600160a060020a031681526020018d600160a060020a031681526020018c600160a060020a031681526020018b81526020018a81526020018981526020018881526020018a81526020016001815250600360008460001916600019168152602001908152602001600020600082015181556020820151600182018054600160a060020a031916600160a060020a03929092169190911790556040820151600282018054600160a060020a031916600160a060020a03929092169190911790556060820151600382018054600160a060020a031916600160a060020a03929092169190911790556080820151816004015560a0820151816005015560c0820151816006015560e082015181600701556101008201518160080155610120820151600990910155505b6106e882610a38565b6106f28284611415565b92507f9ffba7d3904f6d318f8375abfba77f08b05805062451e800d5be980e199c88ec8d8d8d8d8d604051600160a060020a0395861681529385166020850152919093166040808401919091526060830193909352608082015260a001905180910390a150505050505050505050505050565b61076d611824565b60008381526003602052604090819020906101409051908101604090815282548252600180840154600160a060020a039081166020850152600285015481169284019290925260038401549091166060830190815260048401546080840152600584015460a0840152600684015460c0840152600784015460e08401526008840154610100840152600990930154610120830152909250839160009051600160a060020a039081168252602080830193909352604091820160009081203390921681529252902054101561084057600080fd5b438160c00151101561085157600080fd5b80610120015160011461086357600080fd5b61086c83610a38565b6108768383611415565b91507f9ffba7d3904f6d318f8375abfba77f08b05805062451e800d5be980e199c88ec81602001518260400151836060015184608001518560a00151604051600160a060020a0395861681529385166020850152919093166040808401919091526060830193909352608082015260a001905180910390a1505050565b600054600160a060020a031681565b600061090c611878565b60006040805190810160405280601c81526020017f19457468657265756d205369676e6564204d6573736167653a0a333200000000815250915081886040518083805190602001908083835b602083106109775780518252601f199092019160209182019101610958565b6001836020036101000a038019825116818451161790925250505091909101928352505060200190506040518091039020905086600160a060020a03166001828888886040516000815260200160405260006040516020015260405193845260ff90921660208085019190915260408085019290925260608401929092526080909201915160208103908084039060008661646e5a03f11515610a1957600080fd5b505060206040510351600160a060020a03161498975050505050505050565b610a40611824565b60008281526003602052604090819020906101409051908101604090815282548252600180840154600160a060020a03908116602085015260028501548116928401928352600385015416606084015260048401546080840152600584015460a0840152600684015460c0840152600784015460e0840152600884015461010084015260099093015461012083015290925060009051600160a060020a0316600160a060020a0316815260200190815260200160002060008260200151600160a060020a031681526020810191909152604001600020541515610b385760008281526003602052604090206002600990910155610c82565b8060800151600160008360400151600160a060020a0316600160a060020a0316815260200190815260200160002060008360200151600160a060020a0316815260208101919091526040016000205411610c8257806101000151610c048260800151610bf88460a00151600160008760400151600160a060020a0316600160a060020a0316815260200190815260200160002060008760200151600160a060020a031681526020810191909152604001600020549063ffffffff6117d716565b9063ffffffff6117fb16565b11610c8257610c6f8160800151610bf88360a00151600160008660400151600160a060020a0316600160a060020a0316815260200190815260200160002060008660200151600160a060020a031681526020810191909152604001600020549063ffffffff6117d716565b6000838152600360205260409020600801555b5050565b600360208190526000918252604090912080546001820154600283015493830154600484015460058501546006860154600787015460088801546009909801549698600160a060020a039687169890871697969095169593949293919290918a565b600160a060020a038084166000908152600160209081526040808320339094168352929052205481901015610d1c57600080fd5b600160a060020a0380841660009081526001602090815260408083203390941683529290522054610d53908263ffffffff61181216565b600160a060020a03848116600090815260016020908152604080832033851684529091528082209390935590841681522054610d8f90826113ff565b600160a060020a038481166000908152600160209081526040808320878516808552925280832085905533938416835280832054919092527f29c199f50ce76b0c1dca77e3f332fcdfc5e44f16ed003a7170b0b3197a15faa593879392869291889151600160a060020a03968716815294861660208601526040808601949094526060850192909252909316608083015260a082019290925260c001905180910390a1505050565b600160209081526000928352604080842090915290825290205481565b600260209081526000928352604080842090915290825290205460ff1681565b600160a060020a03918216600090815260016020908152604080832093909416825291909152205490565b600080888888888888886040516c01000000000000000000000000600160a060020a039889168102825296881687026014820152949096169094026028840152603c830191909152605c820152607c810191909152609c81019190915260bc01604051908190039020600081815260036020526040902060090154909a909950975050505050505050565b60005433600160a060020a03908116911614610f4557600080fd5b600160a060020a0381161515610f5a57600080fd5b600054600160a060020a0380831691167f8be0079c531659141344cd1fd0a4f28419497f9722a3daafe3b4186f6b6457e060405160405180910390a360008054600160a060020a031916600160a060020a0392909216919091179055565b600160a060020a038083166000908152600160209081526040808320339094168352929052205481901015610fec57600080fd5b600160a060020a0380831660009081526001602090815260408083203390941683529290522054611023908263ffffffff61181216565b600160a060020a038084166000818152600160209081526040808320339095168352939052919091209190915515156110895733600160a060020a03168160405160006040518083038185876187965a03f192505050151561108457600080fd5b61110c565b81600160a060020a031663a9059cbb338360006040516020015260405160e060020a63ffffffff8516028152600160a060020a0390921660048301526024820152604401602060405180830381600087803b15156110e657600080fd5b6102c65a03f115156110f757600080fd5b50505060405180519050151561110c57600080fd5b600160a060020a03808316600090815260016020908152604080832033948516845290915290819020547ff341246adaac6f497bc2a656f546ab9e182111d630394f0c57c710a59a2cb5679285929091859151600160a060020a0394851681529290931660208301526040808301919091526060820192909252608001905180910390a15050565b600160a060020a03808716600090815260016020908152604080832033909416835292905290812054859010156111ca57600080fd5b43839011156111d857600080fd5b338787878787876040516c01000000000000000000000000600160a060020a039889168102825296881687026014820152949096169094026028840152603c830191909152605c820152607c810191909152609c81019190915260bc016040519081900390206000818152600360205260409020549091501561125757fe5b6101406040519081016040908152828252600160a060020a033381166020808501919091528a82168385015290891660608401526080830188905260a0830187905260c0830186905260e08301859052610100830187905260016101208401526000848152600390915220815181556020820151600182018054600160a060020a031916600160a060020a03929092169190911790556040820151600282018054600160a060020a031916600160a060020a03929092169190911790556060820151600382018054600160a060020a031916600160a060020a03929092169190911790556080820151816004015560a0820151816005015560c0820151816006015560e082015181600701556101008201518160080155610120820151600990910155507fda8fc6262a82b1376f3b423b065af02520146567658e61f4ebdb056cf0c5f8ec8133898989898989604051978852600160a060020a039687166020890152948616604080890191909152939095166060870152608086019190915260a085015260c084019290925260e0830152610100909101905180910390a150505050505050565b60008282018381101561140e57fe5b9392505050565b600080611420611824565b600085815260036020526040812060080154859350839011156114525760008681526003602052604090206008015492505b600086815260036020526040902060080154611474908463ffffffff61181216565b50600086815260036020526040812060080154116114a357600086815260036020526040902060026009909101555b600086815260036020526040908190209061014090519081016040908152825482526001830154600160a060020a0390811660208401526002840154811691830191909152600383015416606082015260048201546080820152600582015460a08201908152600683015460c0830152600783015460e0830152600883015461010083015260099092015461012082015292506115509051610bf88460800151869063ffffffff6117d716565b90506115ac81600160008560400151600160a060020a0316600160a060020a0316815260200190815260200160002060008560200151600160a060020a031681526020810191909152604001600020549063ffffffff61181216565b600160008460400151600160a060020a0316600160a060020a0316815260200190815260200160002060008460200151600160a060020a0316600160a060020a031681526020019081526020016000208190555061164481600160008560400151600160a060020a0390811682526020808301939093526040918201600090812033909216815292529020549063ffffffff6113ff16565b600160008460400151600160a060020a0316600160a060020a03168152602001908152602001600020600033600160a060020a0316600160a060020a03168152602001908152602001600020819055506116d883600160008560600151600160a060020a0390811682526020808301939093526040918201600090812033909216815292529020549063ffffffff61181216565b600160008460600151600160a060020a0316600160a060020a03168152602001908152602001600020600033600160a060020a0316600160a060020a031681526020019081526020016000208190555061178283600160008560600151600160a060020a0316600160a060020a0316815260200190815260200160002060008560200151600160a060020a031681526020810191909152604001600020549063ffffffff6113ff16565b600160008460600151600160a060020a0316600160a060020a0316815260200190815260200160002060008460200151600160a060020a03168152602081019190915260400160002055505090910392915050565b60008282028315806117f357508284828115156117f057fe5b04145b151561140e57fe5b600080828481151561180957fe5b04949350505050565b60008282111561181e57fe5b50900390565b6101406040519081016040908152600080835260208301819052908201819052606082018190526080820181905260a0820181905260c0820181905260e08201819052610100820181905261012082015290565b602060405190810160405260008152905600a165627a7a72305820891ae64f4a972491ba5483cc38e92b65dc631ab3e69536f69c48683d5f6c0ca40029",
  "source": "pragma solidity ^0.4.15;\n\nimport \"./lib/SafeMath.sol\";\nimport \"./lib/Ownable.sol\";\nimport {StandardToken as Token} from \"./lib/StandardToken.sol\";\n\n/** @title Joyso contract \n  * \n  */\ncontract Joyso is Ownable {\n    using SafeMath for uint256;\n\n    struct JoysoOrder {\n        bytes32 orderID;\n        address owner;\n        address tokenSell;\n        address tokenBuy;\n        uint256 amountSell;\n        uint256 amountBuy;\n        uint256 expires;\n        uint256 nonce;\n        uint256 balance;\n        /** status = 0: off-chain\n            status = 1: onchain and still avaliable\n            status = 2: onchain but finished\n         **/ \n        uint256 status; \n    }\n\n    mapping (address => mapping (address => uint256)) public balances;\n    mapping (address => mapping (uint256 => bool)) public dependency;\n    mapping (bytes32 => JoysoOrder) public orderBook;\n\n\n    //events\n    event Deposit (address token, address sender, uint256 amount, uint256 balance);\n    event Withdraw(address token, address user, uint256 amount, uint256 balance);\n    event Transfer (address token, address sender, uint256 amount, uint256 senderBalance, address reveiver, uint256 receriverBalance);\n    event TradeScuessed (address maker, address tokenSell, address tokenBuy, uint256 amountSell, uint256 amountBuy);\n    event NewOrder(bytes32 orderID, address maker, address tokenSell, address tokenBuy, uint256 amountSell, uint256 amountBuy, uint256 expires, uint256 nonce);\n\n    /** Event for take fails\n      * 1: the order is filled \n      * 2: maker's balance is not enough\n      * 3: scuess the trade but fail in turn to order\n      */\n    event Fail(uint8 index, address maker, address tokenSell, address tokenBuy, uint256 amountSell, uint256 amountBuy, uint256 expires, uint256 nonce);\n \n    /** Deposit allow user to store the funds in Joyso contract.\n      * It is more convenient to transfer funds or to trade in contract.\n      * Besure to approve the contract to move your erc20 token if depositToken.  \n      */\n    function deposit (address token, uint256 amount) public payable {\n        require((token != 0 && msg.value == 0) || msg.value == amount);\n        if (msg.value == 0) {\n            require(Token(token).transferFrom(msg.sender, this, amount));\n        }\n        balances[token][msg.sender] = balances[token][msg.sender].add(amount);\n        Deposit(token, msg.sender, amount, balances[token][msg.sender]);\n    }\n\n    function withdraw (address token, uint256 amount) public {\n        require (balances[token][msg.sender] >= amount);\n        balances[token][msg.sender] = balances[token][msg.sender].sub(amount);\n        if (token == 0) {\n            require (msg.sender.call.value(amount)());\n        } else {\n            require (Token(token).transfer(msg.sender, amount));\n        }\n        Withdraw(token, msg.sender, amount, balances[token][msg.sender]);\n    }\n\n    /** Transfer funds in contract.\n      * Using token = 0x to transfer ether.\n      */\n    function transfer (address token, address receiver, uint256 amount) public {\n        require (balances[token][msg.sender] >= amount);\n        balances[token][msg.sender] = balances[token][msg.sender].sub(amount);\n        balances[token][receiver] = balances[token][receiver].add(amount);\n        Transfer(token, msg.sender, amount, balances[token][msg.sender], receiver, balances[token][receiver]);\n    }\n\n    function make (address tokenSell, address tokenBuy, uint256 amountSell, uint256 amountBuy, uint256 expires, uint256 nonce) public {\n        // simple check first, if these not pass, there is no need to watse more gas \n        require(balances[tokenSell][msg.sender] >= amountSell);\n        require(block.number <= expires);\n        bytes32 hash = keccak256(msg.sender, tokenSell, tokenBuy, amountSell, amountBuy, expires, nonce);\n        assert(orderBook[hash].orderID == 0); // This should be a new order.\n        orderBook[hash] = JoysoOrder(hash, msg.sender, tokenSell, tokenBuy, amountSell, amountBuy, expires, nonce, amountBuy, 1);\n        NewOrder(hash, msg.sender, tokenSell, tokenBuy, amountSell, amountBuy, expires, nonce);\n    }\n\n    function takeByID (bytes32 orderID, uint256 amountTake) public {\n\n        JoysoOrder memory thisOrder = orderBook[orderID];\n        require(balances[thisOrder.tokenBuy][msg.sender] >= amountTake);\n        require(thisOrder.expires >= block.number);\n        require(thisOrder.status == 1);\n\n        // update order balance\n        updateOrder (orderID);\n\n        // trade\n        amountTake = trade(orderID, amountTake);\n        TradeScuessed(thisOrder.owner, thisOrder.tokenSell, thisOrder.tokenBuy, thisOrder.amountSell, thisOrder.amountBuy);\n    }\n\n    function take (address maker, address tokenSell, address tokenBuy, uint256 amountSell, uint256 amountBuy, uint256 expires, uint256 nonce,\n        uint8 v, bytes32 r, bytes32 s, uint256 amountTake) public \n    {\n        require(balances[tokenBuy][msg.sender] >= amountTake);\n        require(expires >= block.number);\n\n        bytes32 orderID;\n        uint256 orderStatus;\n        (orderID, orderStatus) = queryID(maker, tokenSell, tokenBuy, amountSell, amountBuy, expires, nonce);\n\n        if (orderStatus == 0) {\n            require (verify(orderID, maker, v, r, s));\n            orderBook[orderID] = JoysoOrder(orderID, maker, tokenSell, tokenBuy, amountSell, amountBuy, expires, nonce, amountBuy, 1);\n        }\n\n        // update order balance\n        updateOrder(orderID);\n        \n        // trade\n        amountTake = trade(orderID, amountTake);\n        TradeScuessed(maker, tokenSell, tokenBuy, amountSell, amountBuy);\n    }\n\n    function updateOrder (bytes32 orderID) public {\n        JoysoOrder memory thisOrder = orderBook[orderID];\n        if (balances[thisOrder.tokenSell][thisOrder.owner] == 0) {\n            orderBook[orderID].status = 2;\n            return;\n        }\n        if (balances[thisOrder.tokenSell][thisOrder.owner] <= thisOrder.amountSell) {\n            if (balances[thisOrder.tokenSell][thisOrder.owner].mul(thisOrder.amountBuy).div(thisOrder.amountSell) <= thisOrder.balance) {\n                orderBook[orderID].balance = balances[thisOrder.tokenSell][thisOrder.owner].mul(thisOrder.amountBuy).div(thisOrder.amountSell);\n            }\n        }\n    }\n\n    // helper functions\n    function getBalance (address token, address account) public view returns (uint256) {\n        return balances[token][account];\n    }\n\n    function queryID (address maker, address tokenSell, address tokenBuy, uint256 amountSell, uint256 amountBuy, uint256 expires, uint256 nonce) \n        public view returns (bytes32 hash, uint256 status) \n    {\n        hash = keccak256(maker, tokenSell, tokenBuy, amountSell, amountBuy, expires, nonce);\n        status = orderBook[hash].status;\n    }\n\n    function verify (bytes32 hash, address sender, uint8 v, bytes32 r, bytes32 s) public pure returns (bool) {\n        bytes memory prefix = \"\\x19Ethereum Signed Message:\\n32\";\n        bytes32 prefixedHash = keccak256(prefix, hash);\n        return ecrecover(prefixedHash, v, r, s) == sender;\n    }\n\n    // internal function\n    /** This function directly trade between two parties.\n      * Besure to check anything then enter this function.  \n      */\n    function trade (bytes32 orderID, uint256 amountTake) \n        private returns (uint256)\n    {\n        uint256 amountToBuy = amountTake;\n        if (orderBook[orderID].balance > amountTake) {\n            amountToBuy = orderBook[orderID].balance;\n        }\n\n        // update balance first\n        orderBook[orderID].balance.sub(amountToBuy);\n        if (orderBook[orderID].balance <= 0) {\n            orderBook[orderID].status = 2;\n        }\n        JoysoOrder memory thisOrder = orderBook[orderID];\n    \n        // update maker/taker's balance\n        uint256 amountToSell = amountToBuy.mul(thisOrder.amountSell).div(thisOrder.amountBuy);\n        balances[thisOrder.tokenSell][thisOrder.owner] = balances[thisOrder.tokenSell][thisOrder.owner].sub(amountToSell);\n        balances[thisOrder.tokenSell][msg.sender] = balances[thisOrder.tokenSell][msg.sender].add(amountToSell);\n        balances[thisOrder.tokenBuy][msg.sender] = balances[thisOrder.tokenBuy][msg.sender].sub(amountToBuy);\n        balances[thisOrder.tokenBuy][thisOrder.owner] = balances[thisOrder.tokenBuy][thisOrder.owner].add(amountToBuy);\n\n        return amountTake - amountToBuy;\n    }\n}",
  "sourcePath": "/Users/will/Work/ConsensusInnovation/joyso-contracts/contracts/Joyso.sol",
  "schemaVersion": "1.0.0",
  "updatedAt": "2017-11-09T14:34:38.478Z"
}