{
  "contractName": "Joyso",
  "abi": [
    {
      "constant": false,
      "inputs": [
        {
          "name": "token",
          "type": "address"
        },
        {
          "name": "amount",
          "type": "uint256"
        }
      ],
      "name": "deposit",
      "outputs": [],
      "payable": true,
      "stateMutability": "payable",
      "type": "function"
    },
    {
      "constant": true,
      "inputs": [
        {
          "name": "",
          "type": "bytes32"
        }
      ],
      "name": "remain",
      "outputs": [
        {
          "name": "",
          "type": "uint256"
        }
      ],
      "payable": false,
      "stateMutability": "view",
      "type": "function"
    },
    {
      "constant": true,
      "inputs": [
        {
          "name": "maker",
          "type": "address"
        },
        {
          "name": "tokenSell",
          "type": "address"
        },
        {
          "name": "tokenBuy",
          "type": "address"
        },
        {
          "name": "amountSell",
          "type": "uint256"
        },
        {
          "name": "amountBuy",
          "type": "uint256"
        },
        {
          "name": "expires",
          "type": "uint256"
        },
        {
          "name": "nonce",
          "type": "uint256"
        },
        {
          "name": "amountTake",
          "type": "uint256"
        },
        {
          "name": "hash",
          "type": "bytes32"
        }
      ],
      "name": "simpleCheck",
      "outputs": [
        {
          "name": "",
          "type": "bool"
        }
      ],
      "payable": false,
      "stateMutability": "view",
      "type": "function"
    },
    {
      "constant": true,
      "inputs": [],
      "name": "owner",
      "outputs": [
        {
          "name": "",
          "type": "address"
        }
      ],
      "payable": false,
      "stateMutability": "view",
      "type": "function"
    },
    {
      "constant": false,
      "inputs": [
        {
          "name": "hash",
          "type": "bytes32"
        },
        {
          "name": "sender",
          "type": "address"
        },
        {
          "name": "v",
          "type": "uint8"
        },
        {
          "name": "r",
          "type": "bytes32"
        },
        {
          "name": "s",
          "type": "bytes32"
        }
      ],
      "name": "verify",
      "outputs": [
        {
          "name": "",
          "type": "bool"
        }
      ],
      "payable": false,
      "stateMutability": "nonpayable",
      "type": "function"
    },
    {
      "constant": true,
      "inputs": [
        {
          "name": "",
          "type": "address"
        },
        {
          "name": "",
          "type": "bytes32"
        }
      ],
      "name": "orderBook",
      "outputs": [
        {
          "name": "",
          "type": "bool"
        }
      ],
      "payable": false,
      "stateMutability": "view",
      "type": "function"
    },
    {
      "constant": true,
      "inputs": [
        {
          "name": "maker",
          "type": "address"
        },
        {
          "name": "tokenSell",
          "type": "address"
        },
        {
          "name": "tokenBuy",
          "type": "address"
        },
        {
          "name": "amountSell",
          "type": "uint256"
        },
        {
          "name": "amountBuy",
          "type": "uint256"
        },
        {
          "name": "expires",
          "type": "uint256"
        },
        {
          "name": "nonce",
          "type": "uint256"
        },
        {
          "name": "v",
          "type": "uint8"
        },
        {
          "name": "r",
          "type": "bytes32"
        },
        {
          "name": "s",
          "type": "bytes32"
        }
      ],
      "name": "checkOrder",
      "outputs": [
        {
          "name": "",
          "type": "bool"
        }
      ],
      "payable": false,
      "stateMutability": "view",
      "type": "function"
    },
    {
      "constant": false,
      "inputs": [
        {
          "name": "token",
          "type": "address"
        },
        {
          "name": "receiver",
          "type": "address"
        },
        {
          "name": "amount",
          "type": "uint256"
        }
      ],
      "name": "transfer",
      "outputs": [],
      "payable": false,
      "stateMutability": "nonpayable",
      "type": "function"
    },
    {
      "constant": true,
      "inputs": [
        {
          "name": "",
          "type": "address"
        },
        {
          "name": "",
          "type": "address"
        }
      ],
      "name": "balances",
      "outputs": [
        {
          "name": "",
          "type": "uint256"
        }
      ],
      "payable": false,
      "stateMutability": "view",
      "type": "function"
    },
    {
      "constant": true,
      "inputs": [
        {
          "name": "",
          "type": "address"
        },
        {
          "name": "",
          "type": "uint256"
        }
      ],
      "name": "dependency",
      "outputs": [
        {
          "name": "",
          "type": "bool"
        }
      ],
      "payable": false,
      "stateMutability": "view",
      "type": "function"
    },
    {
      "constant": true,
      "inputs": [
        {
          "name": "token",
          "type": "address"
        },
        {
          "name": "account",
          "type": "address"
        }
      ],
      "name": "getBalance",
      "outputs": [
        {
          "name": "",
          "type": "uint256"
        }
      ],
      "payable": false,
      "stateMutability": "view",
      "type": "function"
    },
    {
      "constant": false,
      "inputs": [
        {
          "name": "newOwner",
          "type": "address"
        }
      ],
      "name": "transferOwnership",
      "outputs": [],
      "payable": false,
      "stateMutability": "nonpayable",
      "type": "function"
    },
    {
      "constant": false,
      "inputs": [
        {
          "name": "token",
          "type": "address"
        },
        {
          "name": "amount",
          "type": "uint256"
        }
      ],
      "name": "withdraw",
      "outputs": [],
      "payable": false,
      "stateMutability": "nonpayable",
      "type": "function"
    },
    {
      "constant": false,
      "inputs": [
        {
          "name": "tokenSell",
          "type": "address"
        },
        {
          "name": "tokenBuy",
          "type": "address"
        },
        {
          "name": "amountSell",
          "type": "uint256"
        },
        {
          "name": "amountBuy",
          "type": "uint256"
        },
        {
          "name": "expires",
          "type": "uint256"
        },
        {
          "name": "nonce",
          "type": "uint256"
        }
      ],
      "name": "make",
      "outputs": [],
      "payable": false,
      "stateMutability": "nonpayable",
      "type": "function"
    },
    {
      "constant": false,
      "inputs": [
        {
          "name": "maker",
          "type": "address"
        },
        {
          "name": "tokenSell",
          "type": "address"
        },
        {
          "name": "tokenBuy",
          "type": "address"
        },
        {
          "name": "amountSell",
          "type": "uint256"
        },
        {
          "name": "amountBuy",
          "type": "uint256"
        },
        {
          "name": "expires",
          "type": "uint256"
        },
        {
          "name": "nonce",
          "type": "uint256"
        },
        {
          "name": "v",
          "type": "uint8"
        },
        {
          "name": "r",
          "type": "bytes32"
        },
        {
          "name": "s",
          "type": "bytes32"
        },
        {
          "name": "amountTake",
          "type": "uint256"
        },
        {
          "name": "turnToOrder",
          "type": "uint256"
        }
      ],
      "name": "take",
      "outputs": [],
      "payable": false,
      "stateMutability": "nonpayable",
      "type": "function"
    },
    {
      "anonymous": false,
      "inputs": [
        {
          "indexed": false,
          "name": "token",
          "type": "address"
        },
        {
          "indexed": false,
          "name": "sender",
          "type": "address"
        },
        {
          "indexed": false,
          "name": "amount",
          "type": "uint256"
        },
        {
          "indexed": false,
          "name": "balance",
          "type": "uint256"
        }
      ],
      "name": "Deposit",
      "type": "event"
    },
    {
      "anonymous": false,
      "inputs": [
        {
          "indexed": false,
          "name": "token",
          "type": "address"
        },
        {
          "indexed": false,
          "name": "user",
          "type": "address"
        },
        {
          "indexed": false,
          "name": "amount",
          "type": "uint256"
        },
        {
          "indexed": false,
          "name": "balance",
          "type": "uint256"
        }
      ],
      "name": "Withdraw",
      "type": "event"
    },
    {
      "anonymous": false,
      "inputs": [
        {
          "indexed": false,
          "name": "token",
          "type": "address"
        },
        {
          "indexed": false,
          "name": "sender",
          "type": "address"
        },
        {
          "indexed": false,
          "name": "amount",
          "type": "uint256"
        },
        {
          "indexed": false,
          "name": "senderBalance",
          "type": "uint256"
        },
        {
          "indexed": false,
          "name": "reveiver",
          "type": "address"
        },
        {
          "indexed": false,
          "name": "receriverBalance",
          "type": "uint256"
        }
      ],
      "name": "Transfer",
      "type": "event"
    },
    {
      "anonymous": false,
      "inputs": [
        {
          "indexed": false,
          "name": "maker",
          "type": "address"
        },
        {
          "indexed": false,
          "name": "tokenSell",
          "type": "address"
        },
        {
          "indexed": false,
          "name": "tokenBuy",
          "type": "address"
        },
        {
          "indexed": false,
          "name": "amountSell",
          "type": "uint256"
        },
        {
          "indexed": false,
          "name": "amountBuy",
          "type": "uint256"
        }
      ],
      "name": "TradeScuessed",
      "type": "event"
    },
    {
      "anonymous": false,
      "inputs": [
        {
          "indexed": false,
          "name": "maker",
          "type": "address"
        },
        {
          "indexed": false,
          "name": "tokenSell",
          "type": "address"
        },
        {
          "indexed": false,
          "name": "tokenBuy",
          "type": "address"
        },
        {
          "indexed": false,
          "name": "amountSell",
          "type": "uint256"
        },
        {
          "indexed": false,
          "name": "amountBuy",
          "type": "uint256"
        },
        {
          "indexed": false,
          "name": "expires",
          "type": "uint256"
        },
        {
          "indexed": false,
          "name": "nonce",
          "type": "uint256"
        }
      ],
      "name": "NewOrder",
      "type": "event"
    },
    {
      "anonymous": false,
      "inputs": [
        {
          "indexed": false,
          "name": "index",
          "type": "uint8"
        },
        {
          "indexed": false,
          "name": "maker",
          "type": "address"
        },
        {
          "indexed": false,
          "name": "tokenSell",
          "type": "address"
        },
        {
          "indexed": false,
          "name": "tokenBuy",
          "type": "address"
        },
        {
          "indexed": false,
          "name": "amountSell",
          "type": "uint256"
        },
        {
          "indexed": false,
          "name": "amountBuy",
          "type": "uint256"
        },
        {
          "indexed": false,
          "name": "expires",
          "type": "uint256"
        },
        {
          "indexed": false,
          "name": "nonce",
          "type": "uint256"
        }
      ],
      "name": "Fail",
      "type": "event"
    },
    {
      "anonymous": false,
      "inputs": [
        {
          "indexed": true,
          "name": "previousOwner",
          "type": "address"
        },
        {
          "indexed": true,
          "name": "newOwner",
          "type": "address"
        }
      ],
      "name": "OwnershipTransferred",
      "type": "event"
    }
  ],
  "bytecode": "0x606060405260008054600160a060020a033316600160a060020a03199091161790556111cb806100306000396000f300606060405236156100bf5763ffffffff60e060020a60003504166347e7ef2481146100c45780635fb12b20146100dd5780638844f899146101055780638da5cb5b1461015757806392d4d9ac14610186578063980048cf146101b4578063a8172e8b146101d6578063beabacc81461021b578063c23f001f14610243578063c441d08614610268578063d4fac45d1461028a578063f2fde38b146102af578063f3fef3a3146102ce578063f4e733fe146102f0578063ff75515d14610321575b600080fd5b6100db600160a060020a036004351660243561036e565b005b34156100e857600080fd5b6100f36004356104ef565b60405190815260200160405180910390f35b341561011057600080fd5b610143600160a060020a036004358116906024358116906044351660643560843560a43560c43560e43561010435610501565b604051901515815260200160405180910390f35b341561016257600080fd5b61016a610557565b604051600160a060020a03909116815260200160405180910390f35b341561019157600080fd5b610143600435600160a060020a036024351660ff60443516606435608435610566565b34156101bf57600080fd5b610143600160a060020a036004351660243561069c565b34156101e157600080fd5b610143600160a060020a036004358116906024358116906044351660643560843560a43560c43560ff60e4351661010435610124356106bc565b341561022657600080fd5b6100db600160a060020a03600435811690602435166044356107c8565b341561024e57600080fd5b6100f3600160a060020a0360043581169060243516610917565b341561027357600080fd5b610143600160a060020a0360043516602435610934565b341561029557600080fd5b6100f3600160a060020a0360043581169060243516610954565b34156102ba57600080fd5b6100db600160a060020a036004351661097f565b34156102d957600080fd5b6100db600160a060020a0360043516602435610a1a565b34156102fb57600080fd5b6100db600160a060020a036004358116906024351660443560643560843560a435610bf6565b341561032c57600080fd5b6100db600160a060020a036004358116906024358116906044351660643560843560a43560c43560ff60e4351661010435610124356101443561016435610dfd565b600160a060020a03821615158061038457503415155b151561038f57600080fd5b600160a060020a0382161561042e5781600160a060020a03166323b872dd33308460006040516020015260405160e060020a63ffffffff8616028152600160a060020a0393841660048201529190921660248201526044810191909152606401602060405180830381600087803b151561040857600080fd5b6102c65a03f1151561041957600080fd5b50505060405180519050151561042e57600080fd5b600160a060020a0380831660009081526001602090815260408083203390941683529290522054610465908263ffffffff610f1b16565b600160a060020a038381166000908152600160209081526040808320339485168452909152908190208390557fdcbc1c05240f31ff3ad067ef1ee35ce4997762752e3a095284754544f4c709d79285929185919051600160a060020a0394851681529290931660208301526040808301919091526060820192909252608001905180910390a15050565b60046020526000908152604090205481565b600084431080156105395750600160a060020a0380891660009081526001602090815260408083203390941683529290522054839010155b156105465750600161054a565b5060005b9998505050505050505050565b600054600160a060020a031681565b600061057061118d565b60006040805190810160405280601c81526020017f19457468657265756d205369676e6564204d6573736167653a0a333200000000815250915081886040518083805190602001908083835b602083106105db5780518252601f1990920191602091820191016105bc565b6001836020036101000a038019825116818451161790925250505091909101928352505060200190506040518091039020905086600160a060020a03166001828888886040516000815260200160405260006040516020015260405193845260ff90921660208085019190915260408085019290925260608401929092526080909201915160208103908084039060008661646e5a03f1151561067d57600080fd5b505060206040510351600160a060020a03161498975050505050505050565b600260209081526000928352604080842090915290825290205460ff1681565b600080864311806106f55750600160a060020a038c16600090815260036020908152604080832089845290915290205460ff1615156001145b1561070357600091506107b9565b8b8b8b8b8b8b8b6040516c01000000000000000000000000600160a060020a039889168102825296881687026014820152949096169094026028840152603c830191909152605c820152607c810191909152609c81019190915260bc01604051908190039020600160a060020a038d16600090815260026020908152604080832084845290915290205490915060ff16806107a657506107a6818d878787610566565b156107b457600191506107b9565b600091505b509a9950505050505050505050565b600160a060020a0380841660009081526001602090815260408083203390941683529290522054819010156107fc57600080fd5b600160a060020a0380841660009081526001602090815260408083203390941683529290522054610833908263ffffffff610f3116565b600160a060020a0384811660009081526001602090815260408083203385168452909152808220939093559084168152205461086f9082610f1b565b600160a060020a038481166000908152600160209081526040808320878516808552925280832085905533938416835280832054919092527f29c199f50ce76b0c1dca77e3f332fcdfc5e44f16ed003a7170b0b3197a15faa593879392869291889151600160a060020a03968716815294861660208601526040808601949094526060850192909252909316608083015260a082019290925260c001905180910390a1505050565b600160209081526000928352604080842090915290825290205481565b600360209081526000928352604080842090915290825290205460ff1681565b600160a060020a03918216600090815260016020908152604080832093909416825291909152205490565b60005433600160a060020a0390811691161461099a57600080fd5b600160a060020a03811615156109af57600080fd5b600054600160a060020a0380831691167f8be0079c531659141344cd1fd0a4f28419497f9722a3daafe3b4186f6b6457e060405160405180910390a36000805473ffffffffffffffffffffffffffffffffffffffff1916600160a060020a0392909216919091179055565b600160a060020a038083166000908152600160209081526040808320339094168352929052205481901015610a4e57600080fd5b600160a060020a0380831660009081526001602090815260408083203390941683529290522054610a85908263ffffffff610f3116565b600160a060020a03808416600081815260016020908152604080832033909516835293905291909120919091551515610aeb5733600160a060020a03168160405160006040518083038185876187965a03f1925050501515610ae657600080fd5b610b6e565b81600160a060020a031663a9059cbb338360006040516020015260405160e060020a63ffffffff8516028152600160a060020a0390921660048301526024820152604401602060405180830381600087803b1515610b4857600080fd5b6102c65a03f11515610b5957600080fd5b505050604051805190501515610b6e57600080fd5b600160a060020a03808316600090815260016020908152604080832033948516845290915290819020547ff341246adaac6f497bc2a656f546ab9e182111d630394f0c57c710a59a2cb5679285929091859151600160a060020a0394851681529290931660208301526040808301919091526060820192909252608001905180910390a15050565b600160a060020a0380871660009081526001602090815260408083203390941683529290529081205485901015610c2c57600080fd5b4383901115610c3a57600080fd5b811580610c6b5750600160a060020a033316600090815260036020908152604080832085845290915290205460ff16155b1515610c7657600080fd5b338787878787876040516c01000000000000000000000000600160a060020a039889168102825296881687026014820152949096169094026028840152603c830191909152605c820152607c810191909152609c81019190915260bc01604051908190039020600160a060020a033316600090815260026020908152604080832084845290915290205490915060ff1615610d0d57fe5b33600160a060020a0316600081815260026020908152604080832085845282528083208054600160ff19918216811790925594845260038352818420878552835281842080549095161790935583825260049052205415610d6a57fe5b600081815260046020526040908190208590557f8a1c1b1c9002405b7e1e855da73f05fe016cd83a56bb2ca8d81b00eb4092bc4e90339089908990899089908990899051600160a060020a0397881681529587166020870152939095166040808601919091526060850192909252608084015260a083019390935260c082015260e001905180910390a150505050505050565b60008c8c8c8c8c8c8c6040516c01000000000000000000000000600160a060020a039889168102825296881687026014820152949096169094026028840152603c830191909152605c820152607c810191909152609c81019190915260bc0160405180910390209050610e778d8d8d8d8d8d8d8a89610501565b1515610e8257600080fd5b610e908d828888888e610f43565b1515610e9b57600080fd5b610eaa818e8e8e8e8e89610fcb565b7f9ffba7d3904f6d318f8375abfba77f08b05805062451e800d5be980e199c88ec8d8d8d8d8d604051600160a060020a0395861681529385166020850152919093166040808401919091526060830193909352608082015260a001905180910390a150505050505050505050505050565b600082820183811015610f2a57fe5b9392505050565b600082821115610f3d57fe5b50900390565b600160a060020a038616600090815260026020908152604080832088845290915281205460ff161515610fc157610f7d8688878787610566565b1515610f8857600080fd5b600160a060020a03871660009081526002602090815260408083208984528252808320805460ff19166001179055600490915290208290555b9695505050505050565b600087815260046020526040812054610fea908363ffffffff610f3116565b6000898152600460205260409020556110198361100d848763ffffffff61115216565b9063ffffffff61117616565b600160a060020a038088166000908152600160209081526040808320938c1683529290522054909150611052908263ffffffff610f3116565b600160a060020a0387811660009081526001602090815260408083208c8516845290915280822093909355339091168152205461108f9082610f1b565b600160a060020a03808816600090815260016020818152604080842033861680865290835281852096909655938a168352908152828220938252929092529020546110e0908363ffffffff610f3116565b600160a060020a0386811660009081526001602090815260408083203385168452909152808220939093559089168152205461111c9083610f1b565b600160a060020a0395861660009081526001602090815260408083209a9098168252989098529490962093909355505050505050565b600082820283158061116e575082848281151561116b57fe5b04145b1515610f2a57fe5b600080828481151561118457fe5b04949350505050565b602060405190810160405260008152905600a165627a7a723058207129a4e23a9d65bc1f1397e3c7a49e17f8c7325d175bdafbcfad535be4005d310029",
  "source": "pragma solidity ^0.4.15;\n\nimport \"./lib/SafeMath.sol\";\nimport \"./lib/Ownable.sol\";\nimport {StandardToken as Token} from \"./lib/StandardToken.sol\";\n\n/** @title Joyso contract \n  * \n  */\ncontract Joyso is Ownable {\n    using SafeMath for uint256;\n\n    mapping (address => mapping (address => uint256)) public balances;\n    mapping (address => mapping (bytes32 => bool)) public orderBook;\n    mapping (address => mapping (uint256 => bool)) public dependency;\n    mapping (bytes32 => uint256) public remain;\n\n    //events\n    event Deposit (address token, address sender, uint256 amount, uint256 balance);\n    event Withdraw(address token, address user, uint256 amount, uint256 balance);\n    event Transfer (address token, address sender, uint256 amount, uint256 senderBalance, address reveiver, uint256 receriverBalance);\n    event TradeScuessed (address maker, address tokenSell, address tokenBuy, uint256 amountSell, uint256 amountBuy);\n    event NewOrder(address maker, address tokenSell, address tokenBuy, uint256 amountSell, uint256 amountBuy, uint256 expires, uint256 nonce);\n\n    /** Event for take fails\n      * 1: the order is filled \n      * 2: maker's balance is not enough\n      * 3: scuess the trade but fail in turn to order\n      */\n    event Fail(uint8 index, address maker, address tokenSell, address tokenBuy, uint256 amountSell, uint256 amountBuy, uint256 expires, uint256 nonce);\n \n    /** Deposit allow user to store the funds in Joyso contract.\n      * It is more convenient to transfer funds or to trade in contract.\n      * Besure to approve the contract to move your erc20 token if depositToken.  \n      */\n    function deposit (address token, uint256 amount) public payable {\n        require(token != 0 || msg.value != 0);\n        if (token != 0) {\n            require(Token(token).transferFrom(msg.sender, this, amount));\n        }\n        balances[token][msg.sender] = balances[token][msg.sender].add(amount);\n        Deposit(token, msg.sender, amount, balances[token][msg.sender]);\n    }\n\n    function withdraw (address token, uint256 amount) public {\n        require (balances[token][msg.sender] >= amount);\n        balances[token][msg.sender] = balances[token][msg.sender].sub(amount);\n        if (token == 0) {\n            require (msg.sender.call.value(amount)());\n        } else {\n            require (Token(token).transfer(msg.sender, amount));\n        }\n        Withdraw(token, msg.sender, amount, balances[token][msg.sender]);\n    }\n\n    /** Transfer funds in contract.\n      * Using token = 0x to transfer ether.\n      */\n    function transfer (address token, address receiver, uint256 amount) public {\n        require (balances[token][msg.sender] >= amount);\n        balances[token][msg.sender] = balances[token][msg.sender].sub(amount);\n        balances[token][receiver] = balances[token][receiver].add(amount);\n        Transfer(token, msg.sender, amount, balances[token][msg.sender], receiver, balances[token][receiver]);\n    }\n\n    function make (address tokenSell, address tokenBuy, uint256 amountSell, uint256 amountBuy, uint256 expires, uint256 nonce) public {\n        // simple check first, if these not pass, there is no need to watse more gas \n        require(balances[tokenSell][msg.sender] >= amountSell);\n        require(block.number <= expires);\n        require(nonce == 0 || dependency[msg.sender][nonce] == false); // nonce = 0 to ignore dependency check \n        bytes32 hash = keccak256(msg.sender, tokenSell, tokenBuy, amountSell, amountBuy, expires, nonce);\n        assert(orderBook[msg.sender][hash] == false); // This should be a new order.\n        orderBook[msg.sender][hash] = true;\n        dependency[msg.sender][nonce] = true;\n        assert(remain[hash] == 0); // a new order should ramain nothing. \n        remain[hash] = amountBuy;\n        NewOrder(msg.sender, tokenSell, tokenBuy, amountSell, amountBuy, expires, nonce);\n    }\n\n    /** if the remaing tokens of order is not enough, \n      * taker can turn the remaing token to the new order\n      * by specify the turnToOrder, \n      * if number is larger than current block height, it will be set to the expire\n      * else means do not want to tune to the new order. \n      */ \n    function take (address maker, address tokenSell, address tokenBuy, uint256 amountSell, uint256 amountBuy, uint256 expires, uint256 nonce, \n                uint8 v, bytes32 r, bytes32 s, uint256 amountTake, uint256 turnToOrder) public \n    {\n        bytes32 hash = keccak256(maker, tokenSell, tokenBuy, amountSell, amountBuy, expires, nonce);\n\n        // simple check first, if these not pass, there is no need to waste more gas\n        require(simpleCheck(maker, tokenSell, tokenBuy, amountSell, amountBuy, expires, nonce, amountTake, hash));\n \n        require(updateOrder(maker, hash, v, r, s, amountBuy));\n        \n        //uint256 amountToBuy = calculateOrder(amountTake, balances[tokenSell][maker].mul(amountBuy).div(amountSell), remain[hash]);\n\n        trade(hash, maker, tokenSell, tokenBuy, amountSell, amountBuy, amountTake);\n        // turnsToOrder(tokenBuy, tokenSell, amountTake, amountToBuy, amountSell, amountBuy, turnToOrder);\n        TradeScuessed(maker, tokenSell, tokenBuy, amountSell, amountBuy);\n    }\n\n    // helper functions\n    function getBalance (address token, address account) public constant returns (uint256) {\n        return balances[token][account];\n    }\n\n    function verify (bytes32 hash, address sender, uint8 v, bytes32 r, bytes32 s) public returns (bool) {\n        bytes memory prefix = \"\\x19Ethereum Signed Message:\\n32\";\n        bytes32 prefixedHash = keccak256(prefix, hash);\n        return ecrecover(prefixedHash, v, r, s) == sender;\n    }\n\n    function checkOrder (address maker, address tokenSell, address tokenBuy, uint256 amountSell, uint256 amountBuy, \n                uint256 expires, uint256 nonce, uint8 v, bytes32 r, bytes32 s)  constant returns (bool)\n    {\n        //simple check first \n        if (block.number > expires || \n            dependency[maker][nonce] == true) // check dependency\n        {\n            return false;\n        }\n        bytes32 hash = keccak256(maker, tokenSell, tokenBuy, amountSell, amountBuy, expires, nonce);\n        if (orderBook[maker][hash] || verify(hash, maker, v, r, s) ) { \n            return true;             \n        } \n        \n        return false;\n    }\n\n    function simpleCheck (address maker, address tokenSell, address tokenBuy, uint256 amountSell, uint256 amountBuy, uint256 expires, uint256 nonce, uint256 amountTake, bytes32 hash) \n        public constant returns (bool) \n    {\n        if (block.number < expires && \n            balances[tokenBuy][msg.sender] >= amountTake  \n             // && balances[tokenSell][maker].mul(amountBuy).div(amountSell) <= remain[hash]\n            ) {\n                return true;\n            }\n        return false;\n    }\n\n    // internal function\n    /** Trade function directly trade between two parties.\n      * Besure to check anything then enter this function.  \n      */\n    function trade (bytes32 hash, address maker, address tokenSell, address tokenBuy, uint256 amountSell, uint256 amountBuy, uint256 amountToBuy) \n        private \n    {\n        // update order first\n        remain[hash] = remain[hash].sub(amountToBuy);\n    \n        // update maker/taker's balance\n        uint256 amountToSell = amountToBuy.mul(amountSell).div(amountBuy);\n        balances[tokenSell][maker] = balances[tokenSell][maker].sub(amountToSell);\n        balances[tokenSell][msg.sender] = balances[tokenSell][msg.sender].add(amountToSell);\n        balances[tokenBuy][msg.sender] = balances[tokenBuy][msg.sender].sub(amountToBuy);\n        balances[tokenBuy][maker] = balances[tokenBuy][maker].add(amountToBuy);\n    }\n\n    function turnsToOrder (address tokenSell, address tokenBuy, uint256 amountTake, uint256 amountToBuy, uint256 amountSell, uint256 amountBuy, uint256 turnToOrder) \n        private \n    {\n        if (amountTake <= amountToBuy && turnToOrder < block.number) {\n            return;\n        }\n        uint256 amountSellInNewOrder = amountTake.sub(amountToBuy);\n        uint256 amountBuyInNewOrder = amountTake.sub(amountToBuy).mul(amountSell).div(amountBuy);\n        bytes32 newHash = keccak256(msg.sender, tokenSell, tokenBuy, amountSellInNewOrder, amountBuyInNewOrder, turnToOrder, 0);\n\n        // check if the hash is exist\n        if (orderBook[msg.sender][newHash] == true) {\n            Fail(3, msg.sender, tokenSell, tokenBuy, amountSellInNewOrder, amountBuyInNewOrder, turnToOrder, 0);\n            return;\n        }\n        orderBook[msg.sender][newHash] = true;\n        remain[newHash] = amountBuyInNewOrder;\n        NewOrder(msg.sender, tokenSell, tokenBuy, amountSellInNewOrder, amountBuyInNewOrder, turnToOrder, 0);\n        return; \n    }\n\n    function updateOrder (address maker, bytes32 hash, uint8 v, bytes32 r, bytes32 s, uint256 amountBuy) private returns (bool) {\n        if (!orderBook[maker][hash]) {\n            /** this order did not show on blockchain yet. \n              * if signature is right, put it on the chain. \n              * check the dependency and balance first, we dont need to put the invalid order on chain\n              */  \n            require(verify(hash, maker, v, r, s));             // verify the signature\n            orderBook[maker][hash] = true;\n            // we should put every filled order on-chain.\n            // assert(remain[hash] == 0);\n            remain[hash] = amountBuy;\n        }\n    }\n\n    /** calculates the minmum trade amount\n      * check maker balance \n      * check order remain \n      * check amountTake\n      */\n    function calculateOrder (uint256 amountTake, uint256 makerBalance, uint256 remains) private returns (uint256 amountToBuy) {\n        amountToBuy = amountTake;\n        if (amountToBuy > remains) {\n            amountToBuy = remains;\n        }\n        if (amountToBuy > makerBalance) {\n            amountToBuy = makerBalance;\n        }\n    }\n\n}",
  "sourcePath": "/Users/will/Work/ConsensusInnovation/joyso-contracts/contracts/Joyso.sol",
  "schemaVersion": "1.0.0",
  "updatedAt": "2017-11-01T13:56:18.132Z"
}