{
  "contractName": "TestToken",
  "abi": [
    {
      "constant": true,
      "inputs": [],
      "name": "name",
      "outputs": [
        {
          "name": "",
          "type": "string"
        }
      ],
      "payable": false,
      "stateMutability": "view",
      "type": "function"
    },
    {
      "constant": false,
      "inputs": [
        {
          "name": "_spender",
          "type": "address"
        },
        {
          "name": "_value",
          "type": "uint256"
        }
      ],
      "name": "approve",
      "outputs": [],
      "payable": false,
      "stateMutability": "nonpayable",
      "type": "function"
    },
    {
      "constant": true,
      "inputs": [],
      "name": "totalSupply",
      "outputs": [
        {
          "name": "",
          "type": "uint256"
        }
      ],
      "payable": false,
      "stateMutability": "view",
      "type": "function"
    },
    {
      "constant": false,
      "inputs": [
        {
          "name": "_from",
          "type": "address"
        },
        {
          "name": "_to",
          "type": "address"
        },
        {
          "name": "_value",
          "type": "uint256"
        }
      ],
      "name": "transferFrom",
      "outputs": [],
      "payable": false,
      "stateMutability": "nonpayable",
      "type": "function"
    },
    {
      "constant": true,
      "inputs": [],
      "name": "INITIAL_SUPPLY",
      "outputs": [
        {
          "name": "",
          "type": "uint256"
        }
      ],
      "payable": false,
      "stateMutability": "view",
      "type": "function"
    },
    {
      "constant": true,
      "inputs": [],
      "name": "decimals",
      "outputs": [
        {
          "name": "",
          "type": "uint256"
        }
      ],
      "payable": false,
      "stateMutability": "view",
      "type": "function"
    },
    {
      "constant": true,
      "inputs": [
        {
          "name": "_owner",
          "type": "address"
        }
      ],
      "name": "balanceOf",
      "outputs": [
        {
          "name": "balance",
          "type": "uint256"
        }
      ],
      "payable": false,
      "stateMutability": "view",
      "type": "function"
    },
    {
      "constant": true,
      "inputs": [],
      "name": "symbol",
      "outputs": [
        {
          "name": "",
          "type": "string"
        }
      ],
      "payable": false,
      "stateMutability": "view",
      "type": "function"
    },
    {
      "constant": false,
      "inputs": [
        {
          "name": "_to",
          "type": "address"
        },
        {
          "name": "_value",
          "type": "uint256"
        }
      ],
      "name": "transfer",
      "outputs": [],
      "payable": false,
      "stateMutability": "nonpayable",
      "type": "function"
    },
    {
      "constant": true,
      "inputs": [
        {
          "name": "_owner",
          "type": "address"
        },
        {
          "name": "_spender",
          "type": "address"
        }
      ],
      "name": "allowance",
      "outputs": [
        {
          "name": "remaining",
          "type": "uint256"
        }
      ],
      "payable": false,
      "stateMutability": "view",
      "type": "function"
    },
    {
      "inputs": [
        {
          "name": "_name",
          "type": "string"
        },
        {
          "name": "_symbol",
          "type": "string"
        },
        {
          "name": "_decimals",
          "type": "uint256"
        }
      ],
      "payable": false,
      "stateMutability": "nonpayable",
      "type": "constructor"
    },
    {
      "anonymous": false,
      "inputs": [
        {
          "indexed": true,
          "name": "owner",
          "type": "address"
        },
        {
          "indexed": true,
          "name": "spender",
          "type": "address"
        },
        {
          "indexed": false,
          "name": "value",
          "type": "uint256"
        }
      ],
      "name": "Approval",
      "type": "event"
    },
    {
      "anonymous": false,
      "inputs": [
        {
          "indexed": true,
          "name": "from",
          "type": "address"
        },
        {
          "indexed": true,
          "name": "to",
          "type": "address"
        },
        {
          "indexed": false,
          "name": "value",
          "type": "uint256"
        }
      ],
      "name": "Transfer",
      "type": "event"
    }
  ],
  "bytecode": "0x606060405260408051908101604052600481527f54657374000000000000000000000000000000000000000000000000000000006020820152600390805161004b929160200190610142565b5060408051908101604052600381527f545354000000000000000000000000000000000000000000000000000000000060208201526004908051610093929160200190610142565b5060126005557c03b58e88c75313ec9d329eaaa18fb92f75215b1710000000000000000060065534156100c557600080fd5b604051610830380380610830833981016040528080518201919060200180518201919060200180516006546000818155600160a060020a033316815260016020526040902055915060039050838051610122929160200190610142565b506004828051610136929160200190610142565b50600555506101dd9050565b828054600181600116156101000203166002900490600052602060002090601f016020900481019282601f1061018357805160ff19168380011785556101b0565b828001600101855582156101b0579182015b828111156101b0578251825591602001919060010190610195565b506101bc9291506101c0565b5090565b6101da91905b808211156101bc57600081556001016101c6565b90565b610644806101ec6000396000f3006060604052600436106100a35763ffffffff7c010000000000000000000000000000000000000000000000000000000060003504166306fdde0381146100a8578063095ea7b31461013257806318160ddd1461015657806323b872dd1461017b5780632ff2e9dc146101a3578063313ce567146101b657806370a08231146101c957806395d89b41146101e8578063a9059cbb146101fb578063dd62ed3e1461021d575b600080fd5b34156100b357600080fd5b6100bb610242565b60405160208082528190810183818151815260200191508051906020019080838360005b838110156100f75780820151838201526020016100df565b50505050905090810190601f1680156101245780820380516001836020036101000a031916815260200191505b509250505060405180910390f35b341561013d57600080fd5b610154600160a060020a03600435166024356102e0565b005b341561016157600080fd5b610169610344565b60405190815260200160405180910390f35b341561018657600080fd5b610154600160a060020a036004358116906024351660443561034a565b34156101ae57600080fd5b61016961046b565b34156101c157600080fd5b610169610471565b34156101d457600080fd5b610169600160a060020a0360043516610477565b34156101f357600080fd5b6100bb610492565b341561020657600080fd5b610154600160a060020a03600435166024356104fd565b341561022857600080fd5b610169600160a060020a03600435811690602435166105c5565b60038054600181600116156101000203166002900480601f0160208091040260200160405190810160405280929190818152602001828054600181600116156101000203166002900480156102d85780601f106102ad576101008083540402835291602001916102d8565b820191906000526020600020905b8154815290600101906020018083116102bb57829003601f168201915b505050505081565b600160a060020a03338116600081815260026020908152604080832094871680845294909152908190208490557f8c5be1e5ebec7d5bd14f71427d1e84f3dd0314c0f7b2291e5b200ac8c7c3b9259084905190815260200160405180910390a35050565b60005481565b600160a060020a03808416600090815260026020908152604080832033909416835292905220548082111561037b57fe5b600160a060020a0383166000908152600160205260409020546103a4908363ffffffff6105f016565b600160a060020a0380851660009081526001602052604080822093909355908616815220546103d9908363ffffffff61060616565b600160a060020a038516600090815260016020526040902055610402818363ffffffff61060616565b600160a060020a03808616600081815260026020908152604080832033861684529091529081902093909355908516917fddf252ad1be2c89b69c2b068fc378daa952ba7f163c4a11628f55a4df523b3ef9085905190815260200160405180910390a350505050565b60065481565b60055481565b600160a060020a031660009081526001602052604090205490565b60048054600181600116156101000203166002900480601f0160208091040260200160405190810160405280929190818152602001828054600181600116156101000203166002900480156102d85780601f106102ad576101008083540402835291602001916102d8565b6040604436101561050a57fe5b600160a060020a033316600090815260016020526040902054610533908363ffffffff61060616565b600160a060020a033381166000908152600160205260408082209390935590851681522054610568908363ffffffff6105f016565b600160a060020a0380851660008181526001602052604090819020939093559133909116907fddf252ad1be2c89b69c2b068fc378daa952ba7f163c4a11628f55a4df523b3ef9085905190815260200160405180910390a3505050565b600160a060020a03918216600090815260026020908152604080832093909416825291909152205490565b6000828201838110156105ff57fe5b9392505050565b60008282111561061257fe5b509003905600a165627a7a723058206693ddff1ddc171fe6f7f717d436e375f2660399a8a009f3046b7dc31de1ec140029",
  "source": "pragma solidity ^0.4.8;\n\n\n/* all this file is based on code from open zepplin\n * https://github.com/OpenZeppelin/zeppelin-solidity/tree/master/contracts/token */\n\n\n\n/**\n * Standard ERC20 token\n *\n * Based on code by FirstBlood:\n * https://github.com/Firstbloodio/token/blob/master/smart_contract/FirstBloodToken.sol\n */\n\n\n\n/**\n * Math operations with safety checks\n */\nlibrary SafeMath {\n  function mul(uint a, uint b) internal pure returns (uint) {\n    uint c = a * b;\n    assert(a == 0 || c / a == b);\n    return c;\n  }\n\n  function div(uint a, uint b) internal pure returns (uint) {\n    assert(b > 0);\n    uint c = a / b;\n    assert(a == b * c + a % b);\n    return c;\n  }\n\n  function sub(uint a, uint b) internal pure returns (uint) {\n    assert(b <= a);\n    return a - b;\n  }\n\n  function add(uint a, uint b) internal pure returns (uint) {\n    uint c = a + b;\n    assert(c >= a);\n    return c;\n  }\n\n  function max64(uint64 a, uint64 b) internal pure returns (uint64) {\n    return a >= b ? a : b;\n  }\n\n  function min64(uint64 a, uint64 b) internal pure returns (uint64) {\n    return a < b ? a : b;\n  }\n\n  function max256(uint256 a, uint256 b) internal pure returns (uint256) {\n    return a >= b ? a : b;\n  }\n\n  function min256(uint256 a, uint256 b) internal pure returns (uint256) {\n    return a < b ? a : b;\n  }\n\n}\n\n\n////////////////////////////////////////////////////////////////////////////////\n\n/*\n * ERC20Basic\n * Simpler version of ERC20 interface\n * see https://github.com/ethereum/EIPs/issues/20\n */\ncontract ERC20Basic {\n  uint public totalSupply;\n  function balanceOf(address who) public constant returns (uint);\n  function transfer(address to, uint value) public ;\n  event Transfer(address indexed from, address indexed to, uint value);\n}\n\n////////////////////////////////////////////////////////////////////////////////\n\n/*\n * ERC20 interface\n * see https://github.com/ethereum/EIPs/issues/20\n */\ncontract ERC20 is ERC20Basic {\n  function allowance(address owner, address spender) public constant returns (uint);\n  function transferFrom(address from, address to, uint value) public ;\n  function approve(address spender, uint value) public ;\n  event Approval(address indexed owner, address indexed spender, uint value);\n}\n\n////////////////////////////////////////////////////////////////////////////////\n\n/*\n * Basic token\n * Basic version of StandardToken, with no allowances\n */\ncontract BasicToken is ERC20Basic {\n  using SafeMath for uint;\n\n  mapping(address => uint) balances;\n\n  /*\n   * Fix for the ERC20 short address attack\n   */\n  modifier onlyPayloadSize(uint size) {\n     assert(msg.data.length >= size + 4);\n     _;\n  }\n\n  function transfer(address _to, uint _value) onlyPayloadSize(2 * 32) public {\n    balances[msg.sender] = balances[msg.sender].sub(_value);\n    balances[_to] = balances[_to].add(_value);\n    Transfer(msg.sender, _to, _value);\n  }\n\n  function balanceOf(address _owner) constant public returns (uint balance) {\n    return balances[_owner];\n  }\n\n}\n\n\n////////////////////////////////////////////////////////////////////////////////\n\n/**\n * Standard ERC20 token\n *\n * https://github.com/ethereum/EIPs/issues/20\n * Based on code by FirstBlood:\n * https://github.com/Firstbloodio/token/blob/master/smart_contract/FirstBloodToken.sol\n */\ncontract StandardToken is BasicToken, ERC20 {\n\n  mapping (address => mapping (address => uint)) allowed;\n\n  function transferFrom(address _from, address _to, uint _value) public {\n\n    var _allowance = allowed[_from][msg.sender];\n\n    // Check is not needed because sub(_allowance, _value) will already throw if this condition is not met\n    assert (_value <= _allowance);\n\n    balances[_to] = balances[_to].add(_value);\n    balances[_from] = balances[_from].sub(_value);\n    allowed[_from][msg.sender] = _allowance.sub(_value);\n    Transfer(_from, _to, _value);\n  }\n\n  function approve(address _spender, uint _value) public {\n    allowed[msg.sender][_spender] = _value;\n    Approval(msg.sender, _spender, _value);\n  }\n\n  function allowance(address _owner, address _spender) public constant returns (uint remaining) {\n    return allowed[_owner][_spender];\n  }\n\n}\n\n////////////////////////////////////////////////////////////////////////////////\n\n/*\n * SimpleToken\n *\n * Very simple ERC20 Token example, where all tokens are pre-assigned\n * to the creator. Note they can later distribute these tokens\n * as they wish using `transfer` and other `StandardToken` functions.\n */\ncontract TestToken is StandardToken {\n\n  string public name = \"Test\";\n  string public symbol = \"TST\";\n  uint public decimals = 18;\n  uint public INITIAL_SUPPLY = 10**(50+18);\n\n  function TestToken(string _name, string _symbol, uint _decimals) public {\n    totalSupply = INITIAL_SUPPLY;\n    balances[msg.sender] = INITIAL_SUPPLY;\n    name = _name;\n    symbol = _symbol;\n    decimals = _decimals;\n  }\n\n}\n",
  "sourcePath": "/Users/will/Work/ConsensusInnovation/joyso-contracts/contracts/TestToken.sol",
  "compiler": {
    "name": "solc",
    "version": "0.4.18+commit.9cf6e910.Emscripten.clang"
  },
  "schemaVersion": "1.0.1",
  "updatedAt": "2018-01-11T12:22:27.392Z"
}